{
  "_format": "hh-sol-artifact-1",
  "contractName": "Upload",
  "sourceName": "contracts/Upload.sol",
  "abi": [
    {
      "inputs": [],
      "stateMutability": "nonpayable",
      "type": "constructor"
    },
    {
      "inputs": [
        {
          "internalType": "string",
          "name": "_url",
          "type": "string"
        },
        {
          "internalType": "string",
          "name": "_solution",
          "type": "string"
        }
      ],
      "name": "AI_solution",
      "outputs": [],
      "stateMutability": "nonpayable",
      "type": "function"
    },
    {
      "inputs": [
        {
          "internalType": "address",
          "name": "",
          "type": "address"
        },
        {
          "internalType": "uint256",
          "name": "",
          "type": "uint256"
        }
      ],
      "name": "PendingImg",
      "outputs": [
        {
          "internalType": "string",
          "name": "",
          "type": "string"
        }
      ],
      "stateMutability": "view",
      "type": "function"
    },
    {
      "inputs": [
        {
          "internalType": "string",
          "name": "",
          "type": "string"
        }
      ],
      "name": "PendingList",
      "outputs": [
        {
          "internalType": "address",
          "name": "owner",
          "type": "address"
        },
        {
          "internalType": "string",
          "name": "imageUrl",
          "type": "string"
        },
        {
          "internalType": "string",
          "name": "AI_sol",
          "type": "string"
        },
        {
          "internalType": "address",
          "name": "reviewer",
          "type": "address"
        },
        {
          "internalType": "string",
          "name": "reviewer_sol",
          "type": "string"
        },
        {
          "internalType": "bool",
          "name": "got_AI",
          "type": "bool"
        },
        {
          "internalType": "bool",
          "name": "reviwed",
          "type": "bool"
        },
        {
          "internalType": "bool",
          "name": "verified",
          "type": "bool"
        },
        {
          "internalType": "uint256",
          "name": "verificationCount",
          "type": "uint256"
        },
        {
          "internalType": "uint256",
          "name": "true_count",
          "type": "uint256"
        },
        {
          "internalType": "uint256",
          "name": "false_count",
          "type": "uint256"
        }
      ],
      "stateMutability": "view",
      "type": "function"
    },
    {
      "inputs": [
        {
          "internalType": "address",
          "name": "_farmer",
          "type": "address"
        },
        {
          "internalType": "uint256",
          "name": "_adhar_id",
          "type": "uint256"
        }
      ],
      "name": "add_farmer",
      "outputs": [],
      "stateMutability": "nonpayable",
      "type": "function"
    },
    {
      "inputs": [
        {
          "internalType": "address",
          "name": "_scientist",
          "type": "address"
        },
        {
          "internalType": "uint256",
          "name": "_adhar_id",
          "type": "uint256"
        },
        {
          "internalType": "uint256",
          "name": "_scientist_id",
          "type": "uint256"
        }
      ],
      "name": "add_scientist",
      "outputs": [],
      "stateMutability": "nonpayable",
      "type": "function"
    },
    {
      "inputs": [
        {
          "internalType": "address",
          "name": "",
          "type": "address"
        },
        {
          "internalType": "uint256",
          "name": "",
          "type": "uint256"
        }
      ],
      "name": "closeImg",
      "outputs": [
        {
          "internalType": "string",
          "name": "",
          "type": "string"
        }
      ],
      "stateMutability": "view",
      "type": "function"
    },
    {
      "inputs": [
        {
          "internalType": "string",
          "name": "",
          "type": "string"
        }
      ],
      "name": "closeList",
      "outputs": [
        {
          "internalType": "address",
          "name": "owner",
          "type": "address"
        },
        {
          "internalType": "string",
          "name": "imageUrl",
          "type": "string"
        },
        {
          "internalType": "string",
          "name": "AI_sol",
          "type": "string"
        },
        {
          "internalType": "address",
          "name": "reviewer",
          "type": "address"
        },
        {
          "internalType": "string",
          "name": "reviewer_sol",
          "type": "string"
        },
        {
          "internalType": "bool",
          "name": "got_AI",
          "type": "bool"
        },
        {
          "internalType": "bool",
          "name": "reviwed",
          "type": "bool"
        },
        {
          "internalType": "bool",
          "name": "verified",
          "type": "bool"
        },
        {
          "internalType": "uint256",
          "name": "verificationCount",
          "type": "uint256"
        },
        {
          "internalType": "uint256",
          "name": "true_count",
          "type": "uint256"
        },
        {
          "internalType": "uint256",
          "name": "false_count",
          "type": "uint256"
        }
      ],
      "stateMutability": "view",
      "type": "function"
    },
    {
      "inputs": [
        {
          "internalType": "address",
          "name": "_user",
          "type": "address"
        }
      ],
      "name": "display_close",
      "outputs": [
        {
          "internalType": "string[]",
          "name": "",
          "type": "string[]"
        }
      ],
      "stateMutability": "view",
      "type": "function"
    },
    {
      "inputs": [
        {
          "internalType": "string",
          "name": "_url",
          "type": "string"
        }
      ],
      "name": "display_close_output",
      "outputs": [
        {
          "components": [
            {
              "internalType": "address",
              "name": "owner",
              "type": "address"
            },
            {
              "internalType": "string",
              "name": "imageUrl",
              "type": "string"
            },
            {
              "internalType": "string",
              "name": "AI_sol",
              "type": "string"
            },
            {
              "internalType": "address",
              "name": "reviewer",
              "type": "address"
            },
            {
              "internalType": "string",
              "name": "reviewer_sol",
              "type": "string"
            },
            {
              "internalType": "bool",
              "name": "got_AI",
              "type": "bool"
            },
            {
              "internalType": "bool",
              "name": "reviwed",
              "type": "bool"
            },
            {
              "internalType": "bool",
              "name": "verified",
              "type": "bool"
            },
            {
              "internalType": "address[]",
              "name": "verifiers",
              "type": "address[]"
            },
            {
              "internalType": "uint256",
              "name": "verificationCount",
              "type": "uint256"
            },
            {
              "internalType": "uint256",
              "name": "true_count",
              "type": "uint256"
            },
            {
              "internalType": "uint256",
              "name": "false_count",
              "type": "uint256"
            }
          ],
          "internalType": "struct Upload.Plant_Image",
          "name": "",
          "type": "tuple"
        }
      ],
      "stateMutability": "view",
      "type": "function"
    },
    {
      "inputs": [
        {
          "internalType": "address",
          "name": "_user",
          "type": "address"
        }
      ],
      "name": "display_farmer",
      "outputs": [
        {
          "components": [
            {
              "internalType": "uint256",
              "name": "level",
              "type": "uint256"
            },
            {
              "internalType": "uint256",
              "name": "adhar_id",
              "type": "uint256"
            },
            {
              "internalType": "uint256",
              "name": "auth_points",
              "type": "uint256"
            },
            {
              "internalType": "string[]",
              "name": "images_upload",
              "type": "string[]"
            },
            {
              "internalType": "string[]",
              "name": "image_VR",
              "type": "string[]"
            },
            {
              "internalType": "address",
              "name": "farmer_add",
              "type": "address"
            },
            {
              "internalType": "uint256",
              "name": "correctReportCount",
              "type": "uint256"
            }
          ],
          "internalType": "struct Upload.farmer",
          "name": "",
          "type": "tuple"
        }
      ],
      "stateMutability": "view",
      "type": "function"
    },
    {
      "inputs": [
        {
          "internalType": "address",
          "name": "_user",
          "type": "address"
        }
      ],
      "name": "display_final",
      "outputs": [
        {
          "internalType": "string[]",
          "name": "",
          "type": "string[]"
        }
      ],
      "stateMutability": "view",
      "type": "function"
    },
    {
      "inputs": [
        {
          "internalType": "string",
          "name": "_url",
          "type": "string"
        }
      ],
      "name": "display_final_output",
      "outputs": [
        {
          "components": [
            {
              "internalType": "address",
              "name": "owner",
              "type": "address"
            },
            {
              "internalType": "string",
              "name": "imageUrl",
              "type": "string"
            },
            {
              "internalType": "string",
              "name": "AI_sol",
              "type": "string"
            },
            {
              "internalType": "address",
              "name": "reviewer",
              "type": "address"
            },
            {
              "internalType": "string",
              "name": "reviewer_sol",
              "type": "string"
            },
            {
              "internalType": "bool",
              "name": "got_AI",
              "type": "bool"
            },
            {
              "internalType": "bool",
              "name": "reviwed",
              "type": "bool"
            },
            {
              "internalType": "bool",
              "name": "verified",
              "type": "bool"
            },
            {
              "internalType": "address[]",
              "name": "verifiers",
              "type": "address[]"
            },
            {
              "internalType": "uint256",
              "name": "verificationCount",
              "type": "uint256"
            },
            {
              "internalType": "uint256",
              "name": "true_count",
              "type": "uint256"
            },
            {
              "internalType": "uint256",
              "name": "false_count",
              "type": "uint256"
            }
          ],
          "internalType": "struct Upload.Plant_Image",
          "name": "",
          "type": "tuple"
        }
      ],
      "stateMutability": "view",
      "type": "function"
    },
    {
      "inputs": [
        {
          "internalType": "address",
          "name": "_user",
          "type": "address"
        }
      ],
      "name": "display_open",
      "outputs": [
        {
          "internalType": "string[]",
          "name": "",
          "type": "string[]"
        }
      ],
      "stateMutability": "view",
      "type": "function"
    },
    {
      "inputs": [
        {
          "internalType": "string",
          "name": "_url",
          "type": "string"
        }
      ],
      "name": "display_open_output",
      "outputs": [
        {
          "components": [
            {
              "internalType": "address",
              "name": "owner",
              "type": "address"
            },
            {
              "internalType": "string",
              "name": "imageUrl",
              "type": "string"
            },
            {
              "internalType": "string",
              "name": "AI_sol",
              "type": "string"
            },
            {
              "internalType": "address",
              "name": "reviewer",
              "type": "address"
            },
            {
              "internalType": "string",
              "name": "reviewer_sol",
              "type": "string"
            },
            {
              "internalType": "bool",
              "name": "got_AI",
              "type": "bool"
            },
            {
              "internalType": "bool",
              "name": "reviwed",
              "type": "bool"
            },
            {
              "internalType": "bool",
              "name": "verified",
              "type": "bool"
            },
            {
              "internalType": "address[]",
              "name": "verifiers",
              "type": "address[]"
            },
            {
              "internalType": "uint256",
              "name": "verificationCount",
              "type": "uint256"
            },
            {
              "internalType": "uint256",
              "name": "true_count",
              "type": "uint256"
            },
            {
              "internalType": "uint256",
              "name": "false_count",
              "type": "uint256"
            }
          ],
          "internalType": "struct Upload.Plant_Image",
          "name": "",
          "type": "tuple"
        }
      ],
      "stateMutability": "view",
      "type": "function"
    },
    {
      "inputs": [
        {
          "internalType": "address",
          "name": "_user",
          "type": "address"
        }
      ],
      "name": "display_scientist",
      "outputs": [
        {
          "components": [
            {
              "internalType": "uint256",
              "name": "level",
              "type": "uint256"
            },
            {
              "internalType": "uint256",
              "name": "adhar_id",
              "type": "uint256"
            },
            {
              "internalType": "uint256",
              "name": "auth_points",
              "type": "uint256"
            },
            {
              "internalType": "uint256",
              "name": "scientist_id",
              "type": "uint256"
            },
            {
              "internalType": "string[]",
              "name": "image_VR",
              "type": "string[]"
            },
            {
              "internalType": "address",
              "name": "scientist_add",
              "type": "address"
            },
            {
              "internalType": "uint256",
              "name": "correctReportCount",
              "type": "uint256"
            }
          ],
          "internalType": "struct Upload.scientist",
          "name": "",
          "type": "tuple"
        }
      ],
      "stateMutability": "view",
      "type": "function"
    },
    {
      "inputs": [
        {
          "internalType": "uint256",
          "name": "",
          "type": "uint256"
        }
      ],
      "name": "farmers",
      "outputs": [
        {
          "internalType": "address",
          "name": "",
          "type": "address"
        }
      ],
      "stateMutability": "view",
      "type": "function"
    },
    {
      "inputs": [
        {
          "internalType": "address",
          "name": "",
          "type": "address"
        },
        {
          "internalType": "uint256",
          "name": "",
          "type": "uint256"
        }
      ],
      "name": "finalImg",
      "outputs": [
        {
          "internalType": "string",
          "name": "",
          "type": "string"
        }
      ],
      "stateMutability": "view",
      "type": "function"
    },
    {
      "inputs": [
        {
          "internalType": "string",
          "name": "",
          "type": "string"
        }
      ],
      "name": "finalList",
      "outputs": [
        {
          "internalType": "address",
          "name": "owner",
          "type": "address"
        },
        {
          "internalType": "string",
          "name": "imageUrl",
          "type": "string"
        },
        {
          "internalType": "string",
          "name": "AI_sol",
          "type": "string"
        },
        {
          "internalType": "address",
          "name": "reviewer",
          "type": "address"
        },
        {
          "internalType": "string",
          "name": "reviewer_sol",
          "type": "string"
        },
        {
          "internalType": "bool",
          "name": "got_AI",
          "type": "bool"
        },
        {
          "internalType": "bool",
          "name": "reviwed",
          "type": "bool"
        },
        {
          "internalType": "bool",
          "name": "verified",
          "type": "bool"
        },
        {
          "internalType": "uint256",
          "name": "verificationCount",
          "type": "uint256"
        },
        {
          "internalType": "uint256",
          "name": "true_count",
          "type": "uint256"
        },
        {
          "internalType": "uint256",
          "name": "false_count",
          "type": "uint256"
        }
      ],
      "stateMutability": "view",
      "type": "function"
    },
    {
      "inputs": [
        {
          "internalType": "uint256",
          "name": "",
          "type": "uint256"
        }
      ],
      "name": "final_images",
      "outputs": [
        {
          "internalType": "string",
          "name": "",
          "type": "string"
        }
      ],
      "stateMutability": "view",
      "type": "function"
    },
    {
      "inputs": [],
      "name": "get_farmers",
      "outputs": [
        {
          "internalType": "address[]",
          "name": "",
          "type": "address[]"
        }
      ],
      "stateMutability": "view",
      "type": "function"
    },
    {
      "inputs": [],
      "name": "get_final_images",
      "outputs": [
        {
          "internalType": "string[]",
          "name": "",
          "type": "string[]"
        }
      ],
      "stateMutability": "view",
      "type": "function"
    },
    {
      "inputs": [],
      "name": "get_images",
      "outputs": [
        {
          "internalType": "string[]",
          "name": "",
          "type": "string[]"
        }
      ],
      "stateMutability": "view",
      "type": "function"
    },
    {
      "inputs": [],
      "name": "get_scientits",
      "outputs": [
        {
          "internalType": "address[]",
          "name": "",
          "type": "address[]"
        }
      ],
      "stateMutability": "view",
      "type": "function"
    },
    {
      "inputs": [
        {
          "internalType": "uint256",
          "name": "",
          "type": "uint256"
        }
      ],
      "name": "images",
      "outputs": [
        {
          "internalType": "string",
          "name": "",
          "type": "string"
        }
      ],
      "stateMutability": "view",
      "type": "function"
    },
    {
      "inputs": [
        {
          "internalType": "address",
          "name": "",
          "type": "address"
        },
        {
          "internalType": "uint256",
          "name": "",
          "type": "uint256"
        }
      ],
      "name": "openImg",
      "outputs": [
        {
          "internalType": "string",
          "name": "",
          "type": "string"
        }
      ],
      "stateMutability": "view",
      "type": "function"
    },
    {
      "inputs": [
        {
          "internalType": "string",
          "name": "",
          "type": "string"
        }
      ],
      "name": "openList",
      "outputs": [
        {
          "internalType": "address",
          "name": "owner",
          "type": "address"
        },
        {
          "internalType": "string",
          "name": "imageUrl",
          "type": "string"
        },
        {
          "internalType": "string",
          "name": "AI_sol",
          "type": "string"
        },
        {
          "internalType": "address",
          "name": "reviewer",
          "type": "address"
        },
        {
          "internalType": "string",
          "name": "reviewer_sol",
          "type": "string"
        },
        {
          "internalType": "bool",
          "name": "got_AI",
          "type": "bool"
        },
        {
          "internalType": "bool",
          "name": "reviwed",
          "type": "bool"
        },
        {
          "internalType": "bool",
          "name": "verified",
          "type": "bool"
        },
        {
          "internalType": "uint256",
          "name": "verificationCount",
          "type": "uint256"
        },
        {
          "internalType": "uint256",
          "name": "true_count",
          "type": "uint256"
        },
        {
          "internalType": "uint256",
          "name": "false_count",
          "type": "uint256"
        }
      ],
      "stateMutability": "view",
      "type": "function"
    },
    {
      "inputs": [
        {
          "internalType": "string",
          "name": "_url",
          "type": "string"
        },
        {
          "internalType": "string",
          "name": "_solution",
          "type": "string"
        }
      ],
      "name": "review_image",
      "outputs": [],
      "stateMutability": "nonpayable",
      "type": "function"
    },
    {
      "inputs": [
        {
          "internalType": "uint256",
          "name": "",
          "type": "uint256"
        }
      ],
      "name": "scientists",
      "outputs": [
        {
          "internalType": "address",
          "name": "",
          "type": "address"
        }
      ],
      "stateMutability": "view",
      "type": "function"
    },
    {
      "inputs": [
        {
          "internalType": "address",
          "name": "_user",
          "type": "address"
        },
        {
          "internalType": "string",
          "name": "_url",
          "type": "string"
        }
      ],
      "name": "upload_image",
      "outputs": [],
      "stateMutability": "nonpayable",
      "type": "function"
    },
    {
      "inputs": [
        {
          "internalType": "address",
          "name": "",
          "type": "address"
        }
      ],
      "name": "verifiers_map",
      "outputs": [
        {
          "internalType": "bool",
          "name": "",
          "type": "bool"
        }
      ],
      "stateMutability": "view",
      "type": "function"
    },
    {
      "inputs": [
        {
          "internalType": "string",
          "name": "_url",
          "type": "string"
        },
        {
          "internalType": "bool",
          "name": "_choice",
          "type": "bool"
        }
      ],
      "name": "verify_image",
      "outputs": [],
      "stateMutability": "nonpayable",
      "type": "function"
    }
  ],
  "bytecode": "0x608060405234801561001057600080fd5b50336000806101000a81548173ffffffffffffffffffffffffffffffffffffffff021916908373ffffffffffffffffffffffffffffffffffffffff160217905550615fc180620000616000396000f3fe608060405234801561001057600080fd5b50600436106101e55760003560e01c806376477e2f1161010f578063a0639160116100a2578063d5b8c35c11610071578063d5b8c35c14610676578063eeeece50146106a6578063f20a325a146106d6578063fafc5e0514610706576101e5565b8063a0639160146105f2578063a98307c61461060e578063b567d6a31461062a578063b8af0f791461065a576101e5565b806384856482116100de57806384856482146105285780638aa9e631146105585780638afdd6691461058857806392ee8345146105b8576101e5565b806376477e2f1461047257806376f1d5f8146104ac5780637aa4e76c146104c8578063836b03cd146104f8576101e5565b806339203b0f116101875780635b46b289116101565780635b46b289146103a85780635c307315146103d857806367f74545146104085780636aa4b03c14610442576101e5565b806339203b0f1461030c5780633a1d99971461032a578063421d73cc1461035a57806355975e571461038a576101e5565b80631fa675f0116101c35780631fa675f014610272578063201e5414146102a25780632aa58656146102c0578063314247e7146102dc576101e5565b80631236dfeb146101ea5780631a0153501461021a5780631b91831814610254575b600080fd5b61020460048036038101906101ff9190614bf3565b610722565b6040516102119190614cc3565b60405180910390f35b610234600480360381019061022f9190614e1a565b6107db565b60405161024b9b9a99989796959493929190614e9c565b60405180910390f35b61025c610a4a565b604051610269919061501a565b60405180910390f35b61028c60048036038101906102879190614bf3565b610ad8565b6040516102999190614cc3565b60405180910390f35b6102aa610b91565b6040516102b79190615148565b60405180910390f35b6102da60048036038101906102d5919061516a565b610c6a565b005b6102f660048036038101906102f19190614e1a565b611073565b6040516103039190615388565b60405180910390f35b61031461140b565b6040516103219190615148565b60405180910390f35b610344600480360381019061033f9190614bf3565b6114e4565b6040516103519190614cc3565b60405180910390f35b610374600480360381019061036f91906153aa565b61159d565b6040516103819190615148565b60405180910390f35b6103926116b5565b60405161039f919061501a565b60405180910390f35b6103c260048036038101906103bd91906153aa565b611743565b6040516103cf9190615500565b60405180910390f35b6103f260048036038101906103ed91906153aa565b6119cc565b6040516103ff9190615522565b60405180910390f35b610422600480360381019061041d9190614e1a565b6119ec565b6040516104399b9a99989796959493929190614e9c565b60405180910390f35b61045c600480360381019061045791906153aa565b611c5b565b6040516104699190615148565b60405180910390f35b61048c60048036038101906104879190614e1a565b611d73565b6040516104a39b9a99989796959493929190614e9c565b60405180910390f35b6104c660048036038101906104c1919061553d565b611fe2565b005b6104e260048036038101906104dd9190614bf3565b612327565b6040516104ef9190614cc3565b60405180910390f35b610512600480360381019061050d9190614e1a565b6123e0565b60405161051f9190615388565b60405180910390f35b610542600480360381019061053d9190615590565b612778565b60405161054f9190614cc3565b60405180910390f35b610572600480360381019061056d9190615590565b612824565b60405161057f91906155bd565b60405180910390f35b6105a2600480360381019061059d9190615590565b612863565b6040516105af91906155bd565b60405180910390f35b6105d260048036038101906105cd9190614e1a565b6128a2565b6040516105e99b9a99989796959493929190614e9c565b60405180910390f35b61060c60048036038101906106079190615604565b612b11565b005b61062860048036038101906106239190615660565b6138ac565b005b610644600480360381019061063f91906153aa565b613a0f565b6040516106519190615758565b60405180910390f35b610674600480360381019061066f9190614bf3565b613bc9565b005b610690600480360381019061068b9190615590565b613e38565b60405161069d9190614cc3565b60405180910390f35b6106c060048036038101906106bb9190614e1a565b613ee4565b6040516106cd9190615388565b60405180910390f35b6106f060048036038101906106eb91906153aa565b61427c565b6040516106fd9190615148565b60405180910390f35b610720600480360381019061071b919061516a565b614394565b005b600f602052816000526040600020818154811061073e57600080fd5b9060005260206000200160009150915050805461075a906157a9565b80601f0160208091040260200160405190810160405280929190818152602001828054610786906157a9565b80156107d35780601f106107a8576101008083540402835291602001916107d3565b820191906000526020600020905b8154815290600101906020018083116107b657829003601f168201915b505050505081565b600c818051602081018201805184825260208301602085012081835280955050505050506000915090508060000160009054906101000a900473ffffffffffffffffffffffffffffffffffffffff169080600101805461083a906157a9565b80601f0160208091040260200160405190810160405280929190818152602001828054610866906157a9565b80156108b35780601f10610888576101008083540402835291602001916108b3565b820191906000526020600020905b81548152906001019060200180831161089657829003601f168201915b5050505050908060020180546108c8906157a9565b80601f01602080910402602001604051908101604052809291908181526020018280546108f4906157a9565b80156109415780601f1061091657610100808354040283529160200191610941565b820191906000526020600020905b81548152906001019060200180831161092457829003601f168201915b5050505050908060030160009054906101000a900473ffffffffffffffffffffffffffffffffffffffff169080600401805461097c906157a9565b80601f01602080910402602001604051908101604052809291908181526020018280546109a8906157a9565b80156109f55780601f106109ca576101008083540402835291602001916109f5565b820191906000526020600020905b8154815290600101906020018083116109d857829003601f168201915b5050505050908060050160009054906101000a900460ff16908060050160019054906101000a900460ff16908060050160029054906101000a900460ff1690806007015490806008015490806009015490508b565b60606005805480602002602001604051908101604052809291908181526020018280548015610ace57602002820191906000526020600020905b8160009054906101000a900473ffffffffffffffffffffffffffffffffffffffff1673ffffffffffffffffffffffffffffffffffffffff1681526020019060010190808311610a84575b5050505050905090565b600e6020528160005260406000208181548110610af457600080fd5b90600052602060002001600091509150508054610b10906157a9565b80601f0160208091040260200160405190810160405280929190818152602001828054610b3c906157a9565b8015610b895780601f10610b5e57610100808354040283529160200191610b89565b820191906000526020600020905b815481529060010190602001808311610b6c57829003601f168201915b505050505081565b60606007805480602002602001604051908101604052809291908181526020016000905b82821015610c61578382906000526020600020018054610bd4906157a9565b80601f0160208091040260200160405190810160405280929190818152602001828054610c00906157a9565b8015610c4d5780601f10610c2257610100808354040283529160200191610c4d565b820191906000526020600020905b815481529060010190602001808311610c3057829003601f168201915b505050505081526020019060010190610bb5565b50505050905090565b6000600a83604051610c7c9190615816565b90815260200160405180910390209050600015158160050160009054906101000a900460ff16151503610ef95781816002019081610cba91906159d9565b5060018160050160006101000a81548160ff02191690831515021790555080600b84604051610ce99190615816565b90815260200160405180910390206000820160009054906101000a900473ffffffffffffffffffffffffffffffffffffffff168160000160006101000a81548173ffffffffffffffffffffffffffffffffffffffff021916908373ffffffffffffffffffffffffffffffffffffffff16021790555060018201816001019081610d729190615ac1565b5060028201816002019081610d879190615ac1565b506003820160009054906101000a900473ffffffffffffffffffffffffffffffffffffffff168160030160006101000a81548173ffffffffffffffffffffffffffffffffffffffff021916908373ffffffffffffffffffffffffffffffffffffffff16021790555060048201816004019081610e039190615ac1565b506005820160009054906101000a900460ff168160050160006101000a81548160ff0219169083151502179055506005820160019054906101000a900460ff168160050160016101000a81548160ff0219169083151502179055506005820160029054906101000a900460ff168160050160026101000a81548160ff0219169083151502179055506006820181600601908054610ea1929190614942565b50600782015481600701556008820154816008015560098201548160090155905050600783908060018154018082558091505060019003906000526020600020016000909190919091509081610ef791906159d9565b505b600a83604051610f099190615816565b9081526020016040518091039020600080820160006101000a81549073ffffffffffffffffffffffffffffffffffffffff0219169055600182016000610f4f9190614994565b600282016000610f5f9190614994565b6003820160006101000a81549073ffffffffffffffffffffffffffffffffffffffff0219169055600482016000610f969190614994565b6005820160006101000a81549060ff02191690556005820160016101000a81549060ff02191690556005820160026101000a81549060ff0219169055600682016000610fe291906149d4565b6007820160009055600882016000905560098201600090555050600f60003373ffffffffffffffffffffffffffffffffffffffff1673ffffffffffffffffffffffffffffffffffffffff1681526020019081526020016000208390806001815401808255809150506001900390600052602060002001600090919091909150908161106d91906159d9565b50505050565b61107b6149f5565b600c8260405161108b9190615816565b9081526020016040518091039020604051806101800160405290816000820160009054906101000a900473ffffffffffffffffffffffffffffffffffffffff1673ffffffffffffffffffffffffffffffffffffffff1673ffffffffffffffffffffffffffffffffffffffff16815260200160018201805461110b906157a9565b80601f0160208091040260200160405190810160405280929190818152602001828054611137906157a9565b80156111845780601f1061115957610100808354040283529160200191611184565b820191906000526020600020905b81548152906001019060200180831161116757829003601f168201915b5050505050815260200160028201805461119d906157a9565b80601f01602080910402602001604051908101604052809291908181526020018280546111c9906157a9565b80156112165780601f106111eb57610100808354040283529160200191611216565b820191906000526020600020905b8154815290600101906020018083116111f957829003601f168201915b505050505081526020016003820160009054906101000a900473ffffffffffffffffffffffffffffffffffffffff1673ffffffffffffffffffffffffffffffffffffffff1673ffffffffffffffffffffffffffffffffffffffff168152602001600482018054611285906157a9565b80601f01602080910402602001604051908101604052809291908181526020018280546112b1906157a9565b80156112fe5780601f106112d3576101008083540402835291602001916112fe565b820191906000526020600020905b8154815290600101906020018083116112e157829003601f168201915b505050505081526020016005820160009054906101000a900460ff161515151581526020016005820160019054906101000a900460ff161515151581526020016005820160029054906101000a900460ff16151515158152602001600682018054806020026020016040519081016040528092919081815260200182805480156113dd57602002820191906000526020600020905b8160009054906101000a900473ffffffffffffffffffffffffffffffffffffffff1673ffffffffffffffffffffffffffffffffffffffff1681526020019060010190808311611393575b5050505050815260200160078201548152602001600882015481526020016009820154815250509050919050565b60606008805480602002602001604051908101604052809291908181526020016000905b828210156114db57838290600052602060002001805461144e906157a9565b80601f016020809104026020016040519081016040528092919081815260200182805461147a906157a9565b80156114c75780601f1061149c576101008083540402835291602001916114c7565b820191906000526020600020905b8154815290600101906020018083116114aa57829003601f168201915b50505050508152602001906001019061142f565b50505050905090565b6011602052816000526040600020818154811061150057600080fd5b9060005260206000200160009150915050805461151c906157a9565b80601f0160208091040260200160405190810160405280929190818152602001828054611548906157a9565b80156115955780601f1061156a57610100808354040283529160200191611595565b820191906000526020600020905b81548152906001019060200180831161157857829003601f168201915b505050505081565b6060601160008373ffffffffffffffffffffffffffffffffffffffff1673ffffffffffffffffffffffffffffffffffffffff168152602001908152602001600020805480602002602001604051908101604052809291908181526020016000905b828210156116aa57838290600052602060002001805461161d906157a9565b80601f0160208091040260200160405190810160405280929190818152602001828054611649906157a9565b80156116965780601f1061166b57610100808354040283529160200191611696565b820191906000526020600020905b81548152906001019060200180831161167957829003601f168201915b5050505050815260200190600101906115fe565b505050509050919050565b6060600680548060200260200160405190810160405280929190818152602001828054801561173957602002820191906000526020600020905b8160009054906101000a900473ffffffffffffffffffffffffffffffffffffffff1673ffffffffffffffffffffffffffffffffffffffff16815260200190600101908083116116ef575b5050505050905090565b61174b614a88565b600260008373ffffffffffffffffffffffffffffffffffffffff1673ffffffffffffffffffffffffffffffffffffffff1681526020019081526020016000206040518060e001604052908160008201548152602001600182015481526020016002820154815260200160038201805480602002602001604051908101604052809291908181526020016000905b828210156118845783829060005260206000200180546117f7906157a9565b80601f0160208091040260200160405190810160405280929190818152602001828054611823906157a9565b80156118705780601f1061184557610100808354040283529160200191611870565b820191906000526020600020905b81548152906001019060200180831161185357829003601f168201915b5050505050815260200190600101906117d8565b50505050815260200160048201805480602002602001604051908101604052809291908181526020016000905b8282101561195d5783829060005260206000200180546118d0906157a9565b80601f01602080910402602001604051908101604052809291908181526020018280546118fc906157a9565b80156119495780601f1061191e57610100808354040283529160200191611949565b820191906000526020600020905b81548152906001019060200180831161192c57829003601f168201915b5050505050815260200190600101906118b1565b5050505081526020016005820160009054906101000a900473ffffffffffffffffffffffffffffffffffffffff1673ffffffffffffffffffffffffffffffffffffffff1673ffffffffffffffffffffffffffffffffffffffff1681526020016006820154815250509050919050565b60096020528060005260406000206000915054906101000a900460ff1681565b600b818051602081018201805184825260208301602085012081835280955050505050506000915090508060000160009054906101000a900473ffffffffffffffffffffffffffffffffffffffff1690806001018054611a4b906157a9565b80601f0160208091040260200160405190810160405280929190818152602001828054611a77906157a9565b8015611ac45780601f10611a9957610100808354040283529160200191611ac4565b820191906000526020600020905b815481529060010190602001808311611aa757829003601f168201915b505050505090806002018054611ad9906157a9565b80601f0160208091040260200160405190810160405280929190818152602001828054611b05906157a9565b8015611b525780601f10611b2757610100808354040283529160200191611b52565b820191906000526020600020905b815481529060010190602001808311611b3557829003601f168201915b5050505050908060030160009054906101000a900473ffffffffffffffffffffffffffffffffffffffff1690806004018054611b8d906157a9565b80601f0160208091040260200160405190810160405280929190818152602001828054611bb9906157a9565b8015611c065780601f10611bdb57610100808354040283529160200191611c06565b820191906000526020600020905b815481529060010190602001808311611be957829003601f168201915b5050505050908060050160009054906101000a900460ff16908060050160019054906101000a900460ff16908060050160029054906101000a900460ff1690806007015490806008015490806009015490508b565b6060601060008373ffffffffffffffffffffffffffffffffffffffff1673ffffffffffffffffffffffffffffffffffffffff168152602001908152602001600020805480602002602001604051908101604052809291908181526020016000905b82821015611d68578382906000526020600020018054611cdb906157a9565b80601f0160208091040260200160405190810160405280929190818152602001828054611d07906157a9565b8015611d545780601f10611d2957610100808354040283529160200191611d54565b820191906000526020600020905b815481529060010190602001808311611d3757829003601f168201915b505050505081526020019060010190611cbc565b505050509050919050565b600a818051602081018201805184825260208301602085012081835280955050505050506000915090508060000160009054906101000a900473ffffffffffffffffffffffffffffffffffffffff1690806001018054611dd2906157a9565b80601f0160208091040260200160405190810160405280929190818152602001828054611dfe906157a9565b8015611e4b5780601f10611e2057610100808354040283529160200191611e4b565b820191906000526020600020905b815481529060010190602001808311611e2e57829003601f168201915b505050505090806002018054611e60906157a9565b80601f0160208091040260200160405190810160405280929190818152602001828054611e8c906157a9565b8015611ed95780601f10611eae57610100808354040283529160200191611ed9565b820191906000526020600020905b815481529060010190602001808311611ebc57829003601f168201915b5050505050908060030160009054906101000a900473ffffffffffffffffffffffffffffffffffffffff1690806004018054611f14906157a9565b80601f0160208091040260200160405190810160405280929190818152602001828054611f40906157a9565b8015611f8d5780601f10611f6257610100808354040283529160200191611f8d565b820191906000526020600020905b815481529060010190602001808311611f7057829003601f168201915b5050505050908060050160009054906101000a900460ff16908060050160019054906101000a900460ff16908060050160029054906101000a900460ff1690806007015490806008015490806009015490508b565b60008054906101000a900473ffffffffffffffffffffffffffffffffffffffff1673ffffffffffffffffffffffffffffffffffffffff163373ffffffffffffffffffffffffffffffffffffffff1614612070576040517f08c379a000000000000000000000000000000000000000000000000000000000815260040161206790615bf5565b60405180910390fd5b82600160008573ffffffffffffffffffffffffffffffffffffffff1673ffffffffffffffffffffffffffffffffffffffff16815260200190815260200160002060050160006101000a81548173ffffffffffffffffffffffffffffffffffffffff021916908373ffffffffffffffffffffffffffffffffffffffff1602179055506002600160008573ffffffffffffffffffffffffffffffffffffffff1673ffffffffffffffffffffffffffffffffffffffff168152602001908152602001600020600001819055506000600160008573ffffffffffffffffffffffffffffffffffffffff1673ffffffffffffffffffffffffffffffffffffffff1681526020019081526020016000206002018190555081600160008573ffffffffffffffffffffffffffffffffffffffff1673ffffffffffffffffffffffffffffffffffffffff1681526020019081526020016000206001018190555080600160008573ffffffffffffffffffffffffffffffffffffffff1673ffffffffffffffffffffffffffffffffffffffff168152602001908152602001600020600301819055506001600960008573ffffffffffffffffffffffffffffffffffffffff1673ffffffffffffffffffffffffffffffffffffffff16815260200190815260200160002060006101000a81548160ff0219169083151502179055506001600360008573ffffffffffffffffffffffffffffffffffffffff1673ffffffffffffffffffffffffffffffffffffffff16815260200190815260200160002060006101000a81548160ff0219169083151502179055506006839080600181540180825580915050600190039060005260206000200160009091909190916101000a81548173ffffffffffffffffffffffffffffffffffffffff021916908373ffffffffffffffffffffffffffffffffffffffff160217905550505050565b6010602052816000526040600020818154811061234357600080fd5b9060005260206000200160009150915050805461235f906157a9565b80601f016020809104026020016040519081016040528092919081815260200182805461238b906157a9565b80156123d85780601f106123ad576101008083540402835291602001916123d8565b820191906000526020600020905b8154815290600101906020018083116123bb57829003601f168201915b505050505081565b6123e86149f5565b600b826040516123f89190615816565b9081526020016040518091039020604051806101800160405290816000820160009054906101000a900473ffffffffffffffffffffffffffffffffffffffff1673ffffffffffffffffffffffffffffffffffffffff1673ffffffffffffffffffffffffffffffffffffffff168152602001600182018054612478906157a9565b80601f01602080910402602001604051908101604052809291908181526020018280546124a4906157a9565b80156124f15780601f106124c6576101008083540402835291602001916124f1565b820191906000526020600020905b8154815290600101906020018083116124d457829003601f168201915b5050505050815260200160028201805461250a906157a9565b80601f0160208091040260200160405190810160405280929190818152602001828054612536906157a9565b80156125835780601f1061255857610100808354040283529160200191612583565b820191906000526020600020905b81548152906001019060200180831161256657829003601f168201915b505050505081526020016003820160009054906101000a900473ffffffffffffffffffffffffffffffffffffffff1673ffffffffffffffffffffffffffffffffffffffff1673ffffffffffffffffffffffffffffffffffffffff1681526020016004820180546125f2906157a9565b80601f016020809104026020016040519081016040528092919081815260200182805461261e906157a9565b801561266b5780601f106126405761010080835404028352916020019161266b565b820191906000526020600020905b81548152906001019060200180831161264e57829003601f168201915b505050505081526020016005820160009054906101000a900460ff161515151581526020016005820160019054906101000a900460ff161515151581526020016005820160029054906101000a900460ff161515151581526020016006820180548060200260200160405190810160405280929190818152602001828054801561274a57602002820191906000526020600020905b8160009054906101000a900473ffffffffffffffffffffffffffffffffffffffff1673ffffffffffffffffffffffffffffffffffffffff1681526020019060010190808311612700575b5050505050815260200160078201548152602001600882015481526020016009820154815250509050919050565b6007818154811061278857600080fd5b9060005260206000200160009150905080546127a3906157a9565b80601f01602080910402602001604051908101604052809291908181526020018280546127cf906157a9565b801561281c5780601f106127f15761010080835404028352916020019161281c565b820191906000526020600020905b8154815290600101906020018083116127ff57829003601f168201915b505050505081565b6006818154811061283457600080fd5b906000526020600020016000915054906101000a900473ffffffffffffffffffffffffffffffffffffffff1681565b6005818154811061287357600080fd5b906000526020600020016000915054906101000a900473ffffffffffffffffffffffffffffffffffffffff1681565b600d818051602081018201805184825260208301602085012081835280955050505050506000915090508060000160009054906101000a900473ffffffffffffffffffffffffffffffffffffffff1690806001018054612901906157a9565b80601f016020809104026020016040519081016040528092919081815260200182805461292d906157a9565b801561297a5780601f1061294f5761010080835404028352916020019161297a565b820191906000526020600020905b81548152906001019060200180831161295d57829003601f168201915b50505050509080600201805461298f906157a9565b80601f01602080910402602001604051908101604052809291908181526020018280546129bb906157a9565b8015612a085780601f106129dd57610100808354040283529160200191612a08565b820191906000526020600020905b8154815290600101906020018083116129eb57829003601f168201915b5050505050908060030160009054906101000a900473ffffffffffffffffffffffffffffffffffffffff1690806004018054612a43906157a9565b80601f0160208091040260200160405190810160405280929190818152602001828054612a6f906157a9565b8015612abc5780601f10612a9157610100808354040283529160200191612abc565b820191906000526020600020905b815481529060010190602001808311612a9f57829003601f168201915b5050505050908060050160009054906101000a900460ff16908060050160019054906101000a900460ff16908060050160029054906101000a900460ff1690806007015490806008015490806009015490508b565b600960003373ffffffffffffffffffffffffffffffffffffffff1673ffffffffffffffffffffffffffffffffffffffff16815260200190815260200160002060009054906101000a900460ff16612b9d576040517f08c379a0000000000000000000000000000000000000000000000000000000008152600401612b9490615c61565b60405180910390fd5b6000600c83604051612baf9190615816565b908152602001604051809103902090503373ffffffffffffffffffffffffffffffffffffffff16600c84604051612be69190615816565b908152602001604051809103902060030160009054906101000a900473ffffffffffffffffffffffffffffffffffffffff1673ffffffffffffffffffffffffffffffffffffffff1603612c6e576040517f08c379a0000000000000000000000000000000000000000000000000000000008152600401612c6590615ccd565b60405180910390fd5b3373ffffffffffffffffffffffffffffffffffffffff16600c84604051612c959190615816565b908152602001604051809103902060000160009054906101000a900473ffffffffffffffffffffffffffffffffffffffff1673ffffffffffffffffffffffffffffffffffffffff1603612d1d576040517f08c379a0000000000000000000000000000000000000000000000000000000008152600401612d1490615d5f565b60405180910390fd5b6000805b8260060180549050811015612dbb573373ffffffffffffffffffffffffffffffffffffffff16836006018281548110612d5d57612d5c615d7f565b5b9060005260206000200160009054906101000a900473ffffffffffffffffffffffffffffffffffffffff1673ffffffffffffffffffffffffffffffffffffffff1603612da857600191505b8080612db390615ddd565b915050612d21565b506000151581151514612e03576040517f08c379a0000000000000000000000000000000000000000000000000000000008152600401612dfa90615e97565b60405180910390fd5b81600601339080600181540180825580915050600190039060005260206000200160009091909190916101000a81548173ffffffffffffffffffffffffffffffffffffffff021916908373ffffffffffffffffffffffffffffffffffffffff16021790555060018260050160026101000a81548160ff02191690831515021790555060018260070154612e969190615eb7565b82600701819055506001151583151503612ec85760018260080154612ebb9190615eb7565b8260080181905550612ee2565b60018260090154612ed99190615eb7565b82600901819055505b600060116000600c87604051612ef89190615816565b908152602001604051809103902060000160009054906101000a900473ffffffffffffffffffffffffffffffffffffffff1673ffffffffffffffffffffffffffffffffffffffff1673ffffffffffffffffffffffffffffffffffffffff168152602001908152602001600020805480602002602001604051908101604052809291908181526020016000905b82821015613030578382906000526020600020018054612fa3906157a9565b80601f0160208091040260200160405190810160405280929190818152602001828054612fcf906157a9565b801561301c5780601f10612ff15761010080835404028352916020019161301c565b820191906000526020600020905b815481529060010190602001808311612fff57829003601f168201915b505050505081526020019060010190612f84565b5050505090506000805b82518110156130c857866040516020016130549190615816565b6040516020818303038152906040528051906020012083828151811061307d5761307c615d7f565b5b60200260200101516040516020016130959190615816565b60405160208183030381529060405280519060200120036130b557600191505b80806130c090615ddd565b91505061303a565b50600584600701541061340e5783600901548460080154111561327b57600115158515151480156131425750600360003373ffffffffffffffffffffffffffffffffffffffff1673ffffffffffffffffffffffffffffffffffffffff16815260200190815260200160002060009054906101000a900460ff165b156131e05760018060003373ffffffffffffffffffffffffffffffffffffffff1673ffffffffffffffffffffffffffffffffffffffff168152602001908152602001600020600201546131959190615eb7565b600160003373ffffffffffffffffffffffffffffffffffffffff1673ffffffffffffffffffffffffffffffffffffffff16815260200190815260200160002060020181905550613276565b6001600260003373ffffffffffffffffffffffffffffffffffffffff1673ffffffffffffffffffffffffffffffffffffffff1681526020019081526020016000206002015461322f9190615eb7565b600260003373ffffffffffffffffffffffffffffffffffffffff1673ffffffffffffffffffffffffffffffffffffffff168152602001908152602001600020600201819055505b61340d565b600115158515151480156132d85750600360003373ffffffffffffffffffffffffffffffffffffffff1673ffffffffffffffffffffffffffffffffffffffff16815260200190815260200160002060009054906101000a900460ff165b156133765760018060003373ffffffffffffffffffffffffffffffffffffffff1673ffffffffffffffffffffffffffffffffffffffff1681526020019081526020016000206002015461332b9190615eeb565b600160003373ffffffffffffffffffffffffffffffffffffffff1673ffffffffffffffffffffffffffffffffffffffff1681526020019081526020016000206002018190555061340c565b6001600260003373ffffffffffffffffffffffffffffffffffffffff1673ffffffffffffffffffffffffffffffffffffffff168152602001908152602001600020600201546133c59190615eeb565b600260003373ffffffffffffffffffffffffffffffffffffffff1673ffffffffffffffffffffffffffffffffffffffff168152602001908152602001600020600201819055505b5b5b60001515811515036134ce5760116000600c8860405161342e9190615816565b908152602001604051809103902060000160009054906101000a900473ffffffffffffffffffffffffffffffffffffffff1673ffffffffffffffffffffffffffffffffffffffff1673ffffffffffffffffffffffffffffffffffffffff168152602001908152602001600020869080600181540180825580915050600190039060005260206000200160009091909190915090816134cc91906159d9565b505b83600d876040516134df9190615816565b90815260200160405180910390206000820160009054906101000a900473ffffffffffffffffffffffffffffffffffffffff168160000160006101000a81548173ffffffffffffffffffffffffffffffffffffffff021916908373ffffffffffffffffffffffffffffffffffffffff160217905550600182018160010190816135689190615ac1565b506002820181600201908161357d9190615ac1565b506003820160009054906101000a900473ffffffffffffffffffffffffffffffffffffffff168160030160006101000a81548173ffffffffffffffffffffffffffffffffffffffff021916908373ffffffffffffffffffffffffffffffffffffffff160217905550600482018160040190816135f99190615ac1565b506005820160009054906101000a900460ff168160050160006101000a81548160ff0219169083151502179055506005820160019054906101000a900460ff168160050160016101000a81548160ff0219169083151502179055506005820160029054906101000a900460ff168160050160026101000a81548160ff0219169083151502179055506006820181600601908054613697929190614942565b5060078201548160070155600882015481600801556009820154816009015590505083600c876040516136ca9190615816565b90815260200160405180910390206000820160009054906101000a900473ffffffffffffffffffffffffffffffffffffffff168160000160006101000a81548173ffffffffffffffffffffffffffffffffffffffff021916908373ffffffffffffffffffffffffffffffffffffffff160217905550600182018160010190816137539190615ac1565b50600282018160020190816137689190615ac1565b506003820160009054906101000a900473ffffffffffffffffffffffffffffffffffffffff168160030160006101000a81548173ffffffffffffffffffffffffffffffffffffffff021916908373ffffffffffffffffffffffffffffffffffffffff160217905550600482018160040190816137e49190615ac1565b506005820160009054906101000a900460ff168160050160006101000a81548160ff0219169083151502179055506005820160019054906101000a900460ff168160050160016101000a81548160ff0219169083151502179055506005820160029054906101000a900460ff168160050160026101000a81548160ff0219169083151502179055506006820181600601908054613882929190614942565b50600782015481600701556008820154816008015560098201548160090155905050505050505050565b6000600a826040516138be9190615816565b90815260200160405180910390209050600e60008473ffffffffffffffffffffffffffffffffffffffff1673ffffffffffffffffffffffffffffffffffffffff1681526020019081526020016000208290806001815401808255809150506001900390600052602060002001600090919091909150908161393f91906159d9565b508181600101908161395191906159d9565b50338160000160006101000a81548173ffffffffffffffffffffffffffffffffffffffff021916908373ffffffffffffffffffffffffffffffffffffffff160217905550600260008473ffffffffffffffffffffffffffffffffffffffff1673ffffffffffffffffffffffffffffffffffffffff16815260200190815260200160002060030182908060018154018082558091505060019003906000526020600020016000909190919091509081613a0991906159d9565b50505050565b613a17614adb565b600160008373ffffffffffffffffffffffffffffffffffffffff1673ffffffffffffffffffffffffffffffffffffffff1681526020019081526020016000206040518060e00160405290816000820154815260200160018201548152602001600282015481526020016003820154815260200160048201805480602002602001604051908101604052809291908181526020016000905b82821015613b5a578382906000526020600020018054613acd906157a9565b80601f0160208091040260200160405190810160405280929190818152602001828054613af9906157a9565b8015613b465780601f10613b1b57610100808354040283529160200191613b46565b820191906000526020600020905b815481529060010190602001808311613b2957829003601f168201915b505050505081526020019060010190613aae565b5050505081526020016005820160009054906101000a900473ffffffffffffffffffffffffffffffffffffffff1673ffffffffffffffffffffffffffffffffffffffff1673ffffffffffffffffffffffffffffffffffffffff1681526020016006820154815250509050919050565b81600260008473ffffffffffffffffffffffffffffffffffffffff1673ffffffffffffffffffffffffffffffffffffffff16815260200190815260200160002060050160006101000a81548173ffffffffffffffffffffffffffffffffffffffff021916908373ffffffffffffffffffffffffffffffffffffffff1602179055506000600260008473ffffffffffffffffffffffffffffffffffffffff1673ffffffffffffffffffffffffffffffffffffffff168152602001908152602001600020600001819055506000600260008473ffffffffffffffffffffffffffffffffffffffff1673ffffffffffffffffffffffffffffffffffffffff1681526020019081526020016000206002018190555080600260008473ffffffffffffffffffffffffffffffffffffffff1673ffffffffffffffffffffffffffffffffffffffff168152602001908152602001600020600101819055506001600960008473ffffffffffffffffffffffffffffffffffffffff1673ffffffffffffffffffffffffffffffffffffffff16815260200190815260200160002060006101000a81548160ff0219169083151502179055506001600460008473ffffffffffffffffffffffffffffffffffffffff1673ffffffffffffffffffffffffffffffffffffffff16815260200190815260200160002060006101000a81548160ff0219169083151502179055506005829080600181540180825580915050600190039060005260206000200160009091909190916101000a81548173ffffffffffffffffffffffffffffffffffffffff021916908373ffffffffffffffffffffffffffffffffffffffff1602179055505050565b60088181548110613e4857600080fd5b906000526020600020016000915090508054613e63906157a9565b80601f0160208091040260200160405190810160405280929190818152602001828054613e8f906157a9565b8015613edc5780601f10613eb157610100808354040283529160200191613edc565b820191906000526020600020905b815481529060010190602001808311613ebf57829003601f168201915b505050505081565b613eec6149f5565b600d82604051613efc9190615816565b9081526020016040518091039020604051806101800160405290816000820160009054906101000a900473ffffffffffffffffffffffffffffffffffffffff1673ffffffffffffffffffffffffffffffffffffffff1673ffffffffffffffffffffffffffffffffffffffff168152602001600182018054613f7c906157a9565b80601f0160208091040260200160405190810160405280929190818152602001828054613fa8906157a9565b8015613ff55780601f10613fca57610100808354040283529160200191613ff5565b820191906000526020600020905b815481529060010190602001808311613fd857829003601f168201915b5050505050815260200160028201805461400e906157a9565b80601f016020809104026020016040519081016040528092919081815260200182805461403a906157a9565b80156140875780601f1061405c57610100808354040283529160200191614087565b820191906000526020600020905b81548152906001019060200180831161406a57829003601f168201915b505050505081526020016003820160009054906101000a900473ffffffffffffffffffffffffffffffffffffffff1673ffffffffffffffffffffffffffffffffffffffff1673ffffffffffffffffffffffffffffffffffffffff1681526020016004820180546140f6906157a9565b80601f0160208091040260200160405190810160405280929190818152602001828054614122906157a9565b801561416f5780601f106141445761010080835404028352916020019161416f565b820191906000526020600020905b81548152906001019060200180831161415257829003601f168201915b505050505081526020016005820160009054906101000a900460ff161515151581526020016005820160019054906101000a900460ff161515151581526020016005820160029054906101000a900460ff161515151581526020016006820180548060200260200160405190810160405280929190818152602001828054801561424e57602002820191906000526020600020905b8160009054906101000a900473ffffffffffffffffffffffffffffffffffffffff1673ffffffffffffffffffffffffffffffffffffffff1681526020019060010190808311614204575b5050505050815260200160078201548152602001600882015481526020016009820154815250509050919050565b6060600f60008373ffffffffffffffffffffffffffffffffffffffff1673ffffffffffffffffffffffffffffffffffffffff168152602001908152602001600020805480602002602001604051908101604052809291908181526020016000905b828210156143895783829060005260206000200180546142fc906157a9565b80601f0160208091040260200160405190810160405280929190818152602001828054614328906157a9565b80156143755780601f1061434a57610100808354040283529160200191614375565b820191906000526020600020905b81548152906001019060200180831161435857829003601f168201915b5050505050815260200190600101906142dd565b505050509050919050565b600360003373ffffffffffffffffffffffffffffffffffffffff1673ffffffffffffffffffffffffffffffffffffffff16815260200190815260200160002060009054906101000a900460ff16614420576040517f08c379a000000000000000000000000000000000000000000000000000000000815260040161441790615f6b565b60405180910390fd5b6000600b836040516144329190615816565b90815260200160405180910390209050600015158160050160019054906101000a900460ff161515036146bd578181600401908161447091906159d9565b50338160030160006101000a81548173ffffffffffffffffffffffffffffffffffffffff021916908373ffffffffffffffffffffffffffffffffffffffff16021790555060018160050160016101000a81548160ff02191690831515021790555080600c846040516144e29190615816565b90815260200160405180910390206000820160009054906101000a900473ffffffffffffffffffffffffffffffffffffffff168160000160006101000a81548173ffffffffffffffffffffffffffffffffffffffff021916908373ffffffffffffffffffffffffffffffffffffffff1602179055506001820181600101908161456b9190615ac1565b50600282018160020190816145809190615ac1565b506003820160009054906101000a900473ffffffffffffffffffffffffffffffffffffffff168160030160006101000a81548173ffffffffffffffffffffffffffffffffffffffff021916908373ffffffffffffffffffffffffffffffffffffffff160217905550600482018160040190816145fc9190615ac1565b506005820160009054906101000a900460ff168160050160006101000a81548160ff0219169083151502179055506005820160019054906101000a900460ff168160050160016101000a81548160ff0219169083151502179055506005820160029054906101000a900460ff168160050160026101000a81548160ff021916908315150217905550600682018160060190805461469a929190614942565b506007820154816007015560088201548160080155600982015481600901559050505b6002600160003373ffffffffffffffffffffffffffffffffffffffff1673ffffffffffffffffffffffffffffffffffffffff1681526020019081526020016000206002015461470c9190615eb7565b600160003373ffffffffffffffffffffffffffffffffffffffff1673ffffffffffffffffffffffffffffffffffffffff16815260200190815260200160002060020181905550600b836040516147629190615816565b9081526020016040518091039020600080820160006101000a81549073ffffffffffffffffffffffffffffffffffffffff02191690556001820160006147a89190614994565b6002820160006147b89190614994565b6003820160006101000a81549073ffffffffffffffffffffffffffffffffffffffff02191690556004820160006147ef9190614994565b6005820160006101000a81549060ff02191690556005820160016101000a81549060ff02191690556005820160026101000a81549060ff021916905560068201600061483b91906149d4565b600782016000905560088201600090556009820160009055505060106000600b856040516148699190615816565b908152602001604051809103902060000160009054906101000a900473ffffffffffffffffffffffffffffffffffffffff1673ffffffffffffffffffffffffffffffffffffffff1673ffffffffffffffffffffffffffffffffffffffff1681526020019081526020016000208390806001815401808255809150506001900390600052602060002001600090919091909150908161490791906159d9565b5060088390806001815401808255809150506001900390600052602060002001600090919091909150908161493c91906159d9565b50505050565b8280548282559060005260206000209081019282156149835760005260206000209182015b82811115614982578254825591600101919060010190614967565b5b5090506149909190614b2e565b5090565b5080546149a0906157a9565b6000825580601f106149b257506149d1565b601f0160209004906000526020600020908101906149d09190614b2e565b5b50565b50805460008255906000526020600020908101906149f29190614b2e565b50565b604051806101800160405280600073ffffffffffffffffffffffffffffffffffffffff1681526020016060815260200160608152602001600073ffffffffffffffffffffffffffffffffffffffff16815260200160608152602001600015158152602001600015158152602001600015158152602001606081526020016000815260200160008152602001600081525090565b6040518060e001604052806000815260200160008152602001600081526020016060815260200160608152602001600073ffffffffffffffffffffffffffffffffffffffff168152602001600081525090565b6040518060e001604052806000815260200160008152602001600081526020016000815260200160608152602001600073ffffffffffffffffffffffffffffffffffffffff168152602001600081525090565b5b80821115614b47576000816000905550600101614b2f565b5090565b6000604051905090565b600080fd5b600080fd5b600073ffffffffffffffffffffffffffffffffffffffff82169050919050565b6000614b8a82614b5f565b9050919050565b614b9a81614b7f565b8114614ba557600080fd5b50565b600081359050614bb781614b91565b92915050565b6000819050919050565b614bd081614bbd565b8114614bdb57600080fd5b50565b600081359050614bed81614bc7565b92915050565b60008060408385031215614c0a57614c09614b55565b5b6000614c1885828601614ba8565b9250506020614c2985828601614bde565b9150509250929050565b600081519050919050565b600082825260208201905092915050565b60005b83811015614c6d578082015181840152602081019050614c52565b60008484015250505050565b6000601f19601f8301169050919050565b6000614c9582614c33565b614c9f8185614c3e565b9350614caf818560208601614c4f565b614cb881614c79565b840191505092915050565b60006020820190508181036000830152614cdd8184614c8a565b905092915050565b600080fd5b600080fd5b7f4e487b7100000000000000000000000000000000000000000000000000000000600052604160045260246000fd5b614d2782614c79565b810181811067ffffffffffffffff82111715614d4657614d45614cef565b5b80604052505050565b6000614d59614b4b565b9050614d658282614d1e565b919050565b600067ffffffffffffffff821115614d8557614d84614cef565b5b614d8e82614c79565b9050602081019050919050565b82818337600083830152505050565b6000614dbd614db884614d6a565b614d4f565b905082815260208101848484011115614dd957614dd8614cea565b5b614de4848285614d9b565b509392505050565b600082601f830112614e0157614e00614ce5565b5b8135614e11848260208601614daa565b91505092915050565b600060208284031215614e3057614e2f614b55565b5b600082013567ffffffffffffffff811115614e4e57614e4d614b5a565b5b614e5a84828501614dec565b91505092915050565b614e6c81614b7f565b82525050565b60008115159050919050565b614e8781614e72565b82525050565b614e9681614bbd565b82525050565b600061016082019050614eb2600083018e614e63565b8181036020830152614ec4818d614c8a565b90508181036040830152614ed8818c614c8a565b9050614ee7606083018b614e63565b8181036080830152614ef9818a614c8a565b9050614f0860a0830189614e7e565b614f1560c0830188614e7e565b614f2260e0830187614e7e565b614f30610100830186614e8d565b614f3e610120830185614e8d565b614f4c610140830184614e8d565b9c9b505050505050505050505050565b600081519050919050565b600082825260208201905092915050565b6000819050602082019050919050565b614f9181614b7f565b82525050565b6000614fa38383614f88565b60208301905092915050565b6000602082019050919050565b6000614fc782614f5c565b614fd18185614f67565b9350614fdc83614f78565b8060005b8381101561500d578151614ff48882614f97565b9750614fff83614faf565b925050600181019050614fe0565b5085935050505092915050565b600060208201905081810360008301526150348184614fbc565b905092915050565b600081519050919050565b600082825260208201905092915050565b6000819050602082019050919050565b600082825260208201905092915050565b600061508482614c33565b61508e8185615068565b935061509e818560208601614c4f565b6150a781614c79565b840191505092915050565b60006150be8383615079565b905092915050565b6000602082019050919050565b60006150de8261503c565b6150e88185615047565b9350836020820285016150fa85615058565b8060005b85811015615136578484038952815161511785826150b2565b9450615122836150c6565b925060208a019950506001810190506150fe565b50829750879550505050505092915050565b6000602082019050818103600083015261516281846150d3565b905092915050565b6000806040838503121561518157615180614b55565b5b600083013567ffffffffffffffff81111561519f5761519e614b5a565b5b6151ab85828601614dec565b925050602083013567ffffffffffffffff8111156151cc576151cb614b5a565b5b6151d885828601614dec565b9150509250929050565b6151eb81614e72565b82525050565b600082825260208201905092915050565b600061520d82614f5c565b61521781856151f1565b935061522283614f78565b8060005b8381101561525357815161523a8882614f97565b975061524583614faf565b925050600181019050615226565b5085935050505092915050565b61526981614bbd565b82525050565b6000610180830160008301516152886000860182614f88565b50602083015184820360208601526152a08282615079565b915050604083015184820360408601526152ba8282615079565b91505060608301516152cf6060860182614f88565b50608083015184820360808601526152e78282615079565b91505060a08301516152fc60a08601826151e2565b5060c083015161530f60c08601826151e2565b5060e083015161532260e08601826151e2565b5061010083015184820361010086015261533c8282615202565b915050610120830151615353610120860182615260565b50610140830151615368610140860182615260565b5061016083015161537d610160860182615260565b508091505092915050565b600060208201905081810360008301526153a2818461526f565b905092915050565b6000602082840312156153c0576153bf614b55565b5b60006153ce84828501614ba8565b91505092915050565b600082825260208201905092915050565b60006153f38261503c565b6153fd81856153d7565b93508360208202850161540f85615058565b8060005b8581101561544b578484038952815161542c85826150b2565b9450615437836150c6565b925060208a01995050600181019050615413565b50829750879550505050505092915050565b600060e0830160008301516154756000860182615260565b5060208301516154886020860182615260565b50604083015161549b6040860182615260565b50606083015184820360608601526154b382826153e8565b915050608083015184820360808601526154cd82826153e8565b91505060a08301516154e260a0860182614f88565b5060c08301516154f560c0860182615260565b508091505092915050565b6000602082019050818103600083015261551a818461545d565b905092915050565b60006020820190506155376000830184614e7e565b92915050565b60008060006060848603121561555657615555614b55565b5b600061556486828701614ba8565b935050602061557586828701614bde565b925050604061558686828701614bde565b9150509250925092565b6000602082840312156155a6576155a5614b55565b5b60006155b484828501614bde565b91505092915050565b60006020820190506155d26000830184614e63565b92915050565b6155e181614e72565b81146155ec57600080fd5b50565b6000813590506155fe816155d8565b92915050565b6000806040838503121561561b5761561a614b55565b5b600083013567ffffffffffffffff81111561563957615638614b5a565b5b61564585828601614dec565b9250506020615656858286016155ef565b9150509250929050565b6000806040838503121561567757615676614b55565b5b600061568585828601614ba8565b925050602083013567ffffffffffffffff8111156156a6576156a5614b5a565b5b6156b285828601614dec565b9150509250929050565b600060e0830160008301516156d46000860182615260565b5060208301516156e76020860182615260565b5060408301516156fa6040860182615260565b50606083015161570d6060860182615260565b506080830151848203608086015261572582826153e8565b91505060a083015161573a60a0860182614f88565b5060c083015161574d60c0860182615260565b508091505092915050565b6000602082019050818103600083015261577281846156bc565b905092915050565b7f4e487b7100000000000000000000000000000000000000000000000000000000600052602260045260246000fd5b600060028204905060018216806157c157607f821691505b6020821081036157d4576157d361577a565b5b50919050565b600081905092915050565b60006157f082614c33565b6157fa81856157da565b935061580a818560208601614c4f565b80840191505092915050565b600061582282846157e5565b915081905092915050565b60008190508160005260206000209050919050565b60006020601f8301049050919050565b600082821b905092915050565b60006008830261588f7fffffffffffffffffffffffffffffffffffffffffffffffffffffffffffffffff82615852565b6158998683615852565b95508019841693508086168417925050509392505050565b6000819050919050565b60006158d66158d16158cc84614bbd565b6158b1565b614bbd565b9050919050565b6000819050919050565b6158f0836158bb565b6159046158fc826158dd565b84845461585f565b825550505050565b600090565b61591961590c565b6159248184846158e7565b505050565b5b818110156159485761593d600082615911565b60018101905061592a565b5050565b601f82111561598d5761595e8161582d565b61596784615842565b81016020851015615976578190505b61598a61598285615842565b830182615929565b50505b505050565b600082821c905092915050565b60006159b060001984600802615992565b1980831691505092915050565b60006159c9838361599f565b9150826002028217905092915050565b6159e282614c33565b67ffffffffffffffff8111156159fb576159fa614cef565b5b615a0582546157a9565b615a1082828561594c565b600060209050601f831160018114615a435760008415615a31578287015190505b615a3b85826159bd565b865550615aa3565b601f198416615a518661582d565b60005b82811015615a7957848901518255600182019150602085019450602081019050615a54565b86831015615a965784890151615a92601f89168261599f565b8355505b6001600288020188555050505b505050505050565b600081549050615aba816157a9565b9050919050565b818103615acf575050615ba7565b615ad882615aab565b67ffffffffffffffff811115615af157615af0614cef565b5b615afb82546157a9565b615b0682828561594c565b6000601f831160018114615b355760008415615b23578287015490505b615b2d85826159bd565b865550615ba0565b601f198416615b438761582d565b9650615b4e8661582d565b60005b82811015615b7657848901548255600182019150600185019450602081019050615b51565b86831015615b935784890154615b8f601f89168261599f565b8355505b6001600288020188555050505b5050505050505b565b7f796f7520617265206e6f7420746865206b766b206d656d626572000000000000600082015250565b6000615bdf601a83614c3e565b9150615bea82615ba9565b602082019050919050565b60006020820190508181036000830152615c0e81615bd2565b9050919050565b7f796f7520617265206e6f74207665726966696572730000000000000000000000600082015250565b6000615c4b601583614c3e565b9150615c5682615c15565b602082019050919050565b60006020820190508181036000830152615c7a81615c3e565b9050919050565b7f796f752063616e742076657269667920796f7572206f776e20636f6d6d656e74600082015250565b6000615cb7602083614c3e565b9150615cc282615c81565b602082019050919050565b60006020820190508181036000830152615ce681615caa565b9050919050565b7f796f7520617265206e6f7420616c6c6f77656420746f2076657269667920796f60008201527f7572206f776e20696d6167650000000000000000000000000000000000000000602082015250565b6000615d49602c83614c3e565b9150615d5482615ced565b604082019050919050565b60006020820190508181036000830152615d7881615d3c565b9050919050565b7f4e487b7100000000000000000000000000000000000000000000000000000000600052603260045260246000fd5b7f4e487b7100000000000000000000000000000000000000000000000000000000600052601160045260246000fd5b6000615de882614bbd565b91507fffffffffffffffffffffffffffffffffffffffffffffffffffffffffffffffff8203615e1a57615e19615dae565b5b600182019050919050565b7f796f75206861766520616c72656164792076657269666965642074686973206960008201527f6d61676500000000000000000000000000000000000000000000000000000000602082015250565b6000615e81602483614c3e565b9150615e8c82615e25565b604082019050919050565b60006020820190508181036000830152615eb081615e74565b9050919050565b6000615ec282614bbd565b9150615ecd83614bbd565b9250828201905080821115615ee557615ee4615dae565b5b92915050565b6000615ef682614bbd565b9150615f0183614bbd565b9250828203905081811115615f1957615f18615dae565b5b92915050565b7f796f7520617265206e6f7420736369656e7469737420746f2072657669657700600082015250565b6000615f55601f83614c3e565b9150615f6082615f1f565b602082019050919050565b60006020820190508181036000830152615f8481615f48565b905091905056fea264697066735822122023f781f73bf90b6f1ce6163107f83c1756382471ab9453fa4f6e85cf37ed5fc364736f6c63430008130033",
  "linkReferences": {},
  "deployedLinkReferences": {}
}