{"contracts/Upload.sol":{"Upload":{"abi":[{"inputs":[],"stateMutability":"nonpayable","type":"constructor"},{"inputs":[{"internalType":"string","name":"_url","type":"string"},{"internalType":"string","name":"_solution","type":"string"}],"name":"AI_solution","outputs":[],"stateMutability":"nonpayable","type":"function"},{"inputs":[{"internalType":"address","name":"","type":"address"},{"internalType":"uint256","name":"","type":"uint256"}],"name":"PendingImg","outputs":[{"internalType":"string","name":"","type":"string"}],"stateMutability":"view","type":"function"},{"inputs":[{"internalType":"string","name":"","type":"string"}],"name":"PendingList","outputs":[{"internalType":"address","name":"owner","type":"address"},{"internalType":"string","name":"imageUrl","type":"string"},{"internalType":"string","name":"AI_sol","type":"string"},{"internalType":"address","name":"reviewer","type":"address"},{"internalType":"string","name":"reviewer_sol","type":"string"},{"internalType":"bool","name":"got_AI","type":"bool"},{"internalType":"bool","name":"reviewed","type":"bool"},{"internalType":"bool","name":"verified","type":"bool"},{"internalType":"uint256","name":"verificationCount","type":"uint256"},{"internalType":"uint256","name":"true_count","type":"uint256"},{"internalType":"uint256","name":"false_count","type":"uint256"}],"stateMutability":"view","type":"function"},{"inputs":[{"internalType":"address","name":"_farmer","type":"address"},{"internalType":"uint256","name":"_adhar_id","type":"uint256"}],"name":"add_farmer","outputs":[],"stateMutability":"nonpayable","type":"function"},{"inputs":[{"internalType":"address","name":"_scientist","type":"address"},{"internalType":"uint256","name":"_adhar_id","type":"uint256"},{"internalType":"uint256","name":"_scientist_id","type":"uint256"}],"name":"add_scientist","outputs":[],"stateMutability":"nonpayable","type":"function"},{"inputs":[{"internalType":"address","name":"","type":"address"},{"internalType":"uint256","name":"","type":"uint256"}],"name":"closeImg","outputs":[{"internalType":"string","name":"","type":"string"}],"stateMutability":"view","type":"function"},{"inputs":[{"internalType":"string","name":"","type":"string"}],"name":"closeList","outputs":[{"internalType":"address","name":"owner","type":"address"},{"internalType":"string","name":"imageUrl","type":"string"},{"internalType":"string","name":"AI_sol","type":"string"},{"internalType":"address","name":"reviewer","type":"address"},{"internalType":"string","name":"reviewer_sol","type":"string"},{"internalType":"bool","name":"got_AI","type":"bool"},{"internalType":"bool","name":"reviewed","type":"bool"},{"internalType":"bool","name":"verified","type":"bool"},{"internalType":"uint256","name":"verificationCount","type":"uint256"},{"internalType":"uint256","name":"true_count","type":"uint256"},{"internalType":"uint256","name":"false_count","type":"uint256"}],"stateMutability":"view","type":"function"},{"inputs":[{"internalType":"uint256","name":"","type":"uint256"}],"name":"close_images","outputs":[{"internalType":"string","name":"","type":"string"}],"stateMutability":"view","type":"function"},{"inputs":[{"internalType":"address","name":"_user","type":"address"}],"name":"display_close","outputs":[{"internalType":"string[]","name":"","type":"string[]"}],"stateMutability":"view","type":"function"},{"inputs":[{"internalType":"string","name":"_url","type":"string"}],"name":"display_close_output","outputs":[{"components":[{"internalType":"address","name":"owner","type":"address"},{"internalType":"string","name":"imageUrl","type":"string"},{"internalType":"string","name":"AI_sol","type":"string"},{"internalType":"address","name":"reviewer","type":"address"},{"internalType":"string","name":"reviewer_sol","type":"string"},{"internalType":"bool","name":"got_AI","type":"bool"},{"internalType":"bool","name":"reviewed","type":"bool"},{"internalType":"bool","name":"verified","type":"bool"},{"internalType":"address[]","name":"verifiers","type":"address[]"},{"internalType":"uint256","name":"verificationCount","type":"uint256"},{"internalType":"uint256","name":"true_count","type":"uint256"},{"internalType":"uint256","name":"false_count","type":"uint256"}],"internalType":"struct Upload.Plant_Image","name":"","type":"tuple"}],"stateMutability":"view","type":"function"},{"inputs":[{"internalType":"address","name":"_user","type":"address"}],"name":"display_farmer","outputs":[{"components":[{"internalType":"uint256","name":"level","type":"uint256"},{"internalType":"uint256","name":"adhar_id","type":"uint256"},{"internalType":"uint256","name":"auth_points","type":"uint256"},{"internalType":"string[]","name":"images_upload","type":"string[]"},{"internalType":"string[]","name":"image_VR","type":"string[]"},{"internalType":"address","name":"farmer_add","type":"address"},{"internalType":"uint256","name":"correctReportCount","type":"uint256"}],"internalType":"struct Upload.farmer","name":"","type":"tuple"}],"stateMutability":"view","type":"function"},{"inputs":[{"internalType":"address","name":"_user","type":"address"}],"name":"display_final","outputs":[{"internalType":"string[]","name":"","type":"string[]"}],"stateMutability":"view","type":"function"},{"inputs":[{"internalType":"string","name":"_url","type":"string"}],"name":"display_final_output","outputs":[{"components":[{"internalType":"address","name":"owner","type":"address"},{"internalType":"string","name":"imageUrl","type":"string"},{"internalType":"string","name":"AI_sol","type":"string"},{"internalType":"address","name":"reviewer","type":"address"},{"internalType":"string","name":"reviewer_sol","type":"string"},{"internalType":"bool","name":"got_AI","type":"bool"},{"internalType":"bool","name":"reviewed","type":"bool"},{"internalType":"bool","name":"verified","type":"bool"},{"internalType":"address[]","name":"verifiers","type":"address[]"},{"internalType":"uint256","name":"verificationCount","type":"uint256"},{"internalType":"uint256","name":"true_count","type":"uint256"},{"internalType":"uint256","name":"false_count","type":"uint256"}],"internalType":"struct Upload.Plant_Image","name":"","type":"tuple"}],"stateMutability":"view","type":"function"},{"inputs":[{"internalType":"address","name":"_user","type":"address"}],"name":"display_open","outputs":[{"internalType":"string[]","name":"","type":"string[]"}],"stateMutability":"view","type":"function"},{"inputs":[{"internalType":"string","name":"_url","type":"string"}],"name":"display_open_output","outputs":[{"components":[{"internalType":"address","name":"owner","type":"address"},{"internalType":"string","name":"imageUrl","type":"string"},{"internalType":"string","name":"AI_sol","type":"string"},{"internalType":"address","name":"reviewer","type":"address"},{"internalType":"string","name":"reviewer_sol","type":"string"},{"internalType":"bool","name":"got_AI","type":"bool"},{"internalType":"bool","name":"reviewed","type":"bool"},{"internalType":"bool","name":"verified","type":"bool"},{"internalType":"address[]","name":"verifiers","type":"address[]"},{"internalType":"uint256","name":"verificationCount","type":"uint256"},{"internalType":"uint256","name":"true_count","type":"uint256"},{"internalType":"uint256","name":"false_count","type":"uint256"}],"internalType":"struct Upload.Plant_Image","name":"","type":"tuple"}],"stateMutability":"view","type":"function"},{"inputs":[{"internalType":"address","name":"_user","type":"address"}],"name":"display_scientist","outputs":[{"components":[{"internalType":"uint256","name":"level","type":"uint256"},{"internalType":"uint256","name":"adhar_id","type":"uint256"},{"internalType":"uint256","name":"auth_points","type":"uint256"},{"internalType":"uint256","name":"scientist_id","type":"uint256"},{"internalType":"string[]","name":"image_VR","type":"string[]"},{"internalType":"string[]","name":"image_rvd","type":"string[]"},{"internalType":"address","name":"scientist_add","type":"address"},{"internalType":"uint256","name":"correctReportCount","type":"uint256"}],"internalType":"struct Upload.scientist","name":"","type":"tuple"}],"stateMutability":"view","type":"function"},{"inputs":[{"internalType":"uint256","name":"","type":"uint256"}],"name":"farmers","outputs":[{"internalType":"address","name":"","type":"address"}],"stateMutability":"view","type":"function"},{"inputs":[{"internalType":"address","name":"","type":"address"},{"internalType":"uint256","name":"","type":"uint256"}],"name":"finalImg","outputs":[{"internalType":"string","name":"","type":"string"}],"stateMutability":"view","type":"function"},{"inputs":[{"internalType":"string","name":"","type":"string"}],"name":"finalList","outputs":[{"internalType":"address","name":"owner","type":"address"},{"internalType":"string","name":"imageUrl","type":"string"},{"internalType":"string","name":"AI_sol","type":"string"},{"internalType":"address","name":"reviewer","type":"address"},{"internalType":"string","name":"reviewer_sol","type":"string"},{"internalType":"bool","name":"got_AI","type":"bool"},{"internalType":"bool","name":"reviewed","type":"bool"},{"internalType":"bool","name":"verified","type":"bool"},{"internalType":"uint256","name":"verificationCount","type":"uint256"},{"internalType":"uint256","name":"true_count","type":"uint256"},{"internalType":"uint256","name":"false_count","type":"uint256"}],"stateMutability":"view","type":"function"},{"inputs":[{"internalType":"uint256","name":"","type":"uint256"}],"name":"final_images","outputs":[{"internalType":"string","name":"","type":"string"}],"stateMutability":"view","type":"function"},{"inputs":[],"name":"getKvkManager","outputs":[{"internalType":"address","name":"","type":"address"}],"stateMutability":"view","type":"function"},{"inputs":[],"name":"get_close_images","outputs":[{"internalType":"string[]","name":"","type":"string[]"}],"stateMutability":"view","type":"function"},{"inputs":[],"name":"get_farmers","outputs":[{"internalType":"address[]","name":"","type":"address[]"}],"stateMutability":"view","type":"function"},{"inputs":[],"name":"get_final_images","outputs":[{"internalType":"string[]","name":"","type":"string[]"}],"stateMutability":"view","type":"function"},{"inputs":[],"name":"get_images","outputs":[{"internalType":"string[]","name":"","type":"string[]"}],"stateMutability":"view","type":"function"},{"inputs":[],"name":"get_scientists","outputs":[{"internalType":"address[]","name":"","type":"address[]"}],"stateMutability":"view","type":"function"},{"inputs":[{"internalType":"uint256","name":"","type":"uint256"}],"name":"images","outputs":[{"internalType":"string","name":"","type":"string"}],"stateMutability":"view","type":"function"},{"inputs":[{"internalType":"address","name":"","type":"address"},{"internalType":"uint256","name":"","type":"uint256"}],"name":"openImg","outputs":[{"internalType":"string","name":"","type":"string"}],"stateMutability":"view","type":"function"},{"inputs":[{"internalType":"string","name":"","type":"string"}],"name":"openList","outputs":[{"internalType":"address","name":"owner","type":"address"},{"internalType":"string","name":"imageUrl","type":"string"},{"internalType":"string","name":"AI_sol","type":"string"},{"internalType":"address","name":"reviewer","type":"address"},{"internalType":"string","name":"reviewer_sol","type":"string"},{"internalType":"bool","name":"got_AI","type":"bool"},{"internalType":"bool","name":"reviewed","type":"bool"},{"internalType":"bool","name":"verified","type":"bool"},{"internalType":"uint256","name":"verificationCount","type":"uint256"},{"internalType":"uint256","name":"true_count","type":"uint256"},{"internalType":"uint256","name":"false_count","type":"uint256"}],"stateMutability":"view","type":"function"},{"inputs":[{"internalType":"string","name":"_url","type":"string"},{"internalType":"string","name":"_solution","type":"string"}],"name":"review_image","outputs":[],"stateMutability":"nonpayable","type":"function"},{"inputs":[{"internalType":"uint256","name":"","type":"uint256"}],"name":"scientists","outputs":[{"internalType":"address","name":"","type":"address"}],"stateMutability":"view","type":"function"},{"inputs":[{"internalType":"address","name":"_user","type":"address"},{"internalType":"string","name":"_url","type":"string"}],"name":"upload_image","outputs":[],"stateMutability":"nonpayable","type":"function"},{"inputs":[{"internalType":"address","name":"","type":"address"}],"name":"verifiers_map","outputs":[{"internalType":"bool","name":"","type":"bool"}],"stateMutability":"view","type":"function"},{"inputs":[{"internalType":"string","name":"_url","type":"string"},{"internalType":"bool","name":"_choice","type":"bool"}],"name":"verify_image","outputs":[],"stateMutability":"nonpayable","type":"function"}],"evm":{"bytecode":{"linkReferences":{},"object":"6080806040523461002857600080546001600160a01b03191633179055612b26908161002e8239f35b600080fdfe6080604052600436101561001257600080fd5b60e0600035811c9081631236dfeb14611d2e5781631a01535014611cd45781631b91831814611c535781631fa675f014611c06578163201e541414611b655781632aa5865614611950578163314247e7146118fe57816339203b0f1461185d5781633a1d999714611810578163421d73cc146117d65781634fd71526146117855781635912a4f7146116f05781635b46b289146115c95781635c3073151461158a57816361c4e7991461156157816367f74545146115075781636aa4b03c146114cd57816376477e2f1461147357816376f1d5f81461137b5781637aa4e76c14611328578163836b03cd146112d657816384856482146112855781638aa9e6311461122a5781638afdd669146111cf57816392ee83451461111e578163a063916014610a23578163a98307c614610932578163b567d6a3146107ef578163b8af0f79146106ee578163bd9fe5c51461064d578163d5b8c35c146105e8578163eeeece50146104c957508063f20a325a146104775763fafc5e051461019557600080fd5b34610472576101a336612132565b3360005260206003815260ff604060002054161561042e576040518351908281818701936101d2818387611f7c565b8101600c81520301902093600585019384549460ff600896871c16156101f457005b6102026004880192836122ee565b60038701906001600160601b0360a01b338184541617835561010061ff00198354161782556040518781875161023981838c611f7c565b8101600d8152030190209389850361034b575b5050505050604051938151610262818786611f7c565b8501600c8152858560018060a01b039788930301902054166000526011845261028f8260406000206123b5565b8054600160401b811015610335576102ac91600182019055611dc8565b94909461031f5761031d956102c48361030e976122ee565b33600052600185526102dd8360056040600020016123b5565b5416600052601083526102f48160406000206128ad565b6102fd81612782565b604051938492839251928391611f7c565b8101600c8152030190206125af565b005b634e487b7160e01b600052600060045260246000fd5b634e487b7160e01b600052604160045260246000fd5b8954855483166001600160a01b039182161786556103f9946103a093909161038960028e61037f6001808301908d016123e2565b0160028a016123e2565b6003880192541690825416179055600485016123e2565b60ff60058401916103c082825416849060ff801983541691151516179055565b8054835461ff001916908a1c8316151560081b61ff00161783555b5460101c1662ff0000825491151560101b169062ff00001916179055565b61040960068701600683016124be565b600786015460078201558486015485820155600980870154910155388080808061024c565b6064906040519062461bcd60e51b82526004820152601f60248201527f796f7520617265206e6f7420736369656e7469737420746f20726576696577006044820152fd5b600080fd5b34610472576020366003190112610472576001600160a01b03610498611d7b565b1660005260106020526104c56104b16040600020612a33565b6040519182916020835260208301906120d6565b0390f35b3461047257602036600319011261047257600435906001600160401b03821161047257600961052060206105046104c5953690600401611fc4565b61050c612a92565b508160405193828580945193849201611f7c565b8101600e8152030190206040519261053784611e51565b81546001600160a01b03908116855261055260018401611ec5565b602086015261056360028401611ec5565b6040860152600383015416606085015261057f60048301611ec5565b608085015260ff6005830154818116151560a0870152818160081c16151560c087015260101c161515908401526105b8600682016129db565b61010084015260078101546101208401526008810154610140840152015461016082015260405191829182612175565b3461047257602036600319011261047257600435600954811015610472576106396104c59160096000527f6e1540171b6c0c960b71a7020d9f60077f6af931a8bbf590da0223dacf75c7af01611ec5565b604051918291602083526020830190611f9f565b34610472576000366003190112610472576008546001600160401b0381116103355760405190602090610685828260051b0184611ea4565b80835281830160086000527ff3f7a9fe364faab93b216da50a3214154f22a0a2b415b23a84c8169e8b636ee3836000925b8484106106d057604051828152806104c58185018a6120d6565b60019182916106de85611ec5565b81520192019201919084906106b6565b3461047257604036600319011261047257610707611d7b565b6000546001600160a01b0391906107219083163314612246565b168060005260026020526005604060002001906001600160601b0360a01b9181838254161790556000604081205560006002604082200155602435600160406000200155600a602052604060002060ff199060018282541617905560046020526001604060002091825416179055600554600160401b8110156103355760018101806005558110156107d9577f036b6384b5eca791c62761152d0c79bb0604c104a5fb6f4eb0703f3154bb3db0018054909216179055005b634e487b7160e01b600052603260045260246000fd5b3461047257602090816003193601126104725761080a611d7b565b60008260405161081981611e88565b828152828682015282604082015282606082015260606080820152606060a08201528260c0820152015260018060a01b03809116600052600183526040600020906040519261086784611e88565b825484526001830154908585019182526002840154926040860193845261092260038601546060880190815261089f60048801612a33565b90608089019182526108b360058901612a33565b9660a08a0197885260078560068b0154169960c08c019a8b52015496868b019788526040519b8c9b818d5251908c01525160408b01525160608a0152516080890152519461090f610100968760a08b01526101208a01906120d6565b9051888203601f190160c08a01526120d6565b9451169085015251908301520390f35b346104725760403660031901126104725761094b611d7b565b6024356001600160401b0381116104725761096a903690600401611fc4565b33600052600460205260ff60406000205416156109de576109cc90604051602081835161099a8183858801611f7c565b8101600b8152030190209260018060a01b0316600052600f6020526109c38160406000206123b5565b600183016122ee565b80546001600160a01b03191633179055005b60405162461bcd60e51b815260206004820152601f60248201527f596f7520617265206e6f7420612072656769737465726564206661726d6572006044820152606490fd5b34610472576040366003190112610472576004356001600160401b03811161047257610a53903690600401611fc4565b6024351515602435036104725733600052600a60205260ff60406000205416156110e05733600052600360205260ff604060002054161561109b576040516020818351610aa38183858801611f7c565b600d9082019081520301902060038101546001600160a01b0316331461104c5780546001600160a01b0316331461100757600681015460005b818110610f835750600160401b81101561033557806001610b069201600684015560068301611dff565b81546001600160a01b0360039290921b91821b80199091163390921b1617905560058101805462ff00001916620100001790556007810154600181018111610cd757600101600782015560243515610f6b576008810180549060018201809211610cd757555b600560078201541015610b7b57005b60038101548154600883015460098401546001600160a01b0392831693909216911015610f1a5780600052600360205260ff60406000205416610ebc575b5080600052600460205260ff60406000205416610e87575b506040516020818451610be78183858901611f7c565b8101600e815203019020818103610d86575b50600954600160401b8110156103355760018101806009558110156107d95782610c499160096000527f6e1540171b6c0c960b71a7020d9f60077f6af931a8bbf590da0223dacf75c7af016122ee565b60018060a01b038154166000526012602052610c698260406000206123b5565b60005b6006820154811015610d2e57610c858160068401611dff565b60018060a01b0391549060031b1c16600883015460098401541080610d16575b15610ced576000526001602052600260406000200190815460018101809111610cd757610cd29255612622565b610c6c565b634e487b7160e01b600052601160045260246000fd5b600052600160205260026040600020019081546000198101908111610cd757610cd29255612622565b5080600052600360205260ff60406000205416610ca5565b50602061031d92610d7792610d4282612631565b546001600160a01b031660009081526011835260409020610d649082906128ad565b8160405193828580945193849201611f7c565b8101600d8152030190206125af565b60018060a01b038254166001600160601b0360a01b9081835416178255610db360018401600184016123e2565b610dc360028401600284016123e2565b600382019060018060a01b0360038501541690825416179055610dec60048301600483016123e2565b610e5460058201610e1060ff600586015416829060ff801983541691151516179055565b6005840154815461ff001916600891821c60ff16151590911b61ff001617815560ff600585015460101c1662ff0000825491151560101b169062ff00001916179055565b610e6460068301600683016124be565b600782015460078201556008820154600882015560098083015491015582610bf9565b6002602052610e9d8360046040600020016123b5565b6000526002602052610eb68260036040600020016128ad565b82610bd1565b6001602052610ed28460046040600020016123b5565b806000526001602052600260406000200154600281018111610cd757600291600052600160205201600260406000200155610f148360056040600020016128ad565b83610bb9565b809150600052600360205260ff60406000205416610f39575b50610c69565b6001602052604060002060020154600119810191908211610cd757600052600160205260026040600020015582610f33565b6009810180549060018201809211610cd75755610b6c565b610f908160068501611dff565b905460039190911b1c6001600160a01b03163314610fb657610fb190612622565b610adc565b60405162461bcd60e51b8152602060048201526024808201527f596f75206861766520616c7265616479207665726966696564207468697320696044820152636d61676560e01b6064820152608490fd5b60405162461bcd60e51b815260206004820152601f60248201527f596f752063616e27742076657269667920796f7572206f776e20696d616765006044820152606490fd5b60405162461bcd60e51b815260206004820152602160248201527f596f752063616e27742076657269667920796f7572206f776e20636f6d6d656e6044820152601d60fa1b6064820152608490fd5b60405162461bcd60e51b815260206004820152601a60248201527f4f6e6c7920736369656e74697374732063616e207665726966790000000000006044820152606490fd5b60405162461bcd60e51b81526020600482015260166024820152752cb7ba9030b932903737ba1030903b32b934b334b2b960511b6044820152606490fd5b34610472576020366003190112610472576004356001600160401b038111610472576020610d64611153923690600401611fc4565b8101600e81520301902060018060a01b036104c5818354169261117860018201611ec5565b9061118560028201611ec5565b936003820154169461119960048301611ec5565b9260058301546007840154926009600886015495015495604051998a9960ff8560101c169560ff808760081c169616948c61201a565b34610472576020366003190112610472576004356005548110156104725760056000527f036b6384b5eca791c62761152d0c79bb0604c104a5fb6f4eb0703f3154bb3db001546040516001600160a01b039091168152602090f35b34610472576020366003190112610472576004356006548110156104725760066000527ff652222313e28459528d920b65115c16c04f3efc82aaedc97be59f3f377c0d3f01546040516001600160a01b039091168152602090f35b3461047257602036600319011261047257600435600754811015610472576106396104c59160076000527fa66cc928b5edb82af9bd49922954155ab7b0942694bea4ce44661d9a8736c68801611ec5565b3461047257602036600319011261047257600435906001600160401b03821161047257600961131160206105046104c5953690600401611fc4565b8101600c8152030190206040519261053784611e51565b3461047257604036600319011261047257611341611d7b565b6001600160a01b0316600090815260116020526040902080546024359081101561047257611375610639916104c593611dff565b90611f6b565b3461047257606036600319011261047257611394611d7b565b6000546001600160a01b0391906113ae9083163314612246565b168060005260016020526006604060002001906001600160601b0360a01b918183825416179055600260406000205560006002604082200155602435600160406000200155604435600360406000200155600a602052604060002060ff199060018282541617905560036020526001604060002091825416179055600654600160401b8110156103355760018101806006558110156107d9577ff652222313e28459528d920b65115c16c04f3efc82aaedc97be59f3f377c0d3f018054909216179055005b34610472576020366003190112610472576004356001600160401b038111610472576020610d646114a8923690600401611fc4565b8101600b81520301902060018060a01b036104c5818354169261117860018201611ec5565b34610472576020366003190112610472576001600160a01b036114ee611d7b565b1660005260116020526104c56104b16040600020612a33565b34610472576020366003190112610472576004356001600160401b038111610472576020610d6461153c923690600401611fc4565b8101600c81520301902060018060a01b036104c5818354169261117860018201611ec5565b34610472576000366003190112610472576000546040516001600160a01b039091168152602090f35b34610472576020366003190112610472576001600160a01b036115ab611d7b565b16600052600a602052602060ff604060002054166040519015158152f35b346104725760209081600319360112610472576115e4611d7b565b90600060c06040516115f581611e6d565b8281528286820152826040820152606080820152606060808201528260a0820152015260018060a01b03809216600052600283526040600020906040519261163c84611e6d565b825484526001830154908585019182526116df6002850154604087019081526116cc61166a60038801612a33565b6060890190815261167d60048901612a33565b9260808a0193845260068660058b0154169960a08c019a8b5201549660c08b019788526040519b8c9b818d5251908c01525160408b01525160608a0152518660808a01526101008901906120d6565b9051878203601f190160a08901526120d6565b93511660c085015251908301520390f35b34610472576000366003190112610472576040518060065480825282602080930160066000527ff652222313e28459528d920b65115c16c04f3efc82aaedc97be59f3f377c0d3f9260005b858282106117665750505061175292500383611ea4565b6104c5604051928284938452830190612099565b85546001600160a01b031684526001958601958895509301920161173b565b3461047257602036600319011261047257600435600854811015610472576106396104c59160086000527ff3f7a9fe364faab93b216da50a3214154f22a0a2b415b23a84c8169e8b636ee301611ec5565b34610472576020366003190112610472576001600160a01b036117f7611d7b565b1660005260126020526104c56104b16040600020612a33565b3461047257604036600319011261047257611829611d7b565b6001600160a01b0316600090815260126020526040902080546024359081101561047257611375610639916104c593611dff565b34610472576000366003190112610472576009546001600160401b0381116103355760405190602090611895828260051b0184611ea4565b80835281830160096000527f6e1540171b6c0c960b71a7020d9f60077f6af931a8bbf590da0223dacf75c7af836000925b8484106118e057604051828152806104c58185018a6120d6565b60019182916118ee85611ec5565b81520192019201919084906118c6565b3461047257602036600319011261047257600435906001600160401b03821161047257600961193960206105046104c5953690600401611fc4565b8101600d8152030190206040519261053784611e51565b346104725761195e36612132565b60405190825190602092838181870194611979818388611f7c565b8101600b81520301902090600582019060ff825416156119cc575b61031d6119bd8686898760018060a01b03905416600052600f83526102fd8160406000206128ad565b8101600b8152030190206125af565b6119dd6002849695940191826122ee565b600160ff19835416178255604051848188516119fa818389611f7c565b8101600c81520301902091858303611a8e575b50505060018060a01b03938484541660005260108352611a318160406000206123b5565b600754600160401b81101561033557806001611a509201600755611d91565b94909461031f5761031d95611a68836119bd976122ee565b81541660005260028452611a838260036040600020016123b5565b919293819550611994565b855483546001600160a01b03199081166001600160a01b03928316178555611b3093611acd90611ac460018b81019089016123e2565b600287016123e2565b600385019160038901541690825416179055611aef60048701600485016123e2565b60ff6005840191611b0f82825416849060ff801983541691151516179055565b8054835461ff001916600891821c8416151590911b61ff00161783556103db565b611b4060068501600683016124be565b6007840154600782015560088401546008820155600980850154910155848080611a0d565b34610472576000366003190112610472576007546001600160401b0381116103355760405190602090611b9d828260051b0184611ea4565b80835281830160076000527fa66cc928b5edb82af9bd49922954155ab7b0942694bea4ce44661d9a8736c688836000925b848410611be857604051828152806104c58185018a6120d6565b6001918291611bf685611ec5565b8152019201920191908490611bce565b3461047257604036600319011261047257611c1f611d7b565b6001600160a01b03166000908152600f6020526040902080546024359081101561047257611375610639916104c593611dff565b34610472576000366003190112610472576040518060055480825282602080930160056000527f036b6384b5eca791c62761152d0c79bb0604c104a5fb6f4eb0703f3154bb3db09260005b85828210611cb55750505061175292500383611ea4565b85546001600160a01b0316845260019586019588955093019201611c9e565b34610472576020366003190112610472576004356001600160401b038111610472576020610d64611d09923690600401611fc4565b8101600d81520301902060018060a01b036104c5818354169261117860018201611ec5565b3461047257604036600319011261047257611d47611d7b565b6001600160a01b0316600090815260106020526040902080546024359081101561047257611375610639916104c593611dff565b600435906001600160a01b038216820361047257565b6007548110156107d95760076000527fa66cc928b5edb82af9bd49922954155ab7b0942694bea4ce44661d9a8736c6880190600090565b6008548110156107d95760086000527ff3f7a9fe364faab93b216da50a3214154f22a0a2b415b23a84c8169e8b636ee30190600090565b80548210156107d95760005260206000200190600090565b90600182811c92168015611e47575b6020831014611e3157565b634e487b7160e01b600052602260045260246000fd5b91607f1691611e26565b61018081019081106001600160401b0382111761033557604052565b60e081019081106001600160401b0382111761033557604052565b61010081019081106001600160401b0382111761033557604052565b90601f801991011681019081106001600160401b0382111761033557604052565b9060405191826000825492611ed984611e17565b908184526001948581169081600014611f485750600114611f05575b5050611f0392500383611ea4565b565b9093915060005260209081600020936000915b818310611f30575050611f0393508201013880611ef5565b85548884018501529485019487945091830191611f18565b915050611f0394506020925060ff191682840152151560051b8201013880611ef5565b9061031f57611f7990611ec5565b90565b60005b838110611f8f5750506000910152565b8181015183820152602001611f7f565b90602091611fb881518092818552858086019101611f7c565b601f01601f1916010190565b81601f82011215610472578035906001600160401b0382116103355760405192611ff8601f8401601f191660200185611ea4565b8284526020838301011161047257816000926020809301838601378301015290565b97949061205f612073946120516101409c999f9e9d9a979560018060a01b038095168d5260208d61016091829101528d0190611f9f565b908b820360408d0152611f9f565b921660608901528782036080890152611f9f565b98151560a0860152151560c0850152151560e08401526101008301526101208201520152565b90815180825260208080930193019160005b8281106120b9575050505090565b83516001600160a01b0316855293810193928101926001016120ab565b908082519081815260208091019281808460051b8301019501936000915b8483106121045750505050505090565b9091929394958480612122600193601f198682030187528a51611f9f565b98019301930191949392906120f4565b906040600319830112610472576001600160401b03600435818111610472578361215e91600401611fc4565b9260243591821161047257611f7991600401611fc4565b6020815260018060a01b03918281511660208301526020810151906122266121eb6121ae610180948560408801526101a0870190611f9f565b956121cb604085015197601f1998898983030160608a0152611f9f565b9060608501511660808701526080840151878783030160a0880152611f9f565b60a0830151151560c086015260c0830151151560e086015260e083015115156101009081870152830151610120968683030187870152612099565b938101516101409081850152810151906101609182850152015191015290565b1561224d57565b60405162461bcd60e51b815260206004820152601a60248201527f796f7520617265206e6f7420746865206b766b206d656d6265720000000000006044820152606490fd5b81811061229d575050565b60008155600101612292565b9190601f81116122b857505050565b611f03926000526020600020906020601f840160051c830193106122e4575b601f0160051c0190612292565b90915081906122d7565b91909182516001600160401b038111610335576123158161230f8454611e17565b846122a9565b602080601f8311600114612351575081929394600092612346575b50508160011b916000199060031b1c1916179055565b015190503880612330565b90601f198316958460005282600020926000905b88821061239d57505083600195969710612384575b505050811b019055565b015160001960f88460031b161c1916905538808061237a565b80600185968294968601518155019501930190612365565b8054600160401b811015610335576123d291600182018155611dff565b91909161031f57611f03916122ee565b908082146124ba576123f48154611e17565b906001600160401b038211610335578190612419826124138654611e17565b866122a9565b600090601f831160011461244f576000926124445750508160011b916000199060031b1c1916179055565b015490503880612330565b81526020808220858352818320935090601f1985169083905b8282106124a157505090846001959493921061248857505050811b019055565b015460001960f88460031b161c1916905538808061237a565b8495819295850154815560018091019601940190612468565b5050565b8181146124ba578154916001600160401b03831161033557600160401b8311610335578154838355808410612536575b5060005260206000209060005260206000208154916000925b848410612515575050505050565b600191820180546001600160a01b0390921684860155939091019290612507565b61254e90836000528460206000209182019101612292565b386124ee565b61255e8154611e17565b9081612568575050565b81601f6000931160011461257a575055565b8183526020832061259691601f0160051c810190600101612292565b8160208120915555565b9061031f5761255e8154611e17565b60096000918281556125c360018201612554565b6125cf60028201612554565b8260038201556125e160048201612554565b82600582015560068101805484825580612608575b50508260078201558260088201550155565b61261b9185526020852090810190612292565b38806125f6565b6000198114610cd75760010190565b805160208092012060005b600880548083101561277b578361265284611dc8565b506040516000825461266381611e17565b8084528a840194600192858d858316928360001461275a57505050600114612717575b50505081612695910382611ea4565b519020146126ad5750506126a890612622565b61263c565b9093506000199250828101908111610cd7576126cb6126d291611dc8565b5091611dc8565b91909161031f576126e2916123e2565b815480156127015701906126fe6126f883611dc8565b906125a0565b55565b634e487b7160e01b600052603160045260246000fd5b9193949550915060005288600020916000925b828410612747575050509061269581898995948201019138612686565b80548486018c0152928a0192810161272a565b92509392509350612695945060ff19168652151560051b8201019138612686565b5050505050565b805160208092012060005b600780548083101561277b57836127a384611d91565b50604051600082546127b481611e17565b8084528a840194600192858d858316928360001461288c57505050600114612849575b505050816127e6910382611ea4565b519020146127fe5750506127f990612622565b61278d565b9093506000199250828101908111610cd75761281c61282391611d91565b5091611d91565b91909161031f57612833916123e2565b815480156127015701906126fe6126f883611d91565b9193949550915060005288600020916000925b82841061287957505050906127e6818989959482010191386127d7565b80548486018c0152928a0192810161285c565b925093925093506127e6945060ff19168652151560051b82010191386127d7565b81516020809301209160005b82548082101561277b57846128ce8386611dff565b50604051600082546128df81611e17565b80845288840194600192858b85831692836000146129ba57505050600114612977575b50505081612911910382611ea4565b51902014612928575061292390612622565b6128b9565b929350905060001991828101908111610cd7576129486129509185611dff565b509184611dff565b91909161031f57612960916123e2565b815480156127015701906126fe6126f88383611dff565b9193949550915060005286600020916000925b8284106129a7575050509061291181878a95948201019138612902565b80548486018a015292880192810161298a565b92509392509350612911945060ff19168652151560051b8201019138612902565b9060405191828154918282526020928383019160005283600020936000905b828210612a1057505050611f0392500383611ea4565b85546001600160a01b0316845260019586019588955093810193909101906129fa565b9081546001600160401b03811161033557604051926020612a59818460051b0186611ea4565b82855260009182528082208186015b848410612a76575050505050565b6001838192612a8485611ec5565b815201920193019290612a68565b60405190612a9f82611e51565b816101606000918281526060602082015260606040820152826060820152606060808201528260a08201528260c08201528260e082015260606101008201528261012082015282610140820152015256fea26469706673582212203f35e4315b2d3d00f56e8aa054bc31615b3b286d57381fb94b12bab380164a9664736f6c63430008110033","opcodes":"PUSH1 0x80 DUP1 PUSH1 0x40 MSTORE CALLVALUE PUSH2 0x28 JUMPI PUSH1 0x0 DUP1 SLOAD PUSH1 0x1 PUSH1 0x1 PUSH1 0xA0 SHL SUB NOT AND CALLER OR SWAP1 SSTORE PUSH2 0x2B26 SWAP1 DUP2 PUSH2 0x2E DUP3 CODECOPY RETURN JUMPDEST PUSH1 0x0 DUP1 REVERT INVALID PUSH1 0x80 PUSH1 0x40 MSTORE PUSH1 0x4 CALLDATASIZE LT ISZERO PUSH2 0x12 JUMPI PUSH1 0x0 DUP1 REVERT JUMPDEST PUSH1 0xE0 PUSH1 0x0 CALLDATALOAD DUP2 SHR SWAP1 DUP2 PUSH4 0x1236DFEB EQ PUSH2 0x1D2E JUMPI DUP2 PUSH4 0x1A015350 EQ PUSH2 0x1CD4 JUMPI DUP2 PUSH4 0x1B918318 EQ PUSH2 0x1C53 JUMPI DUP2 PUSH4 0x1FA675F0 EQ PUSH2 0x1C06 JUMPI DUP2 PUSH4 0x201E5414 EQ PUSH2 0x1B65 JUMPI DUP2 PUSH4 0x2AA58656 EQ PUSH2 0x1950 JUMPI DUP2 PUSH4 0x314247E7 EQ PUSH2 0x18FE JUMPI DUP2 PUSH4 0x39203B0F EQ PUSH2 0x185D JUMPI DUP2 PUSH4 0x3A1D9997 EQ PUSH2 0x1810 JUMPI DUP2 PUSH4 0x421D73CC EQ PUSH2 0x17D6 JUMPI DUP2 PUSH4 0x4FD71526 EQ PUSH2 0x1785 JUMPI DUP2 PUSH4 0x5912A4F7 EQ PUSH2 0x16F0 JUMPI DUP2 PUSH4 0x5B46B289 EQ PUSH2 0x15C9 JUMPI DUP2 PUSH4 0x5C307315 EQ PUSH2 0x158A JUMPI DUP2 PUSH4 0x61C4E799 EQ PUSH2 0x1561 JUMPI DUP2 PUSH4 0x67F74545 EQ PUSH2 0x1507 JUMPI DUP2 PUSH4 0x6AA4B03C EQ PUSH2 0x14CD JUMPI DUP2 PUSH4 0x76477E2F EQ PUSH2 0x1473 JUMPI DUP2 PUSH4 0x76F1D5F8 EQ PUSH2 0x137B JUMPI DUP2 PUSH4 0x7AA4E76C EQ PUSH2 0x1328 JUMPI DUP2 PUSH4 0x836B03CD EQ PUSH2 0x12D6 JUMPI DUP2 PUSH4 0x84856482 EQ PUSH2 0x1285 JUMPI DUP2 PUSH4 0x8AA9E631 EQ PUSH2 0x122A JUMPI DUP2 PUSH4 0x8AFDD669 EQ PUSH2 0x11CF JUMPI DUP2 PUSH4 0x92EE8345 EQ PUSH2 0x111E JUMPI DUP2 PUSH4 0xA0639160 EQ PUSH2 0xA23 JUMPI DUP2 PUSH4 0xA98307C6 EQ PUSH2 0x932 JUMPI DUP2 PUSH4 0xB567D6A3 EQ PUSH2 0x7EF JUMPI DUP2 PUSH4 0xB8AF0F79 EQ PUSH2 0x6EE JUMPI DUP2 PUSH4 0xBD9FE5C5 EQ PUSH2 0x64D JUMPI DUP2 PUSH4 0xD5B8C35C EQ PUSH2 0x5E8 JUMPI DUP2 PUSH4 0xEEEECE50 EQ PUSH2 0x4C9 JUMPI POP DUP1 PUSH4 0xF20A325A EQ PUSH2 0x477 JUMPI PUSH4 0xFAFC5E05 EQ PUSH2 0x195 JUMPI PUSH1 0x0 DUP1 REVERT JUMPDEST CALLVALUE PUSH2 0x472 JUMPI PUSH2 0x1A3 CALLDATASIZE PUSH2 0x2132 JUMP JUMPDEST CALLER PUSH1 0x0 MSTORE PUSH1 0x20 PUSH1 0x3 DUP2 MSTORE PUSH1 0xFF PUSH1 0x40 PUSH1 0x0 KECCAK256 SLOAD AND ISZERO PUSH2 0x42E JUMPI PUSH1 0x40 MLOAD DUP4 MLOAD SWAP1 DUP3 DUP2 DUP2 DUP8 ADD SWAP4 PUSH2 0x1D2 DUP2 DUP4 DUP8 PUSH2 0x1F7C JUMP JUMPDEST DUP2 ADD PUSH1 0xC DUP2 MSTORE SUB ADD SWAP1 KECCAK256 SWAP4 PUSH1 0x5 DUP6 ADD SWAP4 DUP5 SLOAD SWAP5 PUSH1 0xFF PUSH1 0x8 SWAP7 DUP8 SHR AND ISZERO PUSH2 0x1F4 JUMPI STOP JUMPDEST PUSH2 0x202 PUSH1 0x4 DUP9 ADD SWAP3 DUP4 PUSH2 0x22EE JUMP JUMPDEST PUSH1 0x3 DUP8 ADD SWAP1 PUSH1 0x1 PUSH1 0x1 PUSH1 0x60 SHL SUB PUSH1 0xA0 SHL CALLER DUP2 DUP5 SLOAD AND OR DUP4 SSTORE PUSH2 0x100 PUSH2 0xFF00 NOT DUP4 SLOAD AND OR DUP3 SSTORE PUSH1 0x40 MLOAD DUP8 DUP2 DUP8 MLOAD PUSH2 0x239 DUP2 DUP4 DUP13 PUSH2 0x1F7C JUMP JUMPDEST DUP2 ADD PUSH1 0xD DUP2 MSTORE SUB ADD SWAP1 KECCAK256 SWAP4 DUP10 DUP6 SUB PUSH2 0x34B JUMPI JUMPDEST POP POP POP POP POP PUSH1 0x40 MLOAD SWAP4 DUP2 MLOAD PUSH2 0x262 DUP2 DUP8 DUP7 PUSH2 0x1F7C JUMP JUMPDEST DUP6 ADD PUSH1 0xC DUP2 MSTORE DUP6 DUP6 PUSH1 0x1 DUP1 PUSH1 0xA0 SHL SUB SWAP8 DUP9 SWAP4 SUB ADD SWAP1 KECCAK256 SLOAD AND PUSH1 0x0 MSTORE PUSH1 0x11 DUP5 MSTORE PUSH2 0x28F DUP3 PUSH1 0x40 PUSH1 0x0 KECCAK256 PUSH2 0x23B5 JUMP JUMPDEST DUP1 SLOAD PUSH1 0x1 PUSH1 0x40 SHL DUP2 LT ISZERO PUSH2 0x335 JUMPI PUSH2 0x2AC SWAP2 PUSH1 0x1 DUP3 ADD SWAP1 SSTORE PUSH2 0x1DC8 JUMP JUMPDEST SWAP5 SWAP1 SWAP5 PUSH2 0x31F JUMPI PUSH2 0x31D SWAP6 PUSH2 0x2C4 DUP4 PUSH2 0x30E SWAP8 PUSH2 0x22EE JUMP JUMPDEST CALLER PUSH1 0x0 MSTORE PUSH1 0x1 DUP6 MSTORE PUSH2 0x2DD DUP4 PUSH1 0x5 PUSH1 0x40 PUSH1 0x0 KECCAK256 ADD PUSH2 0x23B5 JUMP JUMPDEST SLOAD AND PUSH1 0x0 MSTORE PUSH1 0x10 DUP4 MSTORE PUSH2 0x2F4 DUP2 PUSH1 0x40 PUSH1 0x0 KECCAK256 PUSH2 0x28AD JUMP JUMPDEST PUSH2 0x2FD DUP2 PUSH2 0x2782 JUMP JUMPDEST PUSH1 0x40 MLOAD SWAP4 DUP5 SWAP3 DUP4 SWAP3 MLOAD SWAP3 DUP4 SWAP2 PUSH2 0x1F7C JUMP JUMPDEST DUP2 ADD PUSH1 0xC DUP2 MSTORE SUB ADD SWAP1 KECCAK256 PUSH2 0x25AF JUMP JUMPDEST STOP JUMPDEST PUSH4 0x4E487B71 PUSH1 0xE0 SHL PUSH1 0x0 MSTORE PUSH1 0x0 PUSH1 0x4 MSTORE PUSH1 0x24 PUSH1 0x0 REVERT JUMPDEST PUSH4 0x4E487B71 PUSH1 0xE0 SHL PUSH1 0x0 MSTORE PUSH1 0x41 PUSH1 0x4 MSTORE PUSH1 0x24 PUSH1 0x0 REVERT JUMPDEST DUP10 SLOAD DUP6 SLOAD DUP4 AND PUSH1 0x1 PUSH1 0x1 PUSH1 0xA0 SHL SUB SWAP2 DUP3 AND OR DUP7 SSTORE PUSH2 0x3F9 SWAP5 PUSH2 0x3A0 SWAP4 SWAP1 SWAP2 PUSH2 0x389 PUSH1 0x2 DUP15 PUSH2 0x37F PUSH1 0x1 DUP1 DUP4 ADD SWAP1 DUP14 ADD PUSH2 0x23E2 JUMP JUMPDEST ADD PUSH1 0x2 DUP11 ADD PUSH2 0x23E2 JUMP JUMPDEST PUSH1 0x3 DUP9 ADD SWAP3 SLOAD AND SWAP1 DUP3 SLOAD AND OR SWAP1 SSTORE PUSH1 0x4 DUP6 ADD PUSH2 0x23E2 JUMP JUMPDEST PUSH1 0xFF PUSH1 0x5 DUP5 ADD SWAP2 PUSH2 0x3C0 DUP3 DUP3 SLOAD AND DUP5 SWAP1 PUSH1 0xFF DUP1 NOT DUP4 SLOAD AND SWAP2 ISZERO ISZERO AND OR SWAP1 SSTORE JUMP JUMPDEST DUP1 SLOAD DUP4 SLOAD PUSH2 0xFF00 NOT AND SWAP1 DUP11 SHR DUP4 AND ISZERO ISZERO PUSH1 0x8 SHL PUSH2 0xFF00 AND OR DUP4 SSTORE JUMPDEST SLOAD PUSH1 0x10 SHR AND PUSH3 0xFF0000 DUP3 SLOAD SWAP2 ISZERO ISZERO PUSH1 0x10 SHL AND SWAP1 PUSH3 0xFF0000 NOT AND OR SWAP1 SSTORE JUMP JUMPDEST PUSH2 0x409 PUSH1 0x6 DUP8 ADD PUSH1 0x6 DUP4 ADD PUSH2 0x24BE JUMP JUMPDEST PUSH1 0x7 DUP7 ADD SLOAD PUSH1 0x7 DUP3 ADD SSTORE DUP5 DUP7 ADD SLOAD DUP6 DUP3 ADD SSTORE PUSH1 0x9 DUP1 DUP8 ADD SLOAD SWAP2 ADD SSTORE CODESIZE DUP1 DUP1 DUP1 DUP1 PUSH2 0x24C JUMP JUMPDEST PUSH1 0x64 SWAP1 PUSH1 0x40 MLOAD SWAP1 PUSH3 0x461BCD PUSH1 0xE5 SHL DUP3 MSTORE PUSH1 0x4 DUP3 ADD MSTORE PUSH1 0x1F PUSH1 0x24 DUP3 ADD MSTORE PUSH32 0x796F7520617265206E6F7420736369656E7469737420746F2072657669657700 PUSH1 0x44 DUP3 ADD MSTORE REVERT JUMPDEST PUSH1 0x0 DUP1 REVERT JUMPDEST CALLVALUE PUSH2 0x472 JUMPI PUSH1 0x20 CALLDATASIZE PUSH1 0x3 NOT ADD SLT PUSH2 0x472 JUMPI PUSH1 0x1 PUSH1 0x1 PUSH1 0xA0 SHL SUB PUSH2 0x498 PUSH2 0x1D7B JUMP JUMPDEST AND PUSH1 0x0 MSTORE PUSH1 0x10 PUSH1 0x20 MSTORE PUSH2 0x4C5 PUSH2 0x4B1 PUSH1 0x40 PUSH1 0x0 KECCAK256 PUSH2 0x2A33 JUMP JUMPDEST PUSH1 0x40 MLOAD SWAP2 DUP3 SWAP2 PUSH1 0x20 DUP4 MSTORE PUSH1 0x20 DUP4 ADD SWAP1 PUSH2 0x20D6 JUMP JUMPDEST SUB SWAP1 RETURN JUMPDEST CALLVALUE PUSH2 0x472 JUMPI PUSH1 0x20 CALLDATASIZE PUSH1 0x3 NOT ADD SLT PUSH2 0x472 JUMPI PUSH1 0x4 CALLDATALOAD SWAP1 PUSH1 0x1 PUSH1 0x1 PUSH1 0x40 SHL SUB DUP3 GT PUSH2 0x472 JUMPI PUSH1 0x9 PUSH2 0x520 PUSH1 0x20 PUSH2 0x504 PUSH2 0x4C5 SWAP6 CALLDATASIZE SWAP1 PUSH1 0x4 ADD PUSH2 0x1FC4 JUMP JUMPDEST PUSH2 0x50C PUSH2 0x2A92 JUMP JUMPDEST POP DUP2 PUSH1 0x40 MLOAD SWAP4 DUP3 DUP6 DUP1 SWAP5 MLOAD SWAP4 DUP5 SWAP3 ADD PUSH2 0x1F7C JUMP JUMPDEST DUP2 ADD PUSH1 0xE DUP2 MSTORE SUB ADD SWAP1 KECCAK256 PUSH1 0x40 MLOAD SWAP3 PUSH2 0x537 DUP5 PUSH2 0x1E51 JUMP JUMPDEST DUP2 SLOAD PUSH1 0x1 PUSH1 0x1 PUSH1 0xA0 SHL SUB SWAP1 DUP2 AND DUP6 MSTORE PUSH2 0x552 PUSH1 0x1 DUP5 ADD PUSH2 0x1EC5 JUMP JUMPDEST PUSH1 0x20 DUP7 ADD MSTORE PUSH2 0x563 PUSH1 0x2 DUP5 ADD PUSH2 0x1EC5 JUMP JUMPDEST PUSH1 0x40 DUP7 ADD MSTORE PUSH1 0x3 DUP4 ADD SLOAD AND PUSH1 0x60 DUP6 ADD MSTORE PUSH2 0x57F PUSH1 0x4 DUP4 ADD PUSH2 0x1EC5 JUMP JUMPDEST PUSH1 0x80 DUP6 ADD MSTORE PUSH1 0xFF PUSH1 0x5 DUP4 ADD SLOAD DUP2 DUP2 AND ISZERO ISZERO PUSH1 0xA0 DUP8 ADD MSTORE DUP2 DUP2 PUSH1 0x8 SHR AND ISZERO ISZERO PUSH1 0xC0 DUP8 ADD MSTORE PUSH1 0x10 SHR AND ISZERO ISZERO SWAP1 DUP5 ADD MSTORE PUSH2 0x5B8 PUSH1 0x6 DUP3 ADD PUSH2 0x29DB JUMP JUMPDEST PUSH2 0x100 DUP5 ADD MSTORE PUSH1 0x7 DUP2 ADD SLOAD PUSH2 0x120 DUP5 ADD MSTORE PUSH1 0x8 DUP2 ADD SLOAD PUSH2 0x140 DUP5 ADD MSTORE ADD SLOAD PUSH2 0x160 DUP3 ADD MSTORE PUSH1 0x40 MLOAD SWAP2 DUP3 SWAP2 DUP3 PUSH2 0x2175 JUMP JUMPDEST CALLVALUE PUSH2 0x472 JUMPI PUSH1 0x20 CALLDATASIZE PUSH1 0x3 NOT ADD SLT PUSH2 0x472 JUMPI PUSH1 0x4 CALLDATALOAD PUSH1 0x9 SLOAD DUP2 LT ISZERO PUSH2 0x472 JUMPI PUSH2 0x639 PUSH2 0x4C5 SWAP2 PUSH1 0x9 PUSH1 0x0 MSTORE PUSH32 0x6E1540171B6C0C960B71A7020D9F60077F6AF931A8BBF590DA0223DACF75C7AF ADD PUSH2 0x1EC5 JUMP JUMPDEST PUSH1 0x40 MLOAD SWAP2 DUP3 SWAP2 PUSH1 0x20 DUP4 MSTORE PUSH1 0x20 DUP4 ADD SWAP1 PUSH2 0x1F9F JUMP JUMPDEST CALLVALUE PUSH2 0x472 JUMPI PUSH1 0x0 CALLDATASIZE PUSH1 0x3 NOT ADD SLT PUSH2 0x472 JUMPI PUSH1 0x8 SLOAD PUSH1 0x1 PUSH1 0x1 PUSH1 0x40 SHL SUB DUP2 GT PUSH2 0x335 JUMPI PUSH1 0x40 MLOAD SWAP1 PUSH1 0x20 SWAP1 PUSH2 0x685 DUP3 DUP3 PUSH1 0x5 SHL ADD DUP5 PUSH2 0x1EA4 JUMP JUMPDEST DUP1 DUP4 MSTORE DUP2 DUP4 ADD PUSH1 0x8 PUSH1 0x0 MSTORE PUSH32 0xF3F7A9FE364FAAB93B216DA50A3214154F22A0A2B415B23A84C8169E8B636EE3 DUP4 PUSH1 0x0 SWAP3 JUMPDEST DUP5 DUP5 LT PUSH2 0x6D0 JUMPI PUSH1 0x40 MLOAD DUP3 DUP2 MSTORE DUP1 PUSH2 0x4C5 DUP2 DUP6 ADD DUP11 PUSH2 0x20D6 JUMP JUMPDEST PUSH1 0x1 SWAP2 DUP3 SWAP2 PUSH2 0x6DE DUP6 PUSH2 0x1EC5 JUMP JUMPDEST DUP2 MSTORE ADD SWAP3 ADD SWAP3 ADD SWAP2 SWAP1 DUP5 SWAP1 PUSH2 0x6B6 JUMP JUMPDEST CALLVALUE PUSH2 0x472 JUMPI PUSH1 0x40 CALLDATASIZE PUSH1 0x3 NOT ADD SLT PUSH2 0x472 JUMPI PUSH2 0x707 PUSH2 0x1D7B JUMP JUMPDEST PUSH1 0x0 SLOAD PUSH1 0x1 PUSH1 0x1 PUSH1 0xA0 SHL SUB SWAP2 SWAP1 PUSH2 0x721 SWAP1 DUP4 AND CALLER EQ PUSH2 0x2246 JUMP JUMPDEST AND DUP1 PUSH1 0x0 MSTORE PUSH1 0x2 PUSH1 0x20 MSTORE PUSH1 0x5 PUSH1 0x40 PUSH1 0x0 KECCAK256 ADD SWAP1 PUSH1 0x1 PUSH1 0x1 PUSH1 0x60 SHL SUB PUSH1 0xA0 SHL SWAP2 DUP2 DUP4 DUP3 SLOAD AND OR SWAP1 SSTORE PUSH1 0x0 PUSH1 0x40 DUP2 KECCAK256 SSTORE PUSH1 0x0 PUSH1 0x2 PUSH1 0x40 DUP3 KECCAK256 ADD SSTORE PUSH1 0x24 CALLDATALOAD PUSH1 0x1 PUSH1 0x40 PUSH1 0x0 KECCAK256 ADD SSTORE PUSH1 0xA PUSH1 0x20 MSTORE PUSH1 0x40 PUSH1 0x0 KECCAK256 PUSH1 0xFF NOT SWAP1 PUSH1 0x1 DUP3 DUP3 SLOAD AND OR SWAP1 SSTORE PUSH1 0x4 PUSH1 0x20 MSTORE PUSH1 0x1 PUSH1 0x40 PUSH1 0x0 KECCAK256 SWAP2 DUP3 SLOAD AND OR SWAP1 SSTORE PUSH1 0x5 SLOAD PUSH1 0x1 PUSH1 0x40 SHL DUP2 LT ISZERO PUSH2 0x335 JUMPI PUSH1 0x1 DUP2 ADD DUP1 PUSH1 0x5 SSTORE DUP2 LT ISZERO PUSH2 0x7D9 JUMPI PUSH32 0x36B6384B5ECA791C62761152D0C79BB0604C104A5FB6F4EB0703F3154BB3DB0 ADD DUP1 SLOAD SWAP1 SWAP3 AND OR SWAP1 SSTORE STOP JUMPDEST PUSH4 0x4E487B71 PUSH1 0xE0 SHL PUSH1 0x0 MSTORE PUSH1 0x32 PUSH1 0x4 MSTORE PUSH1 0x24 PUSH1 0x0 REVERT JUMPDEST CALLVALUE PUSH2 0x472 JUMPI PUSH1 0x20 SWAP1 DUP2 PUSH1 0x3 NOT CALLDATASIZE ADD SLT PUSH2 0x472 JUMPI PUSH2 0x80A PUSH2 0x1D7B JUMP JUMPDEST PUSH1 0x0 DUP3 PUSH1 0x40 MLOAD PUSH2 0x819 DUP2 PUSH2 0x1E88 JUMP JUMPDEST DUP3 DUP2 MSTORE DUP3 DUP7 DUP3 ADD MSTORE DUP3 PUSH1 0x40 DUP3 ADD MSTORE DUP3 PUSH1 0x60 DUP3 ADD MSTORE PUSH1 0x60 PUSH1 0x80 DUP3 ADD MSTORE PUSH1 0x60 PUSH1 0xA0 DUP3 ADD MSTORE DUP3 PUSH1 0xC0 DUP3 ADD MSTORE ADD MSTORE PUSH1 0x1 DUP1 PUSH1 0xA0 SHL SUB DUP1 SWAP2 AND PUSH1 0x0 MSTORE PUSH1 0x1 DUP4 MSTORE PUSH1 0x40 PUSH1 0x0 KECCAK256 SWAP1 PUSH1 0x40 MLOAD SWAP3 PUSH2 0x867 DUP5 PUSH2 0x1E88 JUMP JUMPDEST DUP3 SLOAD DUP5 MSTORE PUSH1 0x1 DUP4 ADD SLOAD SWAP1 DUP6 DUP6 ADD SWAP2 DUP3 MSTORE PUSH1 0x2 DUP5 ADD SLOAD SWAP3 PUSH1 0x40 DUP7 ADD SWAP4 DUP5 MSTORE PUSH2 0x922 PUSH1 0x3 DUP7 ADD SLOAD PUSH1 0x60 DUP9 ADD SWAP1 DUP2 MSTORE PUSH2 0x89F PUSH1 0x4 DUP9 ADD PUSH2 0x2A33 JUMP JUMPDEST SWAP1 PUSH1 0x80 DUP10 ADD SWAP2 DUP3 MSTORE PUSH2 0x8B3 PUSH1 0x5 DUP10 ADD PUSH2 0x2A33 JUMP JUMPDEST SWAP7 PUSH1 0xA0 DUP11 ADD SWAP8 DUP9 MSTORE PUSH1 0x7 DUP6 PUSH1 0x6 DUP12 ADD SLOAD AND SWAP10 PUSH1 0xC0 DUP13 ADD SWAP11 DUP12 MSTORE ADD SLOAD SWAP7 DUP7 DUP12 ADD SWAP8 DUP9 MSTORE PUSH1 0x40 MLOAD SWAP12 DUP13 SWAP12 DUP2 DUP14 MSTORE MLOAD SWAP1 DUP13 ADD MSTORE MLOAD PUSH1 0x40 DUP12 ADD MSTORE MLOAD PUSH1 0x60 DUP11 ADD MSTORE MLOAD PUSH1 0x80 DUP10 ADD MSTORE MLOAD SWAP5 PUSH2 0x90F PUSH2 0x100 SWAP7 DUP8 PUSH1 0xA0 DUP12 ADD MSTORE PUSH2 0x120 DUP11 ADD SWAP1 PUSH2 0x20D6 JUMP JUMPDEST SWAP1 MLOAD DUP9 DUP3 SUB PUSH1 0x1F NOT ADD PUSH1 0xC0 DUP11 ADD MSTORE PUSH2 0x20D6 JUMP JUMPDEST SWAP5 MLOAD AND SWAP1 DUP6 ADD MSTORE MLOAD SWAP1 DUP4 ADD MSTORE SUB SWAP1 RETURN JUMPDEST CALLVALUE PUSH2 0x472 JUMPI PUSH1 0x40 CALLDATASIZE PUSH1 0x3 NOT ADD SLT PUSH2 0x472 JUMPI PUSH2 0x94B PUSH2 0x1D7B JUMP JUMPDEST PUSH1 0x24 CALLDATALOAD PUSH1 0x1 PUSH1 0x1 PUSH1 0x40 SHL SUB DUP2 GT PUSH2 0x472 JUMPI PUSH2 0x96A SWAP1 CALLDATASIZE SWAP1 PUSH1 0x4 ADD PUSH2 0x1FC4 JUMP JUMPDEST CALLER PUSH1 0x0 MSTORE PUSH1 0x4 PUSH1 0x20 MSTORE PUSH1 0xFF PUSH1 0x40 PUSH1 0x0 KECCAK256 SLOAD AND ISZERO PUSH2 0x9DE JUMPI PUSH2 0x9CC SWAP1 PUSH1 0x40 MLOAD PUSH1 0x20 DUP2 DUP4 MLOAD PUSH2 0x99A DUP2 DUP4 DUP6 DUP9 ADD PUSH2 0x1F7C JUMP JUMPDEST DUP2 ADD PUSH1 0xB DUP2 MSTORE SUB ADD SWAP1 KECCAK256 SWAP3 PUSH1 0x1 DUP1 PUSH1 0xA0 SHL SUB AND PUSH1 0x0 MSTORE PUSH1 0xF PUSH1 0x20 MSTORE PUSH2 0x9C3 DUP2 PUSH1 0x40 PUSH1 0x0 KECCAK256 PUSH2 0x23B5 JUMP JUMPDEST PUSH1 0x1 DUP4 ADD PUSH2 0x22EE JUMP JUMPDEST DUP1 SLOAD PUSH1 0x1 PUSH1 0x1 PUSH1 0xA0 SHL SUB NOT AND CALLER OR SWAP1 SSTORE STOP JUMPDEST PUSH1 0x40 MLOAD PUSH3 0x461BCD PUSH1 0xE5 SHL DUP2 MSTORE PUSH1 0x20 PUSH1 0x4 DUP3 ADD MSTORE PUSH1 0x1F PUSH1 0x24 DUP3 ADD MSTORE PUSH32 0x596F7520617265206E6F7420612072656769737465726564206661726D657200 PUSH1 0x44 DUP3 ADD MSTORE PUSH1 0x64 SWAP1 REVERT JUMPDEST CALLVALUE PUSH2 0x472 JUMPI PUSH1 0x40 CALLDATASIZE PUSH1 0x3 NOT ADD SLT PUSH2 0x472 JUMPI PUSH1 0x4 CALLDATALOAD PUSH1 0x1 PUSH1 0x1 PUSH1 0x40 SHL SUB DUP2 GT PUSH2 0x472 JUMPI PUSH2 0xA53 SWAP1 CALLDATASIZE SWAP1 PUSH1 0x4 ADD PUSH2 0x1FC4 JUMP JUMPDEST PUSH1 0x24 CALLDATALOAD ISZERO ISZERO PUSH1 0x24 CALLDATALOAD SUB PUSH2 0x472 JUMPI CALLER PUSH1 0x0 MSTORE PUSH1 0xA PUSH1 0x20 MSTORE PUSH1 0xFF PUSH1 0x40 PUSH1 0x0 KECCAK256 SLOAD AND ISZERO PUSH2 0x10E0 JUMPI CALLER PUSH1 0x0 MSTORE PUSH1 0x3 PUSH1 0x20 MSTORE PUSH1 0xFF PUSH1 0x40 PUSH1 0x0 KECCAK256 SLOAD AND ISZERO PUSH2 0x109B JUMPI PUSH1 0x40 MLOAD PUSH1 0x20 DUP2 DUP4 MLOAD PUSH2 0xAA3 DUP2 DUP4 DUP6 DUP9 ADD PUSH2 0x1F7C JUMP JUMPDEST PUSH1 0xD SWAP1 DUP3 ADD SWAP1 DUP2 MSTORE SUB ADD SWAP1 KECCAK256 PUSH1 0x3 DUP2 ADD SLOAD PUSH1 0x1 PUSH1 0x1 PUSH1 0xA0 SHL SUB AND CALLER EQ PUSH2 0x104C JUMPI DUP1 SLOAD PUSH1 0x1 PUSH1 0x1 PUSH1 0xA0 SHL SUB AND CALLER EQ PUSH2 0x1007 JUMPI PUSH1 0x6 DUP2 ADD SLOAD PUSH1 0x0 JUMPDEST DUP2 DUP2 LT PUSH2 0xF83 JUMPI POP PUSH1 0x1 PUSH1 0x40 SHL DUP2 LT ISZERO PUSH2 0x335 JUMPI DUP1 PUSH1 0x1 PUSH2 0xB06 SWAP3 ADD PUSH1 0x6 DUP5 ADD SSTORE PUSH1 0x6 DUP4 ADD PUSH2 0x1DFF JUMP JUMPDEST DUP2 SLOAD PUSH1 0x1 PUSH1 0x1 PUSH1 0xA0 SHL SUB PUSH1 0x3 SWAP3 SWAP1 SWAP3 SHL SWAP2 DUP3 SHL DUP1 NOT SWAP1 SWAP2 AND CALLER SWAP1 SWAP3 SHL AND OR SWAP1 SSTORE PUSH1 0x5 DUP2 ADD DUP1 SLOAD PUSH3 0xFF0000 NOT AND PUSH3 0x10000 OR SWAP1 SSTORE PUSH1 0x7 DUP2 ADD SLOAD PUSH1 0x1 DUP2 ADD DUP2 GT PUSH2 0xCD7 JUMPI PUSH1 0x1 ADD PUSH1 0x7 DUP3 ADD SSTORE PUSH1 0x24 CALLDATALOAD ISZERO PUSH2 0xF6B JUMPI PUSH1 0x8 DUP2 ADD DUP1 SLOAD SWAP1 PUSH1 0x1 DUP3 ADD DUP1 SWAP3 GT PUSH2 0xCD7 JUMPI SSTORE JUMPDEST PUSH1 0x5 PUSH1 0x7 DUP3 ADD SLOAD LT ISZERO PUSH2 0xB7B JUMPI STOP JUMPDEST PUSH1 0x3 DUP2 ADD SLOAD DUP2 SLOAD PUSH1 0x8 DUP4 ADD SLOAD PUSH1 0x9 DUP5 ADD SLOAD PUSH1 0x1 PUSH1 0x1 PUSH1 0xA0 SHL SUB SWAP3 DUP4 AND SWAP4 SWAP1 SWAP3 AND SWAP2 LT ISZERO PUSH2 0xF1A JUMPI DUP1 PUSH1 0x0 MSTORE PUSH1 0x3 PUSH1 0x20 MSTORE PUSH1 0xFF PUSH1 0x40 PUSH1 0x0 KECCAK256 SLOAD AND PUSH2 0xEBC JUMPI JUMPDEST POP DUP1 PUSH1 0x0 MSTORE PUSH1 0x4 PUSH1 0x20 MSTORE PUSH1 0xFF PUSH1 0x40 PUSH1 0x0 KECCAK256 SLOAD AND PUSH2 0xE87 JUMPI JUMPDEST POP PUSH1 0x40 MLOAD PUSH1 0x20 DUP2 DUP5 MLOAD PUSH2 0xBE7 DUP2 DUP4 DUP6 DUP10 ADD PUSH2 0x1F7C JUMP JUMPDEST DUP2 ADD PUSH1 0xE DUP2 MSTORE SUB ADD SWAP1 KECCAK256 DUP2 DUP2 SUB PUSH2 0xD86 JUMPI JUMPDEST POP PUSH1 0x9 SLOAD PUSH1 0x1 PUSH1 0x40 SHL DUP2 LT ISZERO PUSH2 0x335 JUMPI PUSH1 0x1 DUP2 ADD DUP1 PUSH1 0x9 SSTORE DUP2 LT ISZERO PUSH2 0x7D9 JUMPI DUP3 PUSH2 0xC49 SWAP2 PUSH1 0x9 PUSH1 0x0 MSTORE PUSH32 0x6E1540171B6C0C960B71A7020D9F60077F6AF931A8BBF590DA0223DACF75C7AF ADD PUSH2 0x22EE JUMP JUMPDEST PUSH1 0x1 DUP1 PUSH1 0xA0 SHL SUB DUP2 SLOAD AND PUSH1 0x0 MSTORE PUSH1 0x12 PUSH1 0x20 MSTORE PUSH2 0xC69 DUP3 PUSH1 0x40 PUSH1 0x0 KECCAK256 PUSH2 0x23B5 JUMP JUMPDEST PUSH1 0x0 JUMPDEST PUSH1 0x6 DUP3 ADD SLOAD DUP2 LT ISZERO PUSH2 0xD2E JUMPI PUSH2 0xC85 DUP2 PUSH1 0x6 DUP5 ADD PUSH2 0x1DFF JUMP JUMPDEST PUSH1 0x1 DUP1 PUSH1 0xA0 SHL SUB SWAP2 SLOAD SWAP1 PUSH1 0x3 SHL SHR AND PUSH1 0x8 DUP4 ADD SLOAD PUSH1 0x9 DUP5 ADD SLOAD LT DUP1 PUSH2 0xD16 JUMPI JUMPDEST ISZERO PUSH2 0xCED JUMPI PUSH1 0x0 MSTORE PUSH1 0x1 PUSH1 0x20 MSTORE PUSH1 0x2 PUSH1 0x40 PUSH1 0x0 KECCAK256 ADD SWAP1 DUP2 SLOAD PUSH1 0x1 DUP2 ADD DUP1 SWAP2 GT PUSH2 0xCD7 JUMPI PUSH2 0xCD2 SWAP3 SSTORE PUSH2 0x2622 JUMP JUMPDEST PUSH2 0xC6C JUMP JUMPDEST PUSH4 0x4E487B71 PUSH1 0xE0 SHL PUSH1 0x0 MSTORE PUSH1 0x11 PUSH1 0x4 MSTORE PUSH1 0x24 PUSH1 0x0 REVERT JUMPDEST PUSH1 0x0 MSTORE PUSH1 0x1 PUSH1 0x20 MSTORE PUSH1 0x2 PUSH1 0x40 PUSH1 0x0 KECCAK256 ADD SWAP1 DUP2 SLOAD PUSH1 0x0 NOT DUP2 ADD SWAP1 DUP2 GT PUSH2 0xCD7 JUMPI PUSH2 0xCD2 SWAP3 SSTORE PUSH2 0x2622 JUMP JUMPDEST POP DUP1 PUSH1 0x0 MSTORE PUSH1 0x3 PUSH1 0x20 MSTORE PUSH1 0xFF PUSH1 0x40 PUSH1 0x0 KECCAK256 SLOAD AND PUSH2 0xCA5 JUMP JUMPDEST POP PUSH1 0x20 PUSH2 0x31D SWAP3 PUSH2 0xD77 SWAP3 PUSH2 0xD42 DUP3 PUSH2 0x2631 JUMP JUMPDEST SLOAD PUSH1 0x1 PUSH1 0x1 PUSH1 0xA0 SHL SUB AND PUSH1 0x0 SWAP1 DUP2 MSTORE PUSH1 0x11 DUP4 MSTORE PUSH1 0x40 SWAP1 KECCAK256 PUSH2 0xD64 SWAP1 DUP3 SWAP1 PUSH2 0x28AD JUMP JUMPDEST DUP2 PUSH1 0x40 MLOAD SWAP4 DUP3 DUP6 DUP1 SWAP5 MLOAD SWAP4 DUP5 SWAP3 ADD PUSH2 0x1F7C JUMP JUMPDEST DUP2 ADD PUSH1 0xD DUP2 MSTORE SUB ADD SWAP1 KECCAK256 PUSH2 0x25AF JUMP JUMPDEST PUSH1 0x1 DUP1 PUSH1 0xA0 SHL SUB DUP3 SLOAD AND PUSH1 0x1 PUSH1 0x1 PUSH1 0x60 SHL SUB PUSH1 0xA0 SHL SWAP1 DUP2 DUP4 SLOAD AND OR DUP3 SSTORE PUSH2 0xDB3 PUSH1 0x1 DUP5 ADD PUSH1 0x1 DUP5 ADD PUSH2 0x23E2 JUMP JUMPDEST PUSH2 0xDC3 PUSH1 0x2 DUP5 ADD PUSH1 0x2 DUP5 ADD PUSH2 0x23E2 JUMP JUMPDEST PUSH1 0x3 DUP3 ADD SWAP1 PUSH1 0x1 DUP1 PUSH1 0xA0 SHL SUB PUSH1 0x3 DUP6 ADD SLOAD AND SWAP1 DUP3 SLOAD AND OR SWAP1 SSTORE PUSH2 0xDEC PUSH1 0x4 DUP4 ADD PUSH1 0x4 DUP4 ADD PUSH2 0x23E2 JUMP JUMPDEST PUSH2 0xE54 PUSH1 0x5 DUP3 ADD PUSH2 0xE10 PUSH1 0xFF PUSH1 0x5 DUP7 ADD SLOAD AND DUP3 SWAP1 PUSH1 0xFF DUP1 NOT DUP4 SLOAD AND SWAP2 ISZERO ISZERO AND OR SWAP1 SSTORE JUMP JUMPDEST PUSH1 0x5 DUP5 ADD SLOAD DUP2 SLOAD PUSH2 0xFF00 NOT AND PUSH1 0x8 SWAP2 DUP3 SHR PUSH1 0xFF AND ISZERO ISZERO SWAP1 SWAP2 SHL PUSH2 0xFF00 AND OR DUP2 SSTORE PUSH1 0xFF PUSH1 0x5 DUP6 ADD SLOAD PUSH1 0x10 SHR AND PUSH3 0xFF0000 DUP3 SLOAD SWAP2 ISZERO ISZERO PUSH1 0x10 SHL AND SWAP1 PUSH3 0xFF0000 NOT AND OR SWAP1 SSTORE JUMP JUMPDEST PUSH2 0xE64 PUSH1 0x6 DUP4 ADD PUSH1 0x6 DUP4 ADD PUSH2 0x24BE JUMP JUMPDEST PUSH1 0x7 DUP3 ADD SLOAD PUSH1 0x7 DUP3 ADD SSTORE PUSH1 0x8 DUP3 ADD SLOAD PUSH1 0x8 DUP3 ADD SSTORE PUSH1 0x9 DUP1 DUP4 ADD SLOAD SWAP2 ADD SSTORE DUP3 PUSH2 0xBF9 JUMP JUMPDEST PUSH1 0x2 PUSH1 0x20 MSTORE PUSH2 0xE9D DUP4 PUSH1 0x4 PUSH1 0x40 PUSH1 0x0 KECCAK256 ADD PUSH2 0x23B5 JUMP JUMPDEST PUSH1 0x0 MSTORE PUSH1 0x2 PUSH1 0x20 MSTORE PUSH2 0xEB6 DUP3 PUSH1 0x3 PUSH1 0x40 PUSH1 0x0 KECCAK256 ADD PUSH2 0x28AD JUMP JUMPDEST DUP3 PUSH2 0xBD1 JUMP JUMPDEST PUSH1 0x1 PUSH1 0x20 MSTORE PUSH2 0xED2 DUP5 PUSH1 0x4 PUSH1 0x40 PUSH1 0x0 KECCAK256 ADD PUSH2 0x23B5 JUMP JUMPDEST DUP1 PUSH1 0x0 MSTORE PUSH1 0x1 PUSH1 0x20 MSTORE PUSH1 0x2 PUSH1 0x40 PUSH1 0x0 KECCAK256 ADD SLOAD PUSH1 0x2 DUP2 ADD DUP2 GT PUSH2 0xCD7 JUMPI PUSH1 0x2 SWAP2 PUSH1 0x0 MSTORE PUSH1 0x1 PUSH1 0x20 MSTORE ADD PUSH1 0x2 PUSH1 0x40 PUSH1 0x0 KECCAK256 ADD SSTORE PUSH2 0xF14 DUP4 PUSH1 0x5 PUSH1 0x40 PUSH1 0x0 KECCAK256 ADD PUSH2 0x28AD JUMP JUMPDEST DUP4 PUSH2 0xBB9 JUMP JUMPDEST DUP1 SWAP2 POP PUSH1 0x0 MSTORE PUSH1 0x3 PUSH1 0x20 MSTORE PUSH1 0xFF PUSH1 0x40 PUSH1 0x0 KECCAK256 SLOAD AND PUSH2 0xF39 JUMPI JUMPDEST POP PUSH2 0xC69 JUMP JUMPDEST PUSH1 0x1 PUSH1 0x20 MSTORE PUSH1 0x40 PUSH1 0x0 KECCAK256 PUSH1 0x2 ADD SLOAD PUSH1 0x1 NOT DUP2 ADD SWAP2 SWAP1 DUP3 GT PUSH2 0xCD7 JUMPI PUSH1 0x0 MSTORE PUSH1 0x1 PUSH1 0x20 MSTORE PUSH1 0x2 PUSH1 0x40 PUSH1 0x0 KECCAK256 ADD SSTORE DUP3 PUSH2 0xF33 JUMP JUMPDEST PUSH1 0x9 DUP2 ADD DUP1 SLOAD SWAP1 PUSH1 0x1 DUP3 ADD DUP1 SWAP3 GT PUSH2 0xCD7 JUMPI SSTORE PUSH2 0xB6C JUMP JUMPDEST PUSH2 0xF90 DUP2 PUSH1 0x6 DUP6 ADD PUSH2 0x1DFF JUMP JUMPDEST SWAP1 SLOAD PUSH1 0x3 SWAP2 SWAP1 SWAP2 SHL SHR PUSH1 0x1 PUSH1 0x1 PUSH1 0xA0 SHL SUB AND CALLER EQ PUSH2 0xFB6 JUMPI PUSH2 0xFB1 SWAP1 PUSH2 0x2622 JUMP JUMPDEST PUSH2 0xADC JUMP JUMPDEST PUSH1 0x40 MLOAD PUSH3 0x461BCD PUSH1 0xE5 SHL DUP2 MSTORE PUSH1 0x20 PUSH1 0x4 DUP3 ADD MSTORE PUSH1 0x24 DUP1 DUP3 ADD MSTORE PUSH32 0x596F75206861766520616C726561647920766572696669656420746869732069 PUSH1 0x44 DUP3 ADD MSTORE PUSH4 0x6D616765 PUSH1 0xE0 SHL PUSH1 0x64 DUP3 ADD MSTORE PUSH1 0x84 SWAP1 REVERT JUMPDEST PUSH1 0x40 MLOAD PUSH3 0x461BCD PUSH1 0xE5 SHL DUP2 MSTORE PUSH1 0x20 PUSH1 0x4 DUP3 ADD MSTORE PUSH1 0x1F PUSH1 0x24 DUP3 ADD MSTORE PUSH32 0x596F752063616E27742076657269667920796F7572206F776E20696D61676500 PUSH1 0x44 DUP3 ADD MSTORE PUSH1 0x64 SWAP1 REVERT JUMPDEST PUSH1 0x40 MLOAD PUSH3 0x461BCD PUSH1 0xE5 SHL DUP2 MSTORE PUSH1 0x20 PUSH1 0x4 DUP3 ADD MSTORE PUSH1 0x21 PUSH1 0x24 DUP3 ADD MSTORE PUSH32 0x596F752063616E27742076657269667920796F7572206F776E20636F6D6D656E PUSH1 0x44 DUP3 ADD MSTORE PUSH1 0x1D PUSH1 0xFA SHL PUSH1 0x64 DUP3 ADD MSTORE PUSH1 0x84 SWAP1 REVERT JUMPDEST PUSH1 0x40 MLOAD PUSH3 0x461BCD PUSH1 0xE5 SHL DUP2 MSTORE PUSH1 0x20 PUSH1 0x4 DUP3 ADD MSTORE PUSH1 0x1A PUSH1 0x24 DUP3 ADD MSTORE PUSH32 0x4F6E6C7920736369656E74697374732063616E20766572696679000000000000 PUSH1 0x44 DUP3 ADD MSTORE PUSH1 0x64 SWAP1 REVERT JUMPDEST PUSH1 0x40 MLOAD PUSH3 0x461BCD PUSH1 0xE5 SHL DUP2 MSTORE PUSH1 0x20 PUSH1 0x4 DUP3 ADD MSTORE PUSH1 0x16 PUSH1 0x24 DUP3 ADD MSTORE PUSH22 0x2CB7BA9030B932903737BA1030903B32B934B334B2B9 PUSH1 0x51 SHL PUSH1 0x44 DUP3 ADD MSTORE PUSH1 0x64 SWAP1 REVERT JUMPDEST CALLVALUE PUSH2 0x472 JUMPI PUSH1 0x20 CALLDATASIZE PUSH1 0x3 NOT ADD SLT PUSH2 0x472 JUMPI PUSH1 0x4 CALLDATALOAD PUSH1 0x1 PUSH1 0x1 PUSH1 0x40 SHL SUB DUP2 GT PUSH2 0x472 JUMPI PUSH1 0x20 PUSH2 0xD64 PUSH2 0x1153 SWAP3 CALLDATASIZE SWAP1 PUSH1 0x4 ADD PUSH2 0x1FC4 JUMP JUMPDEST DUP2 ADD PUSH1 0xE DUP2 MSTORE SUB ADD SWAP1 KECCAK256 PUSH1 0x1 DUP1 PUSH1 0xA0 SHL SUB PUSH2 0x4C5 DUP2 DUP4 SLOAD AND SWAP3 PUSH2 0x1178 PUSH1 0x1 DUP3 ADD PUSH2 0x1EC5 JUMP JUMPDEST SWAP1 PUSH2 0x1185 PUSH1 0x2 DUP3 ADD PUSH2 0x1EC5 JUMP JUMPDEST SWAP4 PUSH1 0x3 DUP3 ADD SLOAD AND SWAP5 PUSH2 0x1199 PUSH1 0x4 DUP4 ADD PUSH2 0x1EC5 JUMP JUMPDEST SWAP3 PUSH1 0x5 DUP4 ADD SLOAD PUSH1 0x7 DUP5 ADD SLOAD SWAP3 PUSH1 0x9 PUSH1 0x8 DUP7 ADD SLOAD SWAP6 ADD SLOAD SWAP6 PUSH1 0x40 MLOAD SWAP10 DUP11 SWAP10 PUSH1 0xFF DUP6 PUSH1 0x10 SHR AND SWAP6 PUSH1 0xFF DUP1 DUP8 PUSH1 0x8 SHR AND SWAP7 AND SWAP5 DUP13 PUSH2 0x201A JUMP JUMPDEST CALLVALUE PUSH2 0x472 JUMPI PUSH1 0x20 CALLDATASIZE PUSH1 0x3 NOT ADD SLT PUSH2 0x472 JUMPI PUSH1 0x4 CALLDATALOAD PUSH1 0x5 SLOAD DUP2 LT ISZERO PUSH2 0x472 JUMPI PUSH1 0x5 PUSH1 0x0 MSTORE PUSH32 0x36B6384B5ECA791C62761152D0C79BB0604C104A5FB6F4EB0703F3154BB3DB0 ADD SLOAD PUSH1 0x40 MLOAD PUSH1 0x1 PUSH1 0x1 PUSH1 0xA0 SHL SUB SWAP1 SWAP2 AND DUP2 MSTORE PUSH1 0x20 SWAP1 RETURN JUMPDEST CALLVALUE PUSH2 0x472 JUMPI PUSH1 0x20 CALLDATASIZE PUSH1 0x3 NOT ADD SLT PUSH2 0x472 JUMPI PUSH1 0x4 CALLDATALOAD PUSH1 0x6 SLOAD DUP2 LT ISZERO PUSH2 0x472 JUMPI PUSH1 0x6 PUSH1 0x0 MSTORE PUSH32 0xF652222313E28459528D920B65115C16C04F3EFC82AAEDC97BE59F3F377C0D3F ADD SLOAD PUSH1 0x40 MLOAD PUSH1 0x1 PUSH1 0x1 PUSH1 0xA0 SHL SUB SWAP1 SWAP2 AND DUP2 MSTORE PUSH1 0x20 SWAP1 RETURN JUMPDEST CALLVALUE PUSH2 0x472 JUMPI PUSH1 0x20 CALLDATASIZE PUSH1 0x3 NOT ADD SLT PUSH2 0x472 JUMPI PUSH1 0x4 CALLDATALOAD PUSH1 0x7 SLOAD DUP2 LT ISZERO PUSH2 0x472 JUMPI PUSH2 0x639 PUSH2 0x4C5 SWAP2 PUSH1 0x7 PUSH1 0x0 MSTORE PUSH32 0xA66CC928B5EDB82AF9BD49922954155AB7B0942694BEA4CE44661D9A8736C688 ADD PUSH2 0x1EC5 JUMP JUMPDEST CALLVALUE PUSH2 0x472 JUMPI PUSH1 0x20 CALLDATASIZE PUSH1 0x3 NOT ADD SLT PUSH2 0x472 JUMPI PUSH1 0x4 CALLDATALOAD SWAP1 PUSH1 0x1 PUSH1 0x1 PUSH1 0x40 SHL SUB DUP3 GT PUSH2 0x472 JUMPI PUSH1 0x9 PUSH2 0x1311 PUSH1 0x20 PUSH2 0x504 PUSH2 0x4C5 SWAP6 CALLDATASIZE SWAP1 PUSH1 0x4 ADD PUSH2 0x1FC4 JUMP JUMPDEST DUP2 ADD PUSH1 0xC DUP2 MSTORE SUB ADD SWAP1 KECCAK256 PUSH1 0x40 MLOAD SWAP3 PUSH2 0x537 DUP5 PUSH2 0x1E51 JUMP JUMPDEST CALLVALUE PUSH2 0x472 JUMPI PUSH1 0x40 CALLDATASIZE PUSH1 0x3 NOT ADD SLT PUSH2 0x472 JUMPI PUSH2 0x1341 PUSH2 0x1D7B JUMP JUMPDEST PUSH1 0x1 PUSH1 0x1 PUSH1 0xA0 SHL SUB AND PUSH1 0x0 SWAP1 DUP2 MSTORE PUSH1 0x11 PUSH1 0x20 MSTORE PUSH1 0x40 SWAP1 KECCAK256 DUP1 SLOAD PUSH1 0x24 CALLDATALOAD SWAP1 DUP2 LT ISZERO PUSH2 0x472 JUMPI PUSH2 0x1375 PUSH2 0x639 SWAP2 PUSH2 0x4C5 SWAP4 PUSH2 0x1DFF JUMP JUMPDEST SWAP1 PUSH2 0x1F6B JUMP JUMPDEST CALLVALUE PUSH2 0x472 JUMPI PUSH1 0x60 CALLDATASIZE PUSH1 0x3 NOT ADD SLT PUSH2 0x472 JUMPI PUSH2 0x1394 PUSH2 0x1D7B JUMP JUMPDEST PUSH1 0x0 SLOAD PUSH1 0x1 PUSH1 0x1 PUSH1 0xA0 SHL SUB SWAP2 SWAP1 PUSH2 0x13AE SWAP1 DUP4 AND CALLER EQ PUSH2 0x2246 JUMP JUMPDEST AND DUP1 PUSH1 0x0 MSTORE PUSH1 0x1 PUSH1 0x20 MSTORE PUSH1 0x6 PUSH1 0x40 PUSH1 0x0 KECCAK256 ADD SWAP1 PUSH1 0x1 PUSH1 0x1 PUSH1 0x60 SHL SUB PUSH1 0xA0 SHL SWAP2 DUP2 DUP4 DUP3 SLOAD AND OR SWAP1 SSTORE PUSH1 0x2 PUSH1 0x40 PUSH1 0x0 KECCAK256 SSTORE PUSH1 0x0 PUSH1 0x2 PUSH1 0x40 DUP3 KECCAK256 ADD SSTORE PUSH1 0x24 CALLDATALOAD PUSH1 0x1 PUSH1 0x40 PUSH1 0x0 KECCAK256 ADD SSTORE PUSH1 0x44 CALLDATALOAD PUSH1 0x3 PUSH1 0x40 PUSH1 0x0 KECCAK256 ADD SSTORE PUSH1 0xA PUSH1 0x20 MSTORE PUSH1 0x40 PUSH1 0x0 KECCAK256 PUSH1 0xFF NOT SWAP1 PUSH1 0x1 DUP3 DUP3 SLOAD AND OR SWAP1 SSTORE PUSH1 0x3 PUSH1 0x20 MSTORE PUSH1 0x1 PUSH1 0x40 PUSH1 0x0 KECCAK256 SWAP2 DUP3 SLOAD AND OR SWAP1 SSTORE PUSH1 0x6 SLOAD PUSH1 0x1 PUSH1 0x40 SHL DUP2 LT ISZERO PUSH2 0x335 JUMPI PUSH1 0x1 DUP2 ADD DUP1 PUSH1 0x6 SSTORE DUP2 LT ISZERO PUSH2 0x7D9 JUMPI PUSH32 0xF652222313E28459528D920B65115C16C04F3EFC82AAEDC97BE59F3F377C0D3F ADD DUP1 SLOAD SWAP1 SWAP3 AND OR SWAP1 SSTORE STOP JUMPDEST CALLVALUE PUSH2 0x472 JUMPI PUSH1 0x20 CALLDATASIZE PUSH1 0x3 NOT ADD SLT PUSH2 0x472 JUMPI PUSH1 0x4 CALLDATALOAD PUSH1 0x1 PUSH1 0x1 PUSH1 0x40 SHL SUB DUP2 GT PUSH2 0x472 JUMPI PUSH1 0x20 PUSH2 0xD64 PUSH2 0x14A8 SWAP3 CALLDATASIZE SWAP1 PUSH1 0x4 ADD PUSH2 0x1FC4 JUMP JUMPDEST DUP2 ADD PUSH1 0xB DUP2 MSTORE SUB ADD SWAP1 KECCAK256 PUSH1 0x1 DUP1 PUSH1 0xA0 SHL SUB PUSH2 0x4C5 DUP2 DUP4 SLOAD AND SWAP3 PUSH2 0x1178 PUSH1 0x1 DUP3 ADD PUSH2 0x1EC5 JUMP JUMPDEST CALLVALUE PUSH2 0x472 JUMPI PUSH1 0x20 CALLDATASIZE PUSH1 0x3 NOT ADD SLT PUSH2 0x472 JUMPI PUSH1 0x1 PUSH1 0x1 PUSH1 0xA0 SHL SUB PUSH2 0x14EE PUSH2 0x1D7B JUMP JUMPDEST AND PUSH1 0x0 MSTORE PUSH1 0x11 PUSH1 0x20 MSTORE PUSH2 0x4C5 PUSH2 0x4B1 PUSH1 0x40 PUSH1 0x0 KECCAK256 PUSH2 0x2A33 JUMP JUMPDEST CALLVALUE PUSH2 0x472 JUMPI PUSH1 0x20 CALLDATASIZE PUSH1 0x3 NOT ADD SLT PUSH2 0x472 JUMPI PUSH1 0x4 CALLDATALOAD PUSH1 0x1 PUSH1 0x1 PUSH1 0x40 SHL SUB DUP2 GT PUSH2 0x472 JUMPI PUSH1 0x20 PUSH2 0xD64 PUSH2 0x153C SWAP3 CALLDATASIZE SWAP1 PUSH1 0x4 ADD PUSH2 0x1FC4 JUMP JUMPDEST DUP2 ADD PUSH1 0xC DUP2 MSTORE SUB ADD SWAP1 KECCAK256 PUSH1 0x1 DUP1 PUSH1 0xA0 SHL SUB PUSH2 0x4C5 DUP2 DUP4 SLOAD AND SWAP3 PUSH2 0x1178 PUSH1 0x1 DUP3 ADD PUSH2 0x1EC5 JUMP JUMPDEST CALLVALUE PUSH2 0x472 JUMPI PUSH1 0x0 CALLDATASIZE PUSH1 0x3 NOT ADD SLT PUSH2 0x472 JUMPI PUSH1 0x0 SLOAD PUSH1 0x40 MLOAD PUSH1 0x1 PUSH1 0x1 PUSH1 0xA0 SHL SUB SWAP1 SWAP2 AND DUP2 MSTORE PUSH1 0x20 SWAP1 RETURN JUMPDEST CALLVALUE PUSH2 0x472 JUMPI PUSH1 0x20 CALLDATASIZE PUSH1 0x3 NOT ADD SLT PUSH2 0x472 JUMPI PUSH1 0x1 PUSH1 0x1 PUSH1 0xA0 SHL SUB PUSH2 0x15AB PUSH2 0x1D7B JUMP JUMPDEST AND PUSH1 0x0 MSTORE PUSH1 0xA PUSH1 0x20 MSTORE PUSH1 0x20 PUSH1 0xFF PUSH1 0x40 PUSH1 0x0 KECCAK256 SLOAD AND PUSH1 0x40 MLOAD SWAP1 ISZERO ISZERO DUP2 MSTORE RETURN JUMPDEST CALLVALUE PUSH2 0x472 JUMPI PUSH1 0x20 SWAP1 DUP2 PUSH1 0x3 NOT CALLDATASIZE ADD SLT PUSH2 0x472 JUMPI PUSH2 0x15E4 PUSH2 0x1D7B JUMP JUMPDEST SWAP1 PUSH1 0x0 PUSH1 0xC0 PUSH1 0x40 MLOAD PUSH2 0x15F5 DUP2 PUSH2 0x1E6D JUMP JUMPDEST DUP3 DUP2 MSTORE DUP3 DUP7 DUP3 ADD MSTORE DUP3 PUSH1 0x40 DUP3 ADD MSTORE PUSH1 0x60 DUP1 DUP3 ADD MSTORE PUSH1 0x60 PUSH1 0x80 DUP3 ADD MSTORE DUP3 PUSH1 0xA0 DUP3 ADD MSTORE ADD MSTORE PUSH1 0x1 DUP1 PUSH1 0xA0 SHL SUB DUP1 SWAP3 AND PUSH1 0x0 MSTORE PUSH1 0x2 DUP4 MSTORE PUSH1 0x40 PUSH1 0x0 KECCAK256 SWAP1 PUSH1 0x40 MLOAD SWAP3 PUSH2 0x163C DUP5 PUSH2 0x1E6D JUMP JUMPDEST DUP3 SLOAD DUP5 MSTORE PUSH1 0x1 DUP4 ADD SLOAD SWAP1 DUP6 DUP6 ADD SWAP2 DUP3 MSTORE PUSH2 0x16DF PUSH1 0x2 DUP6 ADD SLOAD PUSH1 0x40 DUP8 ADD SWAP1 DUP2 MSTORE PUSH2 0x16CC PUSH2 0x166A PUSH1 0x3 DUP9 ADD PUSH2 0x2A33 JUMP JUMPDEST PUSH1 0x60 DUP10 ADD SWAP1 DUP2 MSTORE PUSH2 0x167D PUSH1 0x4 DUP10 ADD PUSH2 0x2A33 JUMP JUMPDEST SWAP3 PUSH1 0x80 DUP11 ADD SWAP4 DUP5 MSTORE PUSH1 0x6 DUP7 PUSH1 0x5 DUP12 ADD SLOAD AND SWAP10 PUSH1 0xA0 DUP13 ADD SWAP11 DUP12 MSTORE ADD SLOAD SWAP7 PUSH1 0xC0 DUP12 ADD SWAP8 DUP9 MSTORE PUSH1 0x40 MLOAD SWAP12 DUP13 SWAP12 DUP2 DUP14 MSTORE MLOAD SWAP1 DUP13 ADD MSTORE MLOAD PUSH1 0x40 DUP12 ADD MSTORE MLOAD PUSH1 0x60 DUP11 ADD MSTORE MLOAD DUP7 PUSH1 0x80 DUP11 ADD MSTORE PUSH2 0x100 DUP10 ADD SWAP1 PUSH2 0x20D6 JUMP JUMPDEST SWAP1 MLOAD DUP8 DUP3 SUB PUSH1 0x1F NOT ADD PUSH1 0xA0 DUP10 ADD MSTORE PUSH2 0x20D6 JUMP JUMPDEST SWAP4 MLOAD AND PUSH1 0xC0 DUP6 ADD MSTORE MLOAD SWAP1 DUP4 ADD MSTORE SUB SWAP1 RETURN JUMPDEST CALLVALUE PUSH2 0x472 JUMPI PUSH1 0x0 CALLDATASIZE PUSH1 0x3 NOT ADD SLT PUSH2 0x472 JUMPI PUSH1 0x40 MLOAD DUP1 PUSH1 0x6 SLOAD DUP1 DUP3 MSTORE DUP3 PUSH1 0x20 DUP1 SWAP4 ADD PUSH1 0x6 PUSH1 0x0 MSTORE PUSH32 0xF652222313E28459528D920B65115C16C04F3EFC82AAEDC97BE59F3F377C0D3F SWAP3 PUSH1 0x0 JUMPDEST DUP6 DUP3 DUP3 LT PUSH2 0x1766 JUMPI POP POP POP PUSH2 0x1752 SWAP3 POP SUB DUP4 PUSH2 0x1EA4 JUMP JUMPDEST PUSH2 0x4C5 PUSH1 0x40 MLOAD SWAP3 DUP3 DUP5 SWAP4 DUP5 MSTORE DUP4 ADD SWAP1 PUSH2 0x2099 JUMP JUMPDEST DUP6 SLOAD PUSH1 0x1 PUSH1 0x1 PUSH1 0xA0 SHL SUB AND DUP5 MSTORE PUSH1 0x1 SWAP6 DUP7 ADD SWAP6 DUP9 SWAP6 POP SWAP4 ADD SWAP3 ADD PUSH2 0x173B JUMP JUMPDEST CALLVALUE PUSH2 0x472 JUMPI PUSH1 0x20 CALLDATASIZE PUSH1 0x3 NOT ADD SLT PUSH2 0x472 JUMPI PUSH1 0x4 CALLDATALOAD PUSH1 0x8 SLOAD DUP2 LT ISZERO PUSH2 0x472 JUMPI PUSH2 0x639 PUSH2 0x4C5 SWAP2 PUSH1 0x8 PUSH1 0x0 MSTORE PUSH32 0xF3F7A9FE364FAAB93B216DA50A3214154F22A0A2B415B23A84C8169E8B636EE3 ADD PUSH2 0x1EC5 JUMP JUMPDEST CALLVALUE PUSH2 0x472 JUMPI PUSH1 0x20 CALLDATASIZE PUSH1 0x3 NOT ADD SLT PUSH2 0x472 JUMPI PUSH1 0x1 PUSH1 0x1 PUSH1 0xA0 SHL SUB PUSH2 0x17F7 PUSH2 0x1D7B JUMP JUMPDEST AND PUSH1 0x0 MSTORE PUSH1 0x12 PUSH1 0x20 MSTORE PUSH2 0x4C5 PUSH2 0x4B1 PUSH1 0x40 PUSH1 0x0 KECCAK256 PUSH2 0x2A33 JUMP JUMPDEST CALLVALUE PUSH2 0x472 JUMPI PUSH1 0x40 CALLDATASIZE PUSH1 0x3 NOT ADD SLT PUSH2 0x472 JUMPI PUSH2 0x1829 PUSH2 0x1D7B JUMP JUMPDEST PUSH1 0x1 PUSH1 0x1 PUSH1 0xA0 SHL SUB AND PUSH1 0x0 SWAP1 DUP2 MSTORE PUSH1 0x12 PUSH1 0x20 MSTORE PUSH1 0x40 SWAP1 KECCAK256 DUP1 SLOAD PUSH1 0x24 CALLDATALOAD SWAP1 DUP2 LT ISZERO PUSH2 0x472 JUMPI PUSH2 0x1375 PUSH2 0x639 SWAP2 PUSH2 0x4C5 SWAP4 PUSH2 0x1DFF JUMP JUMPDEST CALLVALUE PUSH2 0x472 JUMPI PUSH1 0x0 CALLDATASIZE PUSH1 0x3 NOT ADD SLT PUSH2 0x472 JUMPI PUSH1 0x9 SLOAD PUSH1 0x1 PUSH1 0x1 PUSH1 0x40 SHL SUB DUP2 GT PUSH2 0x335 JUMPI PUSH1 0x40 MLOAD SWAP1 PUSH1 0x20 SWAP1 PUSH2 0x1895 DUP3 DUP3 PUSH1 0x5 SHL ADD DUP5 PUSH2 0x1EA4 JUMP JUMPDEST DUP1 DUP4 MSTORE DUP2 DUP4 ADD PUSH1 0x9 PUSH1 0x0 MSTORE PUSH32 0x6E1540171B6C0C960B71A7020D9F60077F6AF931A8BBF590DA0223DACF75C7AF DUP4 PUSH1 0x0 SWAP3 JUMPDEST DUP5 DUP5 LT PUSH2 0x18E0 JUMPI PUSH1 0x40 MLOAD DUP3 DUP2 MSTORE DUP1 PUSH2 0x4C5 DUP2 DUP6 ADD DUP11 PUSH2 0x20D6 JUMP JUMPDEST PUSH1 0x1 SWAP2 DUP3 SWAP2 PUSH2 0x18EE DUP6 PUSH2 0x1EC5 JUMP JUMPDEST DUP2 MSTORE ADD SWAP3 ADD SWAP3 ADD SWAP2 SWAP1 DUP5 SWAP1 PUSH2 0x18C6 JUMP JUMPDEST CALLVALUE PUSH2 0x472 JUMPI PUSH1 0x20 CALLDATASIZE PUSH1 0x3 NOT ADD SLT PUSH2 0x472 JUMPI PUSH1 0x4 CALLDATALOAD SWAP1 PUSH1 0x1 PUSH1 0x1 PUSH1 0x40 SHL SUB DUP3 GT PUSH2 0x472 JUMPI PUSH1 0x9 PUSH2 0x1939 PUSH1 0x20 PUSH2 0x504 PUSH2 0x4C5 SWAP6 CALLDATASIZE SWAP1 PUSH1 0x4 ADD PUSH2 0x1FC4 JUMP JUMPDEST DUP2 ADD PUSH1 0xD DUP2 MSTORE SUB ADD SWAP1 KECCAK256 PUSH1 0x40 MLOAD SWAP3 PUSH2 0x537 DUP5 PUSH2 0x1E51 JUMP JUMPDEST CALLVALUE PUSH2 0x472 JUMPI PUSH2 0x195E CALLDATASIZE PUSH2 0x2132 JUMP JUMPDEST PUSH1 0x40 MLOAD SWAP1 DUP3 MLOAD SWAP1 PUSH1 0x20 SWAP3 DUP4 DUP2 DUP2 DUP8 ADD SWAP5 PUSH2 0x1979 DUP2 DUP4 DUP9 PUSH2 0x1F7C JUMP JUMPDEST DUP2 ADD PUSH1 0xB DUP2 MSTORE SUB ADD SWAP1 KECCAK256 SWAP1 PUSH1 0x5 DUP3 ADD SWAP1 PUSH1 0xFF DUP3 SLOAD AND ISZERO PUSH2 0x19CC JUMPI JUMPDEST PUSH2 0x31D PUSH2 0x19BD DUP7 DUP7 DUP10 DUP8 PUSH1 0x1 DUP1 PUSH1 0xA0 SHL SUB SWAP1 SLOAD AND PUSH1 0x0 MSTORE PUSH1 0xF DUP4 MSTORE PUSH2 0x2FD DUP2 PUSH1 0x40 PUSH1 0x0 KECCAK256 PUSH2 0x28AD JUMP JUMPDEST DUP2 ADD PUSH1 0xB DUP2 MSTORE SUB ADD SWAP1 KECCAK256 PUSH2 0x25AF JUMP JUMPDEST PUSH2 0x19DD PUSH1 0x2 DUP5 SWAP7 SWAP6 SWAP5 ADD SWAP2 DUP3 PUSH2 0x22EE JUMP JUMPDEST PUSH1 0x1 PUSH1 0xFF NOT DUP4 SLOAD AND OR DUP3 SSTORE PUSH1 0x40 MLOAD DUP5 DUP2 DUP9 MLOAD PUSH2 0x19FA DUP2 DUP4 DUP10 PUSH2 0x1F7C JUMP JUMPDEST DUP2 ADD PUSH1 0xC DUP2 MSTORE SUB ADD SWAP1 KECCAK256 SWAP2 DUP6 DUP4 SUB PUSH2 0x1A8E JUMPI JUMPDEST POP POP POP PUSH1 0x1 DUP1 PUSH1 0xA0 SHL SUB SWAP4 DUP5 DUP5 SLOAD AND PUSH1 0x0 MSTORE PUSH1 0x10 DUP4 MSTORE PUSH2 0x1A31 DUP2 PUSH1 0x40 PUSH1 0x0 KECCAK256 PUSH2 0x23B5 JUMP JUMPDEST PUSH1 0x7 SLOAD PUSH1 0x1 PUSH1 0x40 SHL DUP2 LT ISZERO PUSH2 0x335 JUMPI DUP1 PUSH1 0x1 PUSH2 0x1A50 SWAP3 ADD PUSH1 0x7 SSTORE PUSH2 0x1D91 JUMP JUMPDEST SWAP5 SWAP1 SWAP5 PUSH2 0x31F JUMPI PUSH2 0x31D SWAP6 PUSH2 0x1A68 DUP4 PUSH2 0x19BD SWAP8 PUSH2 0x22EE JUMP JUMPDEST DUP2 SLOAD AND PUSH1 0x0 MSTORE PUSH1 0x2 DUP5 MSTORE PUSH2 0x1A83 DUP3 PUSH1 0x3 PUSH1 0x40 PUSH1 0x0 KECCAK256 ADD PUSH2 0x23B5 JUMP JUMPDEST SWAP2 SWAP3 SWAP4 DUP2 SWAP6 POP PUSH2 0x1994 JUMP JUMPDEST DUP6 SLOAD DUP4 SLOAD PUSH1 0x1 PUSH1 0x1 PUSH1 0xA0 SHL SUB NOT SWAP1 DUP2 AND PUSH1 0x1 PUSH1 0x1 PUSH1 0xA0 SHL SUB SWAP3 DUP4 AND OR DUP6 SSTORE PUSH2 0x1B30 SWAP4 PUSH2 0x1ACD SWAP1 PUSH2 0x1AC4 PUSH1 0x1 DUP12 DUP2 ADD SWAP1 DUP10 ADD PUSH2 0x23E2 JUMP JUMPDEST PUSH1 0x2 DUP8 ADD PUSH2 0x23E2 JUMP JUMPDEST PUSH1 0x3 DUP6 ADD SWAP2 PUSH1 0x3 DUP10 ADD SLOAD AND SWAP1 DUP3 SLOAD AND OR SWAP1 SSTORE PUSH2 0x1AEF PUSH1 0x4 DUP8 ADD PUSH1 0x4 DUP6 ADD PUSH2 0x23E2 JUMP JUMPDEST PUSH1 0xFF PUSH1 0x5 DUP5 ADD SWAP2 PUSH2 0x1B0F DUP3 DUP3 SLOAD AND DUP5 SWAP1 PUSH1 0xFF DUP1 NOT DUP4 SLOAD AND SWAP2 ISZERO ISZERO AND OR SWAP1 SSTORE JUMP JUMPDEST DUP1 SLOAD DUP4 SLOAD PUSH2 0xFF00 NOT AND PUSH1 0x8 SWAP2 DUP3 SHR DUP5 AND ISZERO ISZERO SWAP1 SWAP2 SHL PUSH2 0xFF00 AND OR DUP4 SSTORE PUSH2 0x3DB JUMP JUMPDEST PUSH2 0x1B40 PUSH1 0x6 DUP6 ADD PUSH1 0x6 DUP4 ADD PUSH2 0x24BE JUMP JUMPDEST PUSH1 0x7 DUP5 ADD SLOAD PUSH1 0x7 DUP3 ADD SSTORE PUSH1 0x8 DUP5 ADD SLOAD PUSH1 0x8 DUP3 ADD SSTORE PUSH1 0x9 DUP1 DUP6 ADD SLOAD SWAP2 ADD SSTORE DUP5 DUP1 DUP1 PUSH2 0x1A0D JUMP JUMPDEST CALLVALUE PUSH2 0x472 JUMPI PUSH1 0x0 CALLDATASIZE PUSH1 0x3 NOT ADD SLT PUSH2 0x472 JUMPI PUSH1 0x7 SLOAD PUSH1 0x1 PUSH1 0x1 PUSH1 0x40 SHL SUB DUP2 GT PUSH2 0x335 JUMPI PUSH1 0x40 MLOAD SWAP1 PUSH1 0x20 SWAP1 PUSH2 0x1B9D DUP3 DUP3 PUSH1 0x5 SHL ADD DUP5 PUSH2 0x1EA4 JUMP JUMPDEST DUP1 DUP4 MSTORE DUP2 DUP4 ADD PUSH1 0x7 PUSH1 0x0 MSTORE PUSH32 0xA66CC928B5EDB82AF9BD49922954155AB7B0942694BEA4CE44661D9A8736C688 DUP4 PUSH1 0x0 SWAP3 JUMPDEST DUP5 DUP5 LT PUSH2 0x1BE8 JUMPI PUSH1 0x40 MLOAD DUP3 DUP2 MSTORE DUP1 PUSH2 0x4C5 DUP2 DUP6 ADD DUP11 PUSH2 0x20D6 JUMP JUMPDEST PUSH1 0x1 SWAP2 DUP3 SWAP2 PUSH2 0x1BF6 DUP6 PUSH2 0x1EC5 JUMP JUMPDEST DUP2 MSTORE ADD SWAP3 ADD SWAP3 ADD SWAP2 SWAP1 DUP5 SWAP1 PUSH2 0x1BCE JUMP JUMPDEST CALLVALUE PUSH2 0x472 JUMPI PUSH1 0x40 CALLDATASIZE PUSH1 0x3 NOT ADD SLT PUSH2 0x472 JUMPI PUSH2 0x1C1F PUSH2 0x1D7B JUMP JUMPDEST PUSH1 0x1 PUSH1 0x1 PUSH1 0xA0 SHL SUB AND PUSH1 0x0 SWAP1 DUP2 MSTORE PUSH1 0xF PUSH1 0x20 MSTORE PUSH1 0x40 SWAP1 KECCAK256 DUP1 SLOAD PUSH1 0x24 CALLDATALOAD SWAP1 DUP2 LT ISZERO PUSH2 0x472 JUMPI PUSH2 0x1375 PUSH2 0x639 SWAP2 PUSH2 0x4C5 SWAP4 PUSH2 0x1DFF JUMP JUMPDEST CALLVALUE PUSH2 0x472 JUMPI PUSH1 0x0 CALLDATASIZE PUSH1 0x3 NOT ADD SLT PUSH2 0x472 JUMPI PUSH1 0x40 MLOAD DUP1 PUSH1 0x5 SLOAD DUP1 DUP3 MSTORE DUP3 PUSH1 0x20 DUP1 SWAP4 ADD PUSH1 0x5 PUSH1 0x0 MSTORE PUSH32 0x36B6384B5ECA791C62761152D0C79BB0604C104A5FB6F4EB0703F3154BB3DB0 SWAP3 PUSH1 0x0 JUMPDEST DUP6 DUP3 DUP3 LT PUSH2 0x1CB5 JUMPI POP POP POP PUSH2 0x1752 SWAP3 POP SUB DUP4 PUSH2 0x1EA4 JUMP JUMPDEST DUP6 SLOAD PUSH1 0x1 PUSH1 0x1 PUSH1 0xA0 SHL SUB AND DUP5 MSTORE PUSH1 0x1 SWAP6 DUP7 ADD SWAP6 DUP9 SWAP6 POP SWAP4 ADD SWAP3 ADD PUSH2 0x1C9E JUMP JUMPDEST CALLVALUE PUSH2 0x472 JUMPI PUSH1 0x20 CALLDATASIZE PUSH1 0x3 NOT ADD SLT PUSH2 0x472 JUMPI PUSH1 0x4 CALLDATALOAD PUSH1 0x1 PUSH1 0x1 PUSH1 0x40 SHL SUB DUP2 GT PUSH2 0x472 JUMPI PUSH1 0x20 PUSH2 0xD64 PUSH2 0x1D09 SWAP3 CALLDATASIZE SWAP1 PUSH1 0x4 ADD PUSH2 0x1FC4 JUMP JUMPDEST DUP2 ADD PUSH1 0xD DUP2 MSTORE SUB ADD SWAP1 KECCAK256 PUSH1 0x1 DUP1 PUSH1 0xA0 SHL SUB PUSH2 0x4C5 DUP2 DUP4 SLOAD AND SWAP3 PUSH2 0x1178 PUSH1 0x1 DUP3 ADD PUSH2 0x1EC5 JUMP JUMPDEST CALLVALUE PUSH2 0x472 JUMPI PUSH1 0x40 CALLDATASIZE PUSH1 0x3 NOT ADD SLT PUSH2 0x472 JUMPI PUSH2 0x1D47 PUSH2 0x1D7B JUMP JUMPDEST PUSH1 0x1 PUSH1 0x1 PUSH1 0xA0 SHL SUB AND PUSH1 0x0 SWAP1 DUP2 MSTORE PUSH1 0x10 PUSH1 0x20 MSTORE PUSH1 0x40 SWAP1 KECCAK256 DUP1 SLOAD PUSH1 0x24 CALLDATALOAD SWAP1 DUP2 LT ISZERO PUSH2 0x472 JUMPI PUSH2 0x1375 PUSH2 0x639 SWAP2 PUSH2 0x4C5 SWAP4 PUSH2 0x1DFF JUMP JUMPDEST PUSH1 0x4 CALLDATALOAD SWAP1 PUSH1 0x1 PUSH1 0x1 PUSH1 0xA0 SHL SUB DUP3 AND DUP3 SUB PUSH2 0x472 JUMPI JUMP JUMPDEST PUSH1 0x7 SLOAD DUP2 LT ISZERO PUSH2 0x7D9 JUMPI PUSH1 0x7 PUSH1 0x0 MSTORE PUSH32 0xA66CC928B5EDB82AF9BD49922954155AB7B0942694BEA4CE44661D9A8736C688 ADD SWAP1 PUSH1 0x0 SWAP1 JUMP JUMPDEST PUSH1 0x8 SLOAD DUP2 LT ISZERO PUSH2 0x7D9 JUMPI PUSH1 0x8 PUSH1 0x0 MSTORE PUSH32 0xF3F7A9FE364FAAB93B216DA50A3214154F22A0A2B415B23A84C8169E8B636EE3 ADD SWAP1 PUSH1 0x0 SWAP1 JUMP JUMPDEST DUP1 SLOAD DUP3 LT ISZERO PUSH2 0x7D9 JUMPI PUSH1 0x0 MSTORE PUSH1 0x20 PUSH1 0x0 KECCAK256 ADD SWAP1 PUSH1 0x0 SWAP1 JUMP JUMPDEST SWAP1 PUSH1 0x1 DUP3 DUP2 SHR SWAP3 AND DUP1 ISZERO PUSH2 0x1E47 JUMPI JUMPDEST PUSH1 0x20 DUP4 LT EQ PUSH2 0x1E31 JUMPI JUMP JUMPDEST PUSH4 0x4E487B71 PUSH1 0xE0 SHL PUSH1 0x0 MSTORE PUSH1 0x22 PUSH1 0x4 MSTORE PUSH1 0x24 PUSH1 0x0 REVERT JUMPDEST SWAP2 PUSH1 0x7F AND SWAP2 PUSH2 0x1E26 JUMP JUMPDEST PUSH2 0x180 DUP2 ADD SWAP1 DUP2 LT PUSH1 0x1 PUSH1 0x1 PUSH1 0x40 SHL SUB DUP3 GT OR PUSH2 0x335 JUMPI PUSH1 0x40 MSTORE JUMP JUMPDEST PUSH1 0xE0 DUP2 ADD SWAP1 DUP2 LT PUSH1 0x1 PUSH1 0x1 PUSH1 0x40 SHL SUB DUP3 GT OR PUSH2 0x335 JUMPI PUSH1 0x40 MSTORE JUMP JUMPDEST PUSH2 0x100 DUP2 ADD SWAP1 DUP2 LT PUSH1 0x1 PUSH1 0x1 PUSH1 0x40 SHL SUB DUP3 GT OR PUSH2 0x335 JUMPI PUSH1 0x40 MSTORE JUMP JUMPDEST SWAP1 PUSH1 0x1F DUP1 NOT SWAP2 ADD AND DUP2 ADD SWAP1 DUP2 LT PUSH1 0x1 PUSH1 0x1 PUSH1 0x40 SHL SUB DUP3 GT OR PUSH2 0x335 JUMPI PUSH1 0x40 MSTORE JUMP JUMPDEST SWAP1 PUSH1 0x40 MLOAD SWAP2 DUP3 PUSH1 0x0 DUP3 SLOAD SWAP3 PUSH2 0x1ED9 DUP5 PUSH2 0x1E17 JUMP JUMPDEST SWAP1 DUP2 DUP5 MSTORE PUSH1 0x1 SWAP5 DUP6 DUP2 AND SWAP1 DUP2 PUSH1 0x0 EQ PUSH2 0x1F48 JUMPI POP PUSH1 0x1 EQ PUSH2 0x1F05 JUMPI JUMPDEST POP POP PUSH2 0x1F03 SWAP3 POP SUB DUP4 PUSH2 0x1EA4 JUMP JUMPDEST JUMP JUMPDEST SWAP1 SWAP4 SWAP2 POP PUSH1 0x0 MSTORE PUSH1 0x20 SWAP1 DUP2 PUSH1 0x0 KECCAK256 SWAP4 PUSH1 0x0 SWAP2 JUMPDEST DUP2 DUP4 LT PUSH2 0x1F30 JUMPI POP POP PUSH2 0x1F03 SWAP4 POP DUP3 ADD ADD CODESIZE DUP1 PUSH2 0x1EF5 JUMP JUMPDEST DUP6 SLOAD DUP9 DUP5 ADD DUP6 ADD MSTORE SWAP5 DUP6 ADD SWAP5 DUP8 SWAP5 POP SWAP2 DUP4 ADD SWAP2 PUSH2 0x1F18 JUMP JUMPDEST SWAP2 POP POP PUSH2 0x1F03 SWAP5 POP PUSH1 0x20 SWAP3 POP PUSH1 0xFF NOT AND DUP3 DUP5 ADD MSTORE ISZERO ISZERO PUSH1 0x5 SHL DUP3 ADD ADD CODESIZE DUP1 PUSH2 0x1EF5 JUMP JUMPDEST SWAP1 PUSH2 0x31F JUMPI PUSH2 0x1F79 SWAP1 PUSH2 0x1EC5 JUMP JUMPDEST SWAP1 JUMP JUMPDEST PUSH1 0x0 JUMPDEST DUP4 DUP2 LT PUSH2 0x1F8F JUMPI POP POP PUSH1 0x0 SWAP2 ADD MSTORE JUMP JUMPDEST DUP2 DUP2 ADD MLOAD DUP4 DUP3 ADD MSTORE PUSH1 0x20 ADD PUSH2 0x1F7F JUMP JUMPDEST SWAP1 PUSH1 0x20 SWAP2 PUSH2 0x1FB8 DUP2 MLOAD DUP1 SWAP3 DUP2 DUP6 MSTORE DUP6 DUP1 DUP7 ADD SWAP2 ADD PUSH2 0x1F7C JUMP JUMPDEST PUSH1 0x1F ADD PUSH1 0x1F NOT AND ADD ADD SWAP1 JUMP JUMPDEST DUP2 PUSH1 0x1F DUP3 ADD SLT ISZERO PUSH2 0x472 JUMPI DUP1 CALLDATALOAD SWAP1 PUSH1 0x1 PUSH1 0x1 PUSH1 0x40 SHL SUB DUP3 GT PUSH2 0x335 JUMPI PUSH1 0x40 MLOAD SWAP3 PUSH2 0x1FF8 PUSH1 0x1F DUP5 ADD PUSH1 0x1F NOT AND PUSH1 0x20 ADD DUP6 PUSH2 0x1EA4 JUMP JUMPDEST DUP3 DUP5 MSTORE PUSH1 0x20 DUP4 DUP4 ADD ADD GT PUSH2 0x472 JUMPI DUP2 PUSH1 0x0 SWAP3 PUSH1 0x20 DUP1 SWAP4 ADD DUP4 DUP7 ADD CALLDATACOPY DUP4 ADD ADD MSTORE SWAP1 JUMP JUMPDEST SWAP8 SWAP5 SWAP1 PUSH2 0x205F PUSH2 0x2073 SWAP5 PUSH2 0x2051 PUSH2 0x140 SWAP13 SWAP10 SWAP16 SWAP15 SWAP14 SWAP11 SWAP8 SWAP6 PUSH1 0x1 DUP1 PUSH1 0xA0 SHL SUB DUP1 SWAP6 AND DUP14 MSTORE PUSH1 0x20 DUP14 PUSH2 0x160 SWAP2 DUP3 SWAP2 ADD MSTORE DUP14 ADD SWAP1 PUSH2 0x1F9F JUMP JUMPDEST SWAP1 DUP12 DUP3 SUB PUSH1 0x40 DUP14 ADD MSTORE PUSH2 0x1F9F JUMP JUMPDEST SWAP3 AND PUSH1 0x60 DUP10 ADD MSTORE DUP8 DUP3 SUB PUSH1 0x80 DUP10 ADD MSTORE PUSH2 0x1F9F JUMP JUMPDEST SWAP9 ISZERO ISZERO PUSH1 0xA0 DUP7 ADD MSTORE ISZERO ISZERO PUSH1 0xC0 DUP6 ADD MSTORE ISZERO ISZERO PUSH1 0xE0 DUP5 ADD MSTORE PUSH2 0x100 DUP4 ADD MSTORE PUSH2 0x120 DUP3 ADD MSTORE ADD MSTORE JUMP JUMPDEST SWAP1 DUP2 MLOAD DUP1 DUP3 MSTORE PUSH1 0x20 DUP1 DUP1 SWAP4 ADD SWAP4 ADD SWAP2 PUSH1 0x0 JUMPDEST DUP3 DUP2 LT PUSH2 0x20B9 JUMPI POP POP POP POP SWAP1 JUMP JUMPDEST DUP4 MLOAD PUSH1 0x1 PUSH1 0x1 PUSH1 0xA0 SHL SUB AND DUP6 MSTORE SWAP4 DUP2 ADD SWAP4 SWAP3 DUP2 ADD SWAP3 PUSH1 0x1 ADD PUSH2 0x20AB JUMP JUMPDEST SWAP1 DUP1 DUP3 MLOAD SWAP1 DUP2 DUP2 MSTORE PUSH1 0x20 DUP1 SWAP2 ADD SWAP3 DUP2 DUP1 DUP5 PUSH1 0x5 SHL DUP4 ADD ADD SWAP6 ADD SWAP4 PUSH1 0x0 SWAP2 JUMPDEST DUP5 DUP4 LT PUSH2 0x2104 JUMPI POP POP POP POP POP POP SWAP1 JUMP JUMPDEST SWAP1 SWAP2 SWAP3 SWAP4 SWAP5 SWAP6 DUP5 DUP1 PUSH2 0x2122 PUSH1 0x1 SWAP4 PUSH1 0x1F NOT DUP7 DUP3 SUB ADD DUP8 MSTORE DUP11 MLOAD PUSH2 0x1F9F JUMP JUMPDEST SWAP9 ADD SWAP4 ADD SWAP4 ADD SWAP2 SWAP5 SWAP4 SWAP3 SWAP1 PUSH2 0x20F4 JUMP JUMPDEST SWAP1 PUSH1 0x40 PUSH1 0x3 NOT DUP4 ADD SLT PUSH2 0x472 JUMPI PUSH1 0x1 PUSH1 0x1 PUSH1 0x40 SHL SUB PUSH1 0x4 CALLDATALOAD DUP2 DUP2 GT PUSH2 0x472 JUMPI DUP4 PUSH2 0x215E SWAP2 PUSH1 0x4 ADD PUSH2 0x1FC4 JUMP JUMPDEST SWAP3 PUSH1 0x24 CALLDATALOAD SWAP2 DUP3 GT PUSH2 0x472 JUMPI PUSH2 0x1F79 SWAP2 PUSH1 0x4 ADD PUSH2 0x1FC4 JUMP JUMPDEST PUSH1 0x20 DUP2 MSTORE PUSH1 0x1 DUP1 PUSH1 0xA0 SHL SUB SWAP2 DUP3 DUP2 MLOAD AND PUSH1 0x20 DUP4 ADD MSTORE PUSH1 0x20 DUP2 ADD MLOAD SWAP1 PUSH2 0x2226 PUSH2 0x21EB PUSH2 0x21AE PUSH2 0x180 SWAP5 DUP6 PUSH1 0x40 DUP9 ADD MSTORE PUSH2 0x1A0 DUP8 ADD SWAP1 PUSH2 0x1F9F JUMP JUMPDEST SWAP6 PUSH2 0x21CB PUSH1 0x40 DUP6 ADD MLOAD SWAP8 PUSH1 0x1F NOT SWAP9 DUP10 DUP10 DUP4 SUB ADD PUSH1 0x60 DUP11 ADD MSTORE PUSH2 0x1F9F JUMP JUMPDEST SWAP1 PUSH1 0x60 DUP6 ADD MLOAD AND PUSH1 0x80 DUP8 ADD MSTORE PUSH1 0x80 DUP5 ADD MLOAD DUP8 DUP8 DUP4 SUB ADD PUSH1 0xA0 DUP9 ADD MSTORE PUSH2 0x1F9F JUMP JUMPDEST PUSH1 0xA0 DUP4 ADD MLOAD ISZERO ISZERO PUSH1 0xC0 DUP7 ADD MSTORE PUSH1 0xC0 DUP4 ADD MLOAD ISZERO ISZERO PUSH1 0xE0 DUP7 ADD MSTORE PUSH1 0xE0 DUP4 ADD MLOAD ISZERO ISZERO PUSH2 0x100 SWAP1 DUP2 DUP8 ADD MSTORE DUP4 ADD MLOAD PUSH2 0x120 SWAP7 DUP7 DUP4 SUB ADD DUP8 DUP8 ADD MSTORE PUSH2 0x2099 JUMP JUMPDEST SWAP4 DUP2 ADD MLOAD PUSH2 0x140 SWAP1 DUP2 DUP6 ADD MSTORE DUP2 ADD MLOAD SWAP1 PUSH2 0x160 SWAP2 DUP3 DUP6 ADD MSTORE ADD MLOAD SWAP2 ADD MSTORE SWAP1 JUMP JUMPDEST ISZERO PUSH2 0x224D JUMPI JUMP JUMPDEST PUSH1 0x40 MLOAD PUSH3 0x461BCD PUSH1 0xE5 SHL DUP2 MSTORE PUSH1 0x20 PUSH1 0x4 DUP3 ADD MSTORE PUSH1 0x1A PUSH1 0x24 DUP3 ADD MSTORE PUSH32 0x796F7520617265206E6F7420746865206B766B206D656D626572000000000000 PUSH1 0x44 DUP3 ADD MSTORE PUSH1 0x64 SWAP1 REVERT JUMPDEST DUP2 DUP2 LT PUSH2 0x229D JUMPI POP POP JUMP JUMPDEST PUSH1 0x0 DUP2 SSTORE PUSH1 0x1 ADD PUSH2 0x2292 JUMP JUMPDEST SWAP2 SWAP1 PUSH1 0x1F DUP2 GT PUSH2 0x22B8 JUMPI POP POP POP JUMP JUMPDEST PUSH2 0x1F03 SWAP3 PUSH1 0x0 MSTORE PUSH1 0x20 PUSH1 0x0 KECCAK256 SWAP1 PUSH1 0x20 PUSH1 0x1F DUP5 ADD PUSH1 0x5 SHR DUP4 ADD SWAP4 LT PUSH2 0x22E4 JUMPI JUMPDEST PUSH1 0x1F ADD PUSH1 0x5 SHR ADD SWAP1 PUSH2 0x2292 JUMP JUMPDEST SWAP1 SWAP2 POP DUP2 SWAP1 PUSH2 0x22D7 JUMP JUMPDEST SWAP2 SWAP1 SWAP2 DUP3 MLOAD PUSH1 0x1 PUSH1 0x1 PUSH1 0x40 SHL SUB DUP2 GT PUSH2 0x335 JUMPI PUSH2 0x2315 DUP2 PUSH2 0x230F DUP5 SLOAD PUSH2 0x1E17 JUMP JUMPDEST DUP5 PUSH2 0x22A9 JUMP JUMPDEST PUSH1 0x20 DUP1 PUSH1 0x1F DUP4 GT PUSH1 0x1 EQ PUSH2 0x2351 JUMPI POP DUP2 SWAP3 SWAP4 SWAP5 PUSH1 0x0 SWAP3 PUSH2 0x2346 JUMPI JUMPDEST POP POP DUP2 PUSH1 0x1 SHL SWAP2 PUSH1 0x0 NOT SWAP1 PUSH1 0x3 SHL SHR NOT AND OR SWAP1 SSTORE JUMP JUMPDEST ADD MLOAD SWAP1 POP CODESIZE DUP1 PUSH2 0x2330 JUMP JUMPDEST SWAP1 PUSH1 0x1F NOT DUP4 AND SWAP6 DUP5 PUSH1 0x0 MSTORE DUP3 PUSH1 0x0 KECCAK256 SWAP3 PUSH1 0x0 SWAP1 JUMPDEST DUP9 DUP3 LT PUSH2 0x239D JUMPI POP POP DUP4 PUSH1 0x1 SWAP6 SWAP7 SWAP8 LT PUSH2 0x2384 JUMPI JUMPDEST POP POP POP DUP2 SHL ADD SWAP1 SSTORE JUMP JUMPDEST ADD MLOAD PUSH1 0x0 NOT PUSH1 0xF8 DUP5 PUSH1 0x3 SHL AND SHR NOT AND SWAP1 SSTORE CODESIZE DUP1 DUP1 PUSH2 0x237A JUMP JUMPDEST DUP1 PUSH1 0x1 DUP6 SWAP7 DUP3 SWAP5 SWAP7 DUP7 ADD MLOAD DUP2 SSTORE ADD SWAP6 ADD SWAP4 ADD SWAP1 PUSH2 0x2365 JUMP JUMPDEST DUP1 SLOAD PUSH1 0x1 PUSH1 0x40 SHL DUP2 LT ISZERO PUSH2 0x335 JUMPI PUSH2 0x23D2 SWAP2 PUSH1 0x1 DUP3 ADD DUP2 SSTORE PUSH2 0x1DFF JUMP JUMPDEST SWAP2 SWAP1 SWAP2 PUSH2 0x31F JUMPI PUSH2 0x1F03 SWAP2 PUSH2 0x22EE JUMP JUMPDEST SWAP1 DUP1 DUP3 EQ PUSH2 0x24BA JUMPI PUSH2 0x23F4 DUP2 SLOAD PUSH2 0x1E17 JUMP JUMPDEST SWAP1 PUSH1 0x1 PUSH1 0x1 PUSH1 0x40 SHL SUB DUP3 GT PUSH2 0x335 JUMPI DUP2 SWAP1 PUSH2 0x2419 DUP3 PUSH2 0x2413 DUP7 SLOAD PUSH2 0x1E17 JUMP JUMPDEST DUP7 PUSH2 0x22A9 JUMP JUMPDEST PUSH1 0x0 SWAP1 PUSH1 0x1F DUP4 GT PUSH1 0x1 EQ PUSH2 0x244F JUMPI PUSH1 0x0 SWAP3 PUSH2 0x2444 JUMPI POP POP DUP2 PUSH1 0x1 SHL SWAP2 PUSH1 0x0 NOT SWAP1 PUSH1 0x3 SHL SHR NOT AND OR SWAP1 SSTORE JUMP JUMPDEST ADD SLOAD SWAP1 POP CODESIZE DUP1 PUSH2 0x2330 JUMP JUMPDEST DUP2 MSTORE PUSH1 0x20 DUP1 DUP3 KECCAK256 DUP6 DUP4 MSTORE DUP2 DUP4 KECCAK256 SWAP4 POP SWAP1 PUSH1 0x1F NOT DUP6 AND SWAP1 DUP4 SWAP1 JUMPDEST DUP3 DUP3 LT PUSH2 0x24A1 JUMPI POP POP SWAP1 DUP5 PUSH1 0x1 SWAP6 SWAP5 SWAP4 SWAP3 LT PUSH2 0x2488 JUMPI POP POP POP DUP2 SHL ADD SWAP1 SSTORE JUMP JUMPDEST ADD SLOAD PUSH1 0x0 NOT PUSH1 0xF8 DUP5 PUSH1 0x3 SHL AND SHR NOT AND SWAP1 SSTORE CODESIZE DUP1 DUP1 PUSH2 0x237A JUMP JUMPDEST DUP5 SWAP6 DUP2 SWAP3 SWAP6 DUP6 ADD SLOAD DUP2 SSTORE PUSH1 0x1 DUP1 SWAP2 ADD SWAP7 ADD SWAP5 ADD SWAP1 PUSH2 0x2468 JUMP JUMPDEST POP POP JUMP JUMPDEST DUP2 DUP2 EQ PUSH2 0x24BA JUMPI DUP2 SLOAD SWAP2 PUSH1 0x1 PUSH1 0x1 PUSH1 0x40 SHL SUB DUP4 GT PUSH2 0x335 JUMPI PUSH1 0x1 PUSH1 0x40 SHL DUP4 GT PUSH2 0x335 JUMPI DUP2 SLOAD DUP4 DUP4 SSTORE DUP1 DUP5 LT PUSH2 0x2536 JUMPI JUMPDEST POP PUSH1 0x0 MSTORE PUSH1 0x20 PUSH1 0x0 KECCAK256 SWAP1 PUSH1 0x0 MSTORE PUSH1 0x20 PUSH1 0x0 KECCAK256 DUP2 SLOAD SWAP2 PUSH1 0x0 SWAP3 JUMPDEST DUP5 DUP5 LT PUSH2 0x2515 JUMPI POP POP POP POP POP JUMP JUMPDEST PUSH1 0x1 SWAP2 DUP3 ADD DUP1 SLOAD PUSH1 0x1 PUSH1 0x1 PUSH1 0xA0 SHL SUB SWAP1 SWAP3 AND DUP5 DUP7 ADD SSTORE SWAP4 SWAP1 SWAP2 ADD SWAP3 SWAP1 PUSH2 0x2507 JUMP JUMPDEST PUSH2 0x254E SWAP1 DUP4 PUSH1 0x0 MSTORE DUP5 PUSH1 0x20 PUSH1 0x0 KECCAK256 SWAP2 DUP3 ADD SWAP2 ADD PUSH2 0x2292 JUMP JUMPDEST CODESIZE PUSH2 0x24EE JUMP JUMPDEST PUSH2 0x255E DUP2 SLOAD PUSH2 0x1E17 JUMP JUMPDEST SWAP1 DUP2 PUSH2 0x2568 JUMPI POP POP JUMP JUMPDEST DUP2 PUSH1 0x1F PUSH1 0x0 SWAP4 GT PUSH1 0x1 EQ PUSH2 0x257A JUMPI POP SSTORE JUMP JUMPDEST DUP2 DUP4 MSTORE PUSH1 0x20 DUP4 KECCAK256 PUSH2 0x2596 SWAP2 PUSH1 0x1F ADD PUSH1 0x5 SHR DUP2 ADD SWAP1 PUSH1 0x1 ADD PUSH2 0x2292 JUMP JUMPDEST DUP2 PUSH1 0x20 DUP2 KECCAK256 SWAP2 SSTORE SSTORE JUMP JUMPDEST SWAP1 PUSH2 0x31F JUMPI PUSH2 0x255E DUP2 SLOAD PUSH2 0x1E17 JUMP JUMPDEST PUSH1 0x9 PUSH1 0x0 SWAP2 DUP3 DUP2 SSTORE PUSH2 0x25C3 PUSH1 0x1 DUP3 ADD PUSH2 0x2554 JUMP JUMPDEST PUSH2 0x25CF PUSH1 0x2 DUP3 ADD PUSH2 0x2554 JUMP JUMPDEST DUP3 PUSH1 0x3 DUP3 ADD SSTORE PUSH2 0x25E1 PUSH1 0x4 DUP3 ADD PUSH2 0x2554 JUMP JUMPDEST DUP3 PUSH1 0x5 DUP3 ADD SSTORE PUSH1 0x6 DUP2 ADD DUP1 SLOAD DUP5 DUP3 SSTORE DUP1 PUSH2 0x2608 JUMPI JUMPDEST POP POP DUP3 PUSH1 0x7 DUP3 ADD SSTORE DUP3 PUSH1 0x8 DUP3 ADD SSTORE ADD SSTORE JUMP JUMPDEST PUSH2 0x261B SWAP2 DUP6 MSTORE PUSH1 0x20 DUP6 KECCAK256 SWAP1 DUP2 ADD SWAP1 PUSH2 0x2292 JUMP JUMPDEST CODESIZE DUP1 PUSH2 0x25F6 JUMP JUMPDEST PUSH1 0x0 NOT DUP2 EQ PUSH2 0xCD7 JUMPI PUSH1 0x1 ADD SWAP1 JUMP JUMPDEST DUP1 MLOAD PUSH1 0x20 DUP1 SWAP3 ADD KECCAK256 PUSH1 0x0 JUMPDEST PUSH1 0x8 DUP1 SLOAD DUP1 DUP4 LT ISZERO PUSH2 0x277B JUMPI DUP4 PUSH2 0x2652 DUP5 PUSH2 0x1DC8 JUMP JUMPDEST POP PUSH1 0x40 MLOAD PUSH1 0x0 DUP3 SLOAD PUSH2 0x2663 DUP2 PUSH2 0x1E17 JUMP JUMPDEST DUP1 DUP5 MSTORE DUP11 DUP5 ADD SWAP5 PUSH1 0x1 SWAP3 DUP6 DUP14 DUP6 DUP4 AND SWAP3 DUP4 PUSH1 0x0 EQ PUSH2 0x275A JUMPI POP POP POP PUSH1 0x1 EQ PUSH2 0x2717 JUMPI JUMPDEST POP POP POP DUP2 PUSH2 0x2695 SWAP2 SUB DUP3 PUSH2 0x1EA4 JUMP JUMPDEST MLOAD SWAP1 KECCAK256 EQ PUSH2 0x26AD JUMPI POP POP PUSH2 0x26A8 SWAP1 PUSH2 0x2622 JUMP JUMPDEST PUSH2 0x263C JUMP JUMPDEST SWAP1 SWAP4 POP PUSH1 0x0 NOT SWAP3 POP DUP3 DUP2 ADD SWAP1 DUP2 GT PUSH2 0xCD7 JUMPI PUSH2 0x26CB PUSH2 0x26D2 SWAP2 PUSH2 0x1DC8 JUMP JUMPDEST POP SWAP2 PUSH2 0x1DC8 JUMP JUMPDEST SWAP2 SWAP1 SWAP2 PUSH2 0x31F JUMPI PUSH2 0x26E2 SWAP2 PUSH2 0x23E2 JUMP JUMPDEST DUP2 SLOAD DUP1 ISZERO PUSH2 0x2701 JUMPI ADD SWAP1 PUSH2 0x26FE PUSH2 0x26F8 DUP4 PUSH2 0x1DC8 JUMP JUMPDEST SWAP1 PUSH2 0x25A0 JUMP JUMPDEST SSTORE JUMP JUMPDEST PUSH4 0x4E487B71 PUSH1 0xE0 SHL PUSH1 0x0 MSTORE PUSH1 0x31 PUSH1 0x4 MSTORE PUSH1 0x24 PUSH1 0x0 REVERT JUMPDEST SWAP2 SWAP4 SWAP5 SWAP6 POP SWAP2 POP PUSH1 0x0 MSTORE DUP9 PUSH1 0x0 KECCAK256 SWAP2 PUSH1 0x0 SWAP3 JUMPDEST DUP3 DUP5 LT PUSH2 0x2747 JUMPI POP POP POP SWAP1 PUSH2 0x2695 DUP2 DUP10 DUP10 SWAP6 SWAP5 DUP3 ADD ADD SWAP2 CODESIZE PUSH2 0x2686 JUMP JUMPDEST DUP1 SLOAD DUP5 DUP7 ADD DUP13 ADD MSTORE SWAP3 DUP11 ADD SWAP3 DUP2 ADD PUSH2 0x272A JUMP JUMPDEST SWAP3 POP SWAP4 SWAP3 POP SWAP4 POP PUSH2 0x2695 SWAP5 POP PUSH1 0xFF NOT AND DUP7 MSTORE ISZERO ISZERO PUSH1 0x5 SHL DUP3 ADD ADD SWAP2 CODESIZE PUSH2 0x2686 JUMP JUMPDEST POP POP POP POP POP JUMP JUMPDEST DUP1 MLOAD PUSH1 0x20 DUP1 SWAP3 ADD KECCAK256 PUSH1 0x0 JUMPDEST PUSH1 0x7 DUP1 SLOAD DUP1 DUP4 LT ISZERO PUSH2 0x277B JUMPI DUP4 PUSH2 0x27A3 DUP5 PUSH2 0x1D91 JUMP JUMPDEST POP PUSH1 0x40 MLOAD PUSH1 0x0 DUP3 SLOAD PUSH2 0x27B4 DUP2 PUSH2 0x1E17 JUMP JUMPDEST DUP1 DUP5 MSTORE DUP11 DUP5 ADD SWAP5 PUSH1 0x1 SWAP3 DUP6 DUP14 DUP6 DUP4 AND SWAP3 DUP4 PUSH1 0x0 EQ PUSH2 0x288C JUMPI POP POP POP PUSH1 0x1 EQ PUSH2 0x2849 JUMPI JUMPDEST POP POP POP DUP2 PUSH2 0x27E6 SWAP2 SUB DUP3 PUSH2 0x1EA4 JUMP JUMPDEST MLOAD SWAP1 KECCAK256 EQ PUSH2 0x27FE JUMPI POP POP PUSH2 0x27F9 SWAP1 PUSH2 0x2622 JUMP JUMPDEST PUSH2 0x278D JUMP JUMPDEST SWAP1 SWAP4 POP PUSH1 0x0 NOT SWAP3 POP DUP3 DUP2 ADD SWAP1 DUP2 GT PUSH2 0xCD7 JUMPI PUSH2 0x281C PUSH2 0x2823 SWAP2 PUSH2 0x1D91 JUMP JUMPDEST POP SWAP2 PUSH2 0x1D91 JUMP JUMPDEST SWAP2 SWAP1 SWAP2 PUSH2 0x31F JUMPI PUSH2 0x2833 SWAP2 PUSH2 0x23E2 JUMP JUMPDEST DUP2 SLOAD DUP1 ISZERO PUSH2 0x2701 JUMPI ADD SWAP1 PUSH2 0x26FE PUSH2 0x26F8 DUP4 PUSH2 0x1D91 JUMP JUMPDEST SWAP2 SWAP4 SWAP5 SWAP6 POP SWAP2 POP PUSH1 0x0 MSTORE DUP9 PUSH1 0x0 KECCAK256 SWAP2 PUSH1 0x0 SWAP3 JUMPDEST DUP3 DUP5 LT PUSH2 0x2879 JUMPI POP POP POP SWAP1 PUSH2 0x27E6 DUP2 DUP10 DUP10 SWAP6 SWAP5 DUP3 ADD ADD SWAP2 CODESIZE PUSH2 0x27D7 JUMP JUMPDEST DUP1 SLOAD DUP5 DUP7 ADD DUP13 ADD MSTORE SWAP3 DUP11 ADD SWAP3 DUP2 ADD PUSH2 0x285C JUMP JUMPDEST SWAP3 POP SWAP4 SWAP3 POP SWAP4 POP PUSH2 0x27E6 SWAP5 POP PUSH1 0xFF NOT AND DUP7 MSTORE ISZERO ISZERO PUSH1 0x5 SHL DUP3 ADD ADD SWAP2 CODESIZE PUSH2 0x27D7 JUMP JUMPDEST DUP2 MLOAD PUSH1 0x20 DUP1 SWAP4 ADD KECCAK256 SWAP2 PUSH1 0x0 JUMPDEST DUP3 SLOAD DUP1 DUP3 LT ISZERO PUSH2 0x277B JUMPI DUP5 PUSH2 0x28CE DUP4 DUP7 PUSH2 0x1DFF JUMP JUMPDEST POP PUSH1 0x40 MLOAD PUSH1 0x0 DUP3 SLOAD PUSH2 0x28DF DUP2 PUSH2 0x1E17 JUMP JUMPDEST DUP1 DUP5 MSTORE DUP9 DUP5 ADD SWAP5 PUSH1 0x1 SWAP3 DUP6 DUP12 DUP6 DUP4 AND SWAP3 DUP4 PUSH1 0x0 EQ PUSH2 0x29BA JUMPI POP POP POP PUSH1 0x1 EQ PUSH2 0x2977 JUMPI JUMPDEST POP POP POP DUP2 PUSH2 0x2911 SWAP2 SUB DUP3 PUSH2 0x1EA4 JUMP JUMPDEST MLOAD SWAP1 KECCAK256 EQ PUSH2 0x2928 JUMPI POP PUSH2 0x2923 SWAP1 PUSH2 0x2622 JUMP JUMPDEST PUSH2 0x28B9 JUMP JUMPDEST SWAP3 SWAP4 POP SWAP1 POP PUSH1 0x0 NOT SWAP2 DUP3 DUP2 ADD SWAP1 DUP2 GT PUSH2 0xCD7 JUMPI PUSH2 0x2948 PUSH2 0x2950 SWAP2 DUP6 PUSH2 0x1DFF JUMP JUMPDEST POP SWAP2 DUP5 PUSH2 0x1DFF JUMP JUMPDEST SWAP2 SWAP1 SWAP2 PUSH2 0x31F JUMPI PUSH2 0x2960 SWAP2 PUSH2 0x23E2 JUMP JUMPDEST DUP2 SLOAD DUP1 ISZERO PUSH2 0x2701 JUMPI ADD SWAP1 PUSH2 0x26FE PUSH2 0x26F8 DUP4 DUP4 PUSH2 0x1DFF JUMP JUMPDEST SWAP2 SWAP4 SWAP5 SWAP6 POP SWAP2 POP PUSH1 0x0 MSTORE DUP7 PUSH1 0x0 KECCAK256 SWAP2 PUSH1 0x0 SWAP3 JUMPDEST DUP3 DUP5 LT PUSH2 0x29A7 JUMPI POP POP POP SWAP1 PUSH2 0x2911 DUP2 DUP8 DUP11 SWAP6 SWAP5 DUP3 ADD ADD SWAP2 CODESIZE PUSH2 0x2902 JUMP JUMPDEST DUP1 SLOAD DUP5 DUP7 ADD DUP11 ADD MSTORE SWAP3 DUP9 ADD SWAP3 DUP2 ADD PUSH2 0x298A JUMP JUMPDEST SWAP3 POP SWAP4 SWAP3 POP SWAP4 POP PUSH2 0x2911 SWAP5 POP PUSH1 0xFF NOT AND DUP7 MSTORE ISZERO ISZERO PUSH1 0x5 SHL DUP3 ADD ADD SWAP2 CODESIZE PUSH2 0x2902 JUMP JUMPDEST SWAP1 PUSH1 0x40 MLOAD SWAP2 DUP3 DUP2 SLOAD SWAP2 DUP3 DUP3 MSTORE PUSH1 0x20 SWAP3 DUP4 DUP4 ADD SWAP2 PUSH1 0x0 MSTORE DUP4 PUSH1 0x0 KECCAK256 SWAP4 PUSH1 0x0 SWAP1 JUMPDEST DUP3 DUP3 LT PUSH2 0x2A10 JUMPI POP POP POP PUSH2 0x1F03 SWAP3 POP SUB DUP4 PUSH2 0x1EA4 JUMP JUMPDEST DUP6 SLOAD PUSH1 0x1 PUSH1 0x1 PUSH1 0xA0 SHL SUB AND DUP5 MSTORE PUSH1 0x1 SWAP6 DUP7 ADD SWAP6 DUP9 SWAP6 POP SWAP4 DUP2 ADD SWAP4 SWAP1 SWAP2 ADD SWAP1 PUSH2 0x29FA JUMP JUMPDEST SWAP1 DUP2 SLOAD PUSH1 0x1 PUSH1 0x1 PUSH1 0x40 SHL SUB DUP2 GT PUSH2 0x335 JUMPI PUSH1 0x40 MLOAD SWAP3 PUSH1 0x20 PUSH2 0x2A59 DUP2 DUP5 PUSH1 0x5 SHL ADD DUP7 PUSH2 0x1EA4 JUMP JUMPDEST DUP3 DUP6 MSTORE PUSH1 0x0 SWAP2 DUP3 MSTORE DUP1 DUP3 KECCAK256 DUP2 DUP7 ADD JUMPDEST DUP5 DUP5 LT PUSH2 0x2A76 JUMPI POP POP POP POP POP JUMP JUMPDEST PUSH1 0x1 DUP4 DUP2 SWAP3 PUSH2 0x2A84 DUP6 PUSH2 0x1EC5 JUMP JUMPDEST DUP2 MSTORE ADD SWAP3 ADD SWAP4 ADD SWAP3 SWAP1 PUSH2 0x2A68 JUMP JUMPDEST PUSH1 0x40 MLOAD SWAP1 PUSH2 0x2A9F DUP3 PUSH2 0x1E51 JUMP JUMPDEST DUP2 PUSH2 0x160 PUSH1 0x0 SWAP2 DUP3 DUP2 MSTORE PUSH1 0x60 PUSH1 0x20 DUP3 ADD MSTORE PUSH1 0x60 PUSH1 0x40 DUP3 ADD MSTORE DUP3 PUSH1 0x60 DUP3 ADD MSTORE PUSH1 0x60 PUSH1 0x80 DUP3 ADD MSTORE DUP3 PUSH1 0xA0 DUP3 ADD MSTORE DUP3 PUSH1 0xC0 DUP3 ADD MSTORE DUP3 PUSH1 0xE0 DUP3 ADD MSTORE PUSH1 0x60 PUSH2 0x100 DUP3 ADD MSTORE DUP3 PUSH2 0x120 DUP3 ADD MSTORE DUP3 PUSH2 0x140 DUP3 ADD MSTORE ADD MSTORE JUMP INVALID LOG2 PUSH5 0x6970667358 0x22 SLT KECCAK256 EXTCODEHASH CALLDATALOAD 0xE4 BALANCE JUMPDEST 0x2D RETURNDATASIZE STOP CREATE2 PUSH15 0x8AA054BC31615B3B286D57381FB94B SLT 0xBA 0xB3 DUP1 AND 0x4A SWAP7 PUSH5 0x736F6C6343 STOP ADDMOD GT STOP CALLER "},"methodIdentifiers":{"AI_solution(string,string)":"2aa58656","PendingImg(address,uint256)":"1fa675f0","PendingList(string)":"76477e2f","add_farmer(address,uint256)":"b8af0f79","add_scientist(address,uint256,uint256)":"76f1d5f8","closeImg(address,uint256)":"7aa4e76c","closeList(string)":"1a015350","close_images(uint256)":"4fd71526","display_close(address)":"6aa4b03c","display_close_output(string)":"314247e7","display_farmer(address)":"5b46b289","display_final(address)":"421d73cc","display_final_output(string)":"eeeece50","display_open(address)":"f20a325a","display_open_output(string)":"836b03cd","display_scientist(address)":"b567d6a3","farmers(uint256)":"8afdd669","finalImg(address,uint256)":"3a1d9997","finalList(string)":"92ee8345","final_images(uint256)":"d5b8c35c","getKvkManager()":"61c4e799","get_close_images()":"bd9fe5c5","get_farmers()":"1b918318","get_final_images()":"39203b0f","get_images()":"201e5414","get_scientists()":"5912a4f7","images(uint256)":"84856482","openImg(address,uint256)":"1236dfeb","openList(string)":"67f74545","review_image(string,string)":"fafc5e05","scientists(uint256)":"8aa9e631","upload_image(address,string)":"a98307c6","verifiers_map(address)":"5c307315","verify_image(string,bool)":"a0639160"}}}}}